:0400000026EF62F095
:10C3AD00EF0088C69A1200026E8C908C940250EAAF
:10C3BD00EC61F08C801200026E8C908C840250EA3D
:10C3CD00EC61F08C801200016E01C0C9FFC7A0F2B4
:10C3DD00EF61F0F4EF61F0EDEF61F0C950120094F0
:10C3ED0096949A9488929AC00EC76E210EC66E00CE
:10C3FD000EB06E000E766E12008C808C92000E02C6
:10C40D006E320E016E40EC62F08C82000E026E9662
:10C41D000E016E40EC62F0120001500302F3CF05E5
:10C42D00F0F4CF06F001500402F35006260250033B
:10C43D0002F350062605C001F006C002F01200AD51
:10C44D000EF66EC30EF76E000EF86E0900F5CF3DB9
:10C45D00F00900F5CF3EF00900F5CF3FF000EE35C5
:10C46D00F0080EEE6AE806FDE1000EF86E00019C84
:10C47D00EF64F0000E056E000E046E50EF62F015C5
:10C48D000E036EC60EE82EFED7032EFCD700D00489
:10C49D004A052A0150045C02500558D8A059EF6294
:10C4AD00F05BEF62F046EF62F012008C908C942AF4
:10C4BD000EEAEC61F08C840350EAEC61F00250EA74
:10C4CD00EC61F00550EAEC61F00450EAEC61F08C9F
:10C4DD00942B0EEAEC61F08C840750EAEC61F006C7
:10C4ED0050EAEC61F00950EAEC61F00850EAEC61B9
:10C4FD00F08C942C0EEAEC61F08C80120013501825
:10C50D006E12C019F00AC002F00BC003F00EC00489
:10C51D00F00FC005F00CC006F00DC007F010C008FC
:10C52D00F011C009F05CEC62F08C908C840CC0149E
:10C53D00F00DC015F0BEEF62F00AC016F00BC0177B
:10C54D00F0B1EF62F01850EAEC61F01950EAEC61CD
:10C55D00F0164A172A16500E5C17500F58D8B0BA5D
:10C56D00EF62F0BCEF62F0A9EF62F0144A152A14E5
:10C57D0050105C15501158D8B0C7EF62F0C9EF627A
:10C58D00F0A3EF62F08C801200000E066E04BED494
:10C59D00EF62F0D2EF62F0DAEF62F0036C041ED8B6
:10C5AD00B0042A010E066E02BEE1EF62F0DFEF620B
:10C5BD00F0E7EF62F0016C021ED8B0022A010E0600
:10C5CD001A000E086E000E076E03500410D8B4F258
:10C5DD00EF62F0F4EF62F01CEF63F0010E056EFCFC
:10C5ED00EF62F0D89003360436052A04AE01EF63EE
:10C5FD00F003EF63F0F8EF62F0D8900736083603DA
:10C60D0050015C04500258D8A00FEF63F011EF6396
:10C61D00F016EF63F00350015E0450025A0780D804
:10C62D009004320332052E03EF63F00650D8B42286
:10C63D00EF63F024EF63F028EF63F0076C081ED86A
:10C64D00B0082A07C001F008C002F012000B500C10
:10C65D006E0AC00DF05BEF63F0000E036E000E026C
:10C66D006E000E056EEF0E046E000E076E000E06C8
:10C67D006E010E096E3F0E086E5CEC62F066EF63A4
:10C68D00F0000E036E000E026E010E056E3F0E04DD
:10C69D006E000E076E000E066E000E096EEF0E0890
:10C6AD006E5CEC62F066EF63F03F50880AD8B433ED
:10C6BD00EF63F0600AD8B447EF63F066EF63F08C78
:10C6CD00908C84000E0F6E000E0E6E000E116E001B
:10C6DD000E106E0C50EAEC61F00D50EAEC61F010AA
:10C6ED004A112A115009E1F00E105CD8A081EF63B8
:10C6FD00F083EF63F070EF63F00E4A0F2A400E0ED9
:10C70D005C010E0F58D8A08EEF63F090EF63F06CC4
:10C71D00EF63F08C8012009590959495928C808C9F
:10C72D00948C9203EC62F0CB0EDAEC61F0390EE2F0
:10C73D00EC61F02C0EE2EC61F0000EE2EC61F034F5
:10C74D000EE2EC61F0020EE2EC61F0CF0EDAEC617C
:10C75D00F0000EE2EC61F0C10EE2EC61F0300EE2A1
:10C76D00EC61F0E80EDAEC61F0850EE2EC61F000C0
:10C77D000EE2EC61F0780EE2EC61F0EA0EDAEC61BB
:10C78D00F0000EE2EC61F0000EE2EC61F0ED0EDA7D
:10C79D00EC61F0640EE2EC61F0030EE2EC61F0127C
:10C7AD000EE2EC61F0810EE2EC61F0F70EDAEC6175
:10C7BD00F0200EE2EC61F0C00EDAEC61F0230EE237
:10C7CD00EC61F0C10EDAEC61F0100EE2EC61F0C537
:10C7DD000EDAEC61F03E0EE2EC61F0280EE2EC6157
:10C7ED00F0C70EDAEC61F0860EE2EC61F0360EDA8F
:10C7FD00EC61F0880EE2EC61F03A0EDAEC61F05586
:10C80D000EE2EC61F0B10EDAEC61F0000EE2EC61DB
:10C81D00F0180EE2EC61F0B60EDAEC61F0080EE203
:10C82D00EC61F0820EE2EC61F0270EE2EC61F0F2C9
:10C83D000EDAEC61F0000EE2EC61F0260EDAEC613E
:10C84D00F0010EE2EC61F0E00EDAEC61F00F0EE2B9
:10C85D00EC61F0310EE2EC61F02B0EE2EC61F00CCC
:10C86D000EE2EC61F00E0EE2EC61F0080EE2EC610E
:10C87D00F04E0EE2EC61F0F10EE2EC61F0370EE2FB
:10C88D00EC61F0070EE2EC61F0100EE2EC61F003EA
:10C89D000EE2EC61F00E0EE2EC61F0090EE2EC61DD
:10C8AD00F0000EE2EC61F0E10EDAEC61F0000EE268
:10C8BD00EC61F00E0EE2EC61F0140EE2EC61F003AF
:10C8CD000EE2EC61F0110EE2EC61F0070EE2EC61AC
:10C8DD00F0310EE2EC61F0C10EE2EC61F0480EE2D7
:10C8ED00EC61F0080EE2EC61F00F0EE2EC61F00C81
:10C8FD000EE2EC61F0310EE2EC61F0360EE2EC612D
:10C90D00F00F0EE2EC61F0110EDAEC61F0000E02A8
:10C91D006E960E016E40EC62F0290EDAEC61F0FFBE
:10C92D000E0B6E0A682DEC63F01200700ED36E9B29
:10C93D008C000E0F01386F000E396F000E3A6F002C
:10C94D000E3B6F000E3C6F000E806E000E816E0070
:10C95D000E826E000E836E000E846E000E926E00BF
:10C96D000E936E000E946E000E956E000E966ED8A0
:10C97D00EC61F0F6EC61F092EC63F0000E326E7843
:10C98D000E316E000E346EA00E336E000E2C6E0145
:10C99D000E2B6E000E2E6E010E2D6E000E306E14CF
:10C9AD000E2F6E2FC001F030C002F0000E046E028B
:10C9BD000E036ECBEC62F00150315C1B6E025032F7
:10C9CD00581C6E2FC001F030C002F0000E046E0234
:10C9DD000E036ECBEC62F00150335C1D6E025034D1
:10C9ED00581E6E2FC001F030C002F0000E046E0212
:10C9FD000E036ECBEC62F0315001241F6E325002EB
:10CA0D0020206E2FC001F030C002F0000E046E0227
:10CA1D000E036ECBEC62F033500124216E345002C4
:10CA2D0020226E2B5031262C50322220EE2DF0DE9E
:10CA3D00503326DD5034222FC001F030C002F000FB
:10CA4D000E046E020E036ECBEC62F00150315C23CE
:10CA5D006E02503258246E2FC001F030C002F0002B
:10CA6D000E046E020E036ECBEC62F00150335C25AA
:10CA7D006E02503458266E2FC001F030C002F00007
:10CA8D000E046E020E036ECBEC62F03150012427C2
:10CA9D006E32500220286E2FC001F030C002F0001F
:10CAAD000E046E020E036ECBEC62F033500124299E
:10CABD006E345002202A6E26BE6FEF65F0265006AA
:10CACD00E12504D8B06DEF65F06FEF65F090EF657F
:10CADD00F0000E266E000E256E2FC001F030C00244
:10CAED00F0000E046E020E036ECBEC62F001C0334B
:10CAFD00F002C034F02DC001F02EC002F0FF0E0484
:10CB0D006E036813EC62F001C02DF002C02EF0B67A
:10CB1D00EF65F02ABE9CEF65F0400E295C010E2AF0
:10CB2D0058D8A09CEF65F09EEF65F0B6EF65F0016B
:10CB3D000E2A6E400E296E2FC001F030C002F0009B
:10CB4D000E046E020E036ECBEC62F0015040083302
:10CB5D006E0250D8A0E82A0108346E81EF65F024EA
:10CB6D00BEC3EF65F0245006E12304D8B0C1EF65D4
:10CB7D00F0C3EF65F0E4EF65F0000E246E000E23B8
:10CB8D006E2FC001F030C002F0000E046E020E03D5
:10CB9D006ECBEC62F001C031F002C032F02BC0015F
:10CBAD00F02CC002F0FF0E046E036813EC62F0016E
:10CBBD00C02BF002C02CF00AEF66F028BEF0EF6536
:10CBCD00F0285009E1F00E275CD8A0F0EF65F0F2E7
:10CBDD00EF65F00AEF66F0000E286EF00E276E2F4F
:10CBED00C001F030C002F0000E046E020E036ECBD9
:10CBFD00EC62F00150F008316E0250D8A0E82A0026
:10CC0D0008326ED5EF65F023501B5C1C50800A1A5C
:10CC1D006E2450800A1A58D8B017EF66F019EF66D7
:10CC2D00F02EEF66F01BC00AF01CC00BF01DC00CFF
:10CC3D00F01EC00DF023C00EF024C00FF021C01067
:10CC4D00F022C011F0FF0E136E126885EC62F01F1A
:10CC5D0050275C2850800A1A6E2050800A1A58D826
:10CC6D00B03BEF66F03DEF66F052EF66F027C00A7D
:10CC7D00F028C00BF01DC00CF01EC00DF01FC00E33
:10CC8D00F020C00FF021C010F022C011F0FF0E13E4
:10CC9D006E126885EC62F025501D5C1E50800A1ADC
:10CCAD006E2650800A1A58D8B05FEF66F061EF66B5
:10CCBD00F076EF66F01BC00AF01CC00BF01DC00C27
:10CCCD00F01EC00DF01FC00EF020C00FF025C010DB
:10CCDD00F026C011F0FF0E136E126885EC62F02184
:10CCED0050295C2A50800A1A6E2250800A1A58D890
:10CCFD00B083EF66F085EF66F09AEF66F01BC00A21
:10CD0D00F01CC00BF029C00CF02AC00DF01FC00E96
:10CD1D00F020C00FF021C010F022C011F0FF0E1353
:10CD2D006E126885EC62F023C00AF024C00BF0256A
:10CD3D00C00CF026C00DF027C00EF028C00FF02952
:10CD4D00C010F02AC011F0000E136E000E126E8589
:10CD5D00EC62F0D8EF64F000EF00F000FFFFFFFF92
:10CD6D00FFFFFFFFFFFFFFFFFFFFFFFFFFFFFFFFC6
:10CD7D00FFFFFFFFFFFFFFFFFFFFFFFFFFFFFFFFB6
:10CD8D00FFFFFFFFFFFFFFFFFFFFFFFFFFFFFFFFA6
:10CD9D00FFFFFFFFFFFFFFFFFFFFFFFFFFFFFFFF96
:10CDAD00FFFFFFFFFFFFFFFFFFFFFFFFFFFFFFFF86
:10CDBD00FFFFFFFFFFFFFFFFFFFFFFFFFFFFFFFF76
:10CDCD00FFFFFFFFFFFFFFFFFFFFFFFFFFFFFFFF66
:10CDDD00FFFFFFFFFFFFFFFFFFFFFFFFFFFFFFFF56
:10CDED00FFFFFFFFFFFFFFFFFFFFFFFFFFFFFFFF46
:10CDFD00FFFFFFFFFFFFFFFFFFFFFFFFFFFFFFFF36
:10CE0D00FFFFFFFFFFFFFFFFFFFFFFFFFFFFFFFF25
:10CE1D00FFFFFFFFFFFFFFFFFFFFFFFFFFFFFFFF15
:10CE2D00FFFFFFFFFFFFFFFFFFFFFFFFFFFFFFFF05
:10CE3D00FFFFFFFFFFFFFFFFFFFFFFFFFFFFFFFFF5
:10CE4D00FFFFFFFFFFFFFFFFFFFFFFFFFFFFFFFFE5
:10CE5D00FFFFFFFFFFFFFFFFFFFFFFFFFFFFFFFFD5
:10CE6D00FFFFFFFFFFFFFFFFFFFFFFFFFFFFFFFFC5
:10CE7D00FFFFFFFFFFFFFFFFFFFFDFFFDFFFDFFF15
:10CE8D00DFFFDFFFFFFFFFFFFFFFFFFFFFFFFFFFE5
:10CE9D00FFFFFFFFFFFFFFFFFFFFFFFFFFFFFFFF95
:10CEAD00FFFFDFFFDFFFDFFFDFFFDFFFFFFFFFFF25
:10CEBD00FFFFFFFFFFFFFFFFFFFFFFFFFFFFFFFF75
:10CECD00FFFFFFFFFFFFFFFFFFFFDFFFDFFFDFFFC5
:10CEDD00DFFFDFFFFFFFFFFFFFFFFFFFFFFFFFFF95
:10CEED00FFFFFFFFFFFFFFFFFFFFFFFFFFFFFFFF45
:10CEFD00FFFFFFFFFFFFFFFFDFFFDFFFDFFFDFFFB5
:10CF0D00DFFFFFFFFFFFFFFFFFFFFFFFFFFFFFFF44
:10CF1D00FFFFFFFFFFFFFFFFFFFFFFFFFFFFFFFF14
:10CF2D00DFFFDFFFDFFFDFFFDFFFFFFFFFFFFFFFA4
:10CF3D00FFFFFFFFFFFFFFFFFFFFFFFFFFFFFFFFF4
:10CF4D00FFFFFFFFFFFFFFFFDFFFDFFFDFFFDFFF64
:10CF5D00DFFFFFFFFFFFFFFFFFFFFFFFFFFFFFFFF4
:10CF6D00FFFFFFFFFFFFFFFFFFFFFFFFFFFFFFFFC4
:10CF7D00FFFFFFFFFFFFDFFFDFFFDFFFDFFFDFFF54
:10CF8D00FFFFFFFFFFFFFFFFFFFFFFFFFFFFFFFFA4
:10CF9D00FFFFFFFFFFFFFFFFFFFFFFFFFFFFDFFFB4
:10CFAD00DFFFDFFFDFFFDFFFFFFFFFFFFFFFFFFF04
:10CFBD00FFFFFFFFFFFFFFFFFFFFFFFFFFFFFFFF74
:10CFCD00FFFFFFFFFFFFDFFFDFFFDFFFDFFFDFFF04
:10CFDD00FFFFFFFFFFFFFFFFFFFFFFFFFFFFFFFF54
:10CFED00FFFFFFFFFFFFFFFFFFFFFFFFFFFFFFFF44
:10CFFD00FFFFFFFFBEF7BEF7BEF7BEF7BEF7FFFFA1
:10D00D00FFFFFFFFFFFFFFFFFFFFFFFFFFFFFFFF23
:10D01D00FFFFFFFFFFFFFFFFFFFFFFFFBEF7BEF7A5
:10D02D00BEF7BEF7BEF7FFFFFFFFFFFFFFFFFFFFDE
:10D03D00FFFFFFFFFFFFFFFFFFFFFFFFFFFFFFFFF3
:10D04D00FFFFFFFFBEF7BEF7BEF7BEF7BEF7FFFF50
:10D05D00FFFFFFFFFFFFFFFFFFFFFFFFFFFFFFFFD3
:10D06D00FFFFFFFFFFFFFFFFFFFFFFFFFFFFFFFFC3
:10D07D00FFFFBEF7BEF7BEF7BEF7BEF7FFFFFFFF20
:10D08D00FFFFFFFFFFFFFFFFFFFFFFFFFFFFFFFFA3
:10D09D00FFFFFFFFFFFFFFFFFFFFBEF7BEF7BEF76E
:10D0AD00BEF7BEF7FFFFFFFFFFFFFFFFFFFFFFFF15
:10D0BD00FFFFFFFFFFFFFFFFFFFFFFFFFFFFFFFF73
:10D0CD00FFFFBEF7BEF7BEF7BEF7BEF7FFFFFFFFD0
:10D0DD00FFFFFFFFFFFFFFFFFFFFFFFFFFFFFFFF53
:10D0ED00FFFFFFFFFFFFFFFFFFFFFFFFFFFFFFFF43
:10D0FD00BEF7BEF7BEF7BEF7BEF7FFFFFFFFFFFFA0
:10D10D00FFFFFFFFFFFFFFFFFFFFFFFFFFFFFFFF22
:10D11D00FFFFFFFFFFFFFFFFBEF7BEF7BEF7BEF736
:10D12D00BEF7FFFFFFFFFFFFFFFFFFFFFFFFFFFF4B
:10D13D00FFFFFFFFFFFFFFFFFFFFFFFFFFFFFFFFF2
:10D14D00BEF7BEF7BEF7BEF7BEF7FFFFFFFFFFFF4F
:10D15D00FFFFFFFFFFFFFFFFFFFFFFFFFFFFFFFFD2
:10D16D00FFFFFFFFFFFFFFFFFFFFFFFFFFFFBEF70B
:10D17D00BEF7BEF7BEF7BEF7FFFFFFFFFFFFFFFFD6
:10D18D00FFFFFFFFFFFFFFFFFFFFFFFFFFFFFFFFA2
:10D19D00FFFFFFFFFFFFBEF7BEF7BEF7BEF7BEF7FF
:10D1AD00FFFFFFFFFFFFFFFFFFFFFFFFFFFFFFFF82
:10D1BD00FFFFFFFFFFFFFFFFFFFFFFFFFFFFBEF7BB
:10D1CD00BEF7BEF7BEF7BEF7FFFFFFFFFFFFFFFF86
:10D1DD00FFFFFFFFFFFFFFFFFFFFFFFFFFFFFFFF52
:10D1ED00FFFFFFFFFFFFFFFFFFFFFFFFBEF7BEF7D4
:10D1FD00BEF7BEF7BEF7FFFFFFFFFFFFFFFFFFFF0D
:10D20D00FFFFFFFFFFFFFFFFFFFFFFFFFFFFFFFF21
:10D21D00FFFFFFFFBEF7BEF7BEF7BEF7BEF7FFFF7E
:10D22D00FFFFFFFFFFFFFFFFFFFFFFFFFFFFFFFF01
:10D23D00FFFFFFFFFFFFFFFFFFFFFFFFBEF7BEF783
:10D24D00BEF7BEF7BEF7FFFFFFFFFFFFFFFFFFFFBC
:10D25D00FFFFFFFFFFFFFFFFFFFFFFFFFFFFFFFFD1
:10D26D00FFFFFFFFFFFFFFFFFFFFBEF7BEF7BEF79C
:10D27D00BEF7BEF7FFFFFFFFFFFFFFFFFFFFFFFF43
:10D28D00FFFFFFFFFFFFFFFFFFFFFFFFFFFFFFFFA1
:10D29D00FFFFBEF7BEF7BEF7BEF7BEF7FFFFFFFFFE
:10D2AD00FFFFFFFFFFFFFFFFFFFFFFFFFFFFFFFF81
:10D2BD00FFFFFFFFFFFFFFFFFFFFBEF7BEF7BEF74C
:10D2CD00BEF7BEF7FFFFFFFFFFFFFFFFFFFFFFFFF3
:10D2DD00FFFFFFFFFFFFFFFFFFFFFFFFFFFFFFFF51
:10D2ED00FFFFFFFFFFFFFFFFBEF7BEF7BEF7BEF765
:10D2FD00BEF7FFFFFFFFFFFFFFFFFFFFFFFFFFFF7A
:10D30D00FFFFFFFFFFFFFFFFFFFFFFFFFFFFFFFF20
:10D31D00BEF7BEF7BEF7BEF7BEF7FFFFFFFFFFFF7D
:10D32D00FFFFFFFFFFFFFFFFFFFFFFFFFFFFFFFF00
:10D33D00FFFFFFFFFFFFFFFFBEF7BEF7BEF7BEF714
:10D34D00BEF7FFFFFFFFFFFFFFFFFFFFFFFFFFFF29
:10D35D00FFFFFFFFFFFFFFFFFFFFFFFFFFFFFFFFD0
:10D36D00FFFFFFFFFFFFBEF7BEF7BEF7BEF7BEF72D
:10D37D00FFFFFFFFFFFFFFFFFFFFFFFFFFFFFFFFB0
:10D38D00FFFFFFFFFFFFFFFFFFFFFFFFFFFFBEF7E9
:10D39D00BEF7BEF7BEF7BEF7FFFFFFFFFFFFFFFFB4
:10D3AD00FFFFFFFFFFFFFFFFFFFFFFFFFFFFFFFF80
:10D3BD00FFFFFFFFFFFFBEF779CED39C0C636529FE
:10D3CD00694ADFFFFFFFFFFFFFFFFFFFFFFFFFFFCB
:10D3DD00FFFFFFFFFFFFFFFFFFFFFFFFFFFFFFFF50
:10D3ED00FFFFFFFFDFFFBEF7BEF7BEF7BEF7FFFF84
:10D3FD00FFFFFFFFFFFFFFFFFFFFFFFFFFFFFFFF30
:10D40D00FFFFFFFFFFFFFFFFFFFFFFFFBEF7BEF7B1
:10D41D00BEF7BEF7BEF7FFFFFFFFFFFFFFFFFFFFEA
:10D42D00FFFFFFFFFFFFFFFFFFFFFFFFFFFF9EF768
:10D43D00D7BD1084494AA210200020002000000012
:10D44D000000DBDEFFFFFFFFFFFFFFFFFFFFFFFF22
:10D45D00FFFFFFFFFFFFFFFFFFFFFFFFFFFFFFFFCF
:10D46D00FFFFDFFFDFFFBEF7BEF7BEF7FFFFFFFFDA
:10D47D00FFFFFFFFFFFFFFFFFFFFFFFFFFFFFFFFAF
:10D48D00FFFFFFFFFFFFFFFFFFFFBEF7BEF7BEF77A
:10D49D00BEF7BEF7FFFFFFFFFFFFFFFFFFFFFFFF21
:10D4AD00FFFFFFFFFFFFBAD6F39C2C636529000039
:10D4BD00000020002000200020002000610808420C
:10D4CD009294FFFFFFFFFFFFFFFFFFFFFFFFFFFF37
:10D4DD00FFFFFFFFFFFFFFFFFFFFFFFFFFFFFFFF4F
:10D4ED00DFFFDFFFDFFFBEF7BEF7FFFFFFFFFFFF31
:10D4FD00FFFFFFFFFFFFFFFFFFFFFFFFFFFFFFFF2F
:10D50D00FFFFFFFFFFFFFFFFBEF7BEF7BEF7BEF742
:10D51D00BEF7FFFFFFFFFFFFFFFFFFFF9EF7D7BD2A
:10D52D001084494A82100000000000000000000035
:10D53D00200020002421CB5A929479CEFFFFFFFFCB
:10D54D00FFFFFFFFFFFFFFFFFFFFFFFFFFFFFFFFDE
:10D55D00FFFFFFFFFFFFFFFFDFFFFFFFFFFFFFFFEE
:10D56D00DFFFDFFFDFFFBEF7FFFFFFFFFFFFFFFF67
:10D57D00FFFFFFFFFFFFFFFFFFFFFFFFFFFFFFFFAE
:10D58D00FFFFFFFFFFFFBEF7BEF7BEF7BEF7BEF70B
:10D59D00FFFFFFFFBAD6F39C2C6345290000000066
:10D5AD000000000000000000000061080842CF7379
:10D5BD0075AD1CE7BEF7BEF7FFFFFFFFFFFFFFFFD7
:10D5CD00FFFFFFFFFFFFFFFFFFFFFFFFFFFFFFFF5E
:10D5DD00FFFFFFFFFFFFDFFFDFFFFFFFFFFFFFFF8E
:10D5ED00DFFFDFFFDFFFFFFFFFFFFFFFFFFFFFFF9E
:10D5FD00FFFFFFFFFFFFFFFFFFFFFFFFFFFFFFFF2E
:10D60D00FFFFFFFFBEF7BEF7BEF73CE796B51084F0
:10D61D002842821000000000000000000000000001
:10D62D0000002421EB5AD39C9AD6DFFFBEF7BEF73C
:10D63D00BEF7BEF7BEF7FFFFFFFFFFFFFFFFFFFFC8
:10D64D00FFFFFFFFFFFFFFFFFFFFFFFFFFFFFFFFDD
:10D65D00FFFFFFFFDFFFDFFFDFFFFFFFFFFFFFFF2D
:10D66D00DFFFDFFFFFFFFFFFFFFFFFFFFFFFFFFFFD
:10D67D00FFFFFFFFFFFFFFFFFFFFFFFFFFFFFFFFAD
:10D68D00FFFF79CEB2940C63452920000000000005
:10D69D00000000000000000061080842EF7BB6B5F5
:10D6AD007DEFFFFFFFFFFFFFFFFFBEF7BEF7BEF7EA
:10D6BD00BEF7BEF7FFFFFFFFFFFFFFFFFFFFFFFFFF
:10D6CD00FFFFFFFFFFFFFFFFFFFFFFFFFFFFFFFF5D
:10D6DD00FFFFBEF7DFFFDFFFDFFFFFFFFFFFFFFFF6
:10D6ED00DFFFFFFFFFFFFFFFFFFFFFFFFFFFFFFF5D
:10D6FD00FFFFFFFFFFFFFFFF7DEFD7BDEF7B284251
:10D70D0082102000200020002000000000000000FA
:10D71D0045290C63D39C9AD6FFFFFFFFFFFFFFFF48
:10D72D00FFFFFFFFFFFFFFFFBEF7BEF7BEF7BEF720
:10D73D00BEF7FFFFFFFFFFFFFFFFFFFFFFFFFFFF35
:10D74D00FFFFFFFFFFFFFFFFFFFFFFFFFFFFFFFFDC
:10D75D00BEF7BEF7DFFFDFFFDFFFFFFFFFFFFFFFBE
:10D76D00FFFFFFFFFFFFFFFFFFFFFFFFFFFFFFFFBC
:10D77D00BAD6D39C0C6345290000000000002000A0
:10D78D0020002000200082102842EF7BB6B57DEFEF
:10D79D00FFFFFFFFFFFFFFFFFFFFFFFFFFFFFFFF8C
:10D7AD00FFFFFFFFFFFFBEF7BEF7BEF7BEF7BEF7E9
:10D7BD00FFFFFFFFFFFFFFFFFFFFFFFFFFFFFFFF6C
:10D7CD00FFFFFFFFFFFFFFFFFFFFFFFFFFFFBEF7A5
:10D7DD00BEF7BEF7DFFFDFFFFFFFFFFFFFFFFFFF1E
:10D7ED00FFFFFFFFFFFFFFFF3CE7EF7B28426108D4
:10D7FD0000000000000000000000000020002000DC
:10D80D0020000421AA5210841084108410841084E6
:10D81D00108410841084108410841084108410845B
:10D82D00108410841084EF7BEF7BEF7B10841084C9
:10D83D00108410841084108410841084108410843B
:10D84D001084108410841084108410843084FBDEC6
:10D85D00BEF7BEF7DFFFFFFFFFFFFFFFFFFFFFFF7D
:10D86D00FFFFFFFFFFFFFFFFAA52000000000000B7
:10D87D00000000000000000000002000200020003B
:10D88D00200020000000000000000000000000004B
:10D89D00000000000000000000000000000000007B
:10D8AD0000002000200020002000200000000000CB
:10D8BD00000000000000000000000000000000005B
:10D8CD000000000000000000000020002000CB5AE6
:10D8DD00BEF7BEF7FFFFFFFFFFFFFFFFFFFFFFFFDD
:10D8ED00FFFFFFFFFFFFFFFF2842000000000000C9
:10D8FD00000000000000000020002000200020009B
:10D90D0020000000000000000000000000000000EA
:10D91D0000000000000000000000000000000000FA
:10D92D00200020002000200020000000000000004A
:10D93D0000000000000000000000000000000000DA
:10D94D000000000000000000200020002000494AD7
:10D95D00BEF7FFFFFFFFFFFFFFFFFFFFFFFFFFFF13
:10D96D00FFFFFFFFFFFFFFFF284200000000000048
:10D97D0000000000000020002000200020002000FA
:10D98D00000000000000000000000000000000008A
:10D99D00000000000000000000000000000020005A
:10D9AD0020002000200020000000000000000000EA
:10D9BD00000000000000000000000000000000005A
:10D9CD000000000000002000200020002000494A37
:10D9DD00FFFFFFFFFFFFFFFFFFFFFFFFFFFFFFFF4A
:10D9ED00FFFFFFFFFFFFFFFF2842000000000000C8
:10D9FD00000000002000200020002000200000007A
:10DA0D000000000000000000000000000000000009
:10DA1D0000000000000000000000000020002000B9
:10DA2D002000200020000000000000000000000089
:10DA3D0000000000000000000000000000000000D9
:10DA4D000000000020002000200020002000494A96
:10DA5D00FFFFFFFFFFFFFFFFFFFFFFFFFFFFFFFFC9
:10DA6D00FFFFFFFFFFFFFFFF284200000000000047
:10DA7D0000002000200020002000200000000000F9
:10DA8D000000000000000000000000000000000089
:10DA9D000000000000000000000020002000200019
:10DAAD002000200000000000000000000000000029
:10DABD000000000000000000000000000000000059
:10DACD000000200020002000200020000000494A16
:10DADD00FFFFFFFFFFFFFFFFFFFFFFFFFFFFFFFF49
:10DAED00FFFFFFFFFFFFFFFF2842000000000000C7
:10DAFD002000200020002000200000000000000079
:10DB0D00E318AE73D7BDFBDE3CE79AD634A5EB5ACE
:10DB1D00410800000000000020002000200020002F
:10DB2D0020000000000000000000000000000000C8
:10DB3D0000000000000000000000000000000000D8
:10DB4D002000200020002000200000000000494A95
:10DB5D00FFFFFFFFFFFFFFFFFFFFFFFFFFFFFFFFC8
:10DB6D00FFFFFFFFFFFFFFFF284200000000200026
:10DB7D002000200020002000000000006108B29469
:10DB8D00DFFFFFFFFFFFFFFFFFFFFFFFFFFFFFFFB8
:10DB9D005DEF0C630000200020002000200020001D
:10DBAD0000000000000000002000200020002000E8
:10DBBD002000200020002000200020004108410806
:10DBCD002000200020002000000000000000494A35
:10DBDD00FFFFFFFFFFFFFFFFFFFFFFFFFFFFFFFF48
:10DBED00FFFFFFFFFFFFFFFF284200002000200086
:10DBFD00200020002000000000000421DBDEFFFFDC
:10DC0D00FFFFFFFFBAD634A5D39C96B57DEFFFFF7E
:10DC1D00FFFFFFFFF39C41082000200020000000C3
:10DC2D00000000000000B294FFFFFFFFFFFFFFFFA9
:10DC3D00FFFFFFFFFFFFFFFFFFFFFFFFBEF7BEF779
:10DC4D00BAD6821020000000000000000000494AF2
:10DC5D00FFFFFFFFFFFFFFFFFFFFFFFFFFFFFFFFC7
:10DC6D00FFFFFFFFFFFFFFFF2842200020002000E5
:10DC7D002000200000000000A2101CE7FFFFFFFFA6
:10DC8D00D7BD863100000000000000002000CB5AF7
:10DC9D001CE7BEF7BEF7F39C20002000000000003B
:10DCAD000000000000009AD6FFFFFFFFFFFFFFFFFF
:10DCBD00FFFFFFFFFFFFFFFFFFFFBEF7BEF7BEF742
:10DCCD00BEF7452900000000000000000000494A91
:10DCDD00FFFFFFFFFFFFFFFFFFFFFFFFFFFFFFFF47
:10DCED00FFFFFFFFFFFFFFFF284220002000200065
:10DCFD002000000000000000B6B5FFFFFFFF3084DC
:10DD0D000000000000000000000000000000000006
:10DD1D00A210F7BDBEF7BEF70C63000000000000B7
:10DD2D000000000000002421AE73AE73AE73AE731D
:10DD3D00AE73AE73AE73AE73AE73AE73AE73AE73CE
:10DD4D00694A000000000000000000000000494A80
:10DD5D00FFFFFFFFFFFFFFFFFFFFFFFFFFFFFFFFC6
:10DD6D00FFFFFFFFFFFFBEF728422000200020002D
:10DD7D000000000000002842FFFFFFFF14A5000077
:10DD8D000000000000000000000000000000200066
:10DD9D002000A210DBDEBEF75DEF410800000000A1
:10DDAD000000000000000000000000000000000066
:10DDBD0000000000000020002000200020002000B6
:10DDCD000000000000000000000000000000494AB3
:10DDDD00FFFFFFFFFFFFFFFFFFFFFFFFFFFFFFFF46
:10DDED00FFFFFFFFDFFFBEF72842200020000000ED
:10DDFD0000000000000096B5FFFF9EF782100000A6
:10DE0D0000000000000000000000000020002000C5
:10DE1D0020002000AA52FFFFFFFF0C63000000004E
:10DE2D0000000000000000000000000000000000E5
:10DE3D000000000020002000200020002000000035
:10DE4D000000000000000000000000000000494A32
:10DE5D00FFFFFFFFFFFFFFFFFFFFFFFFFFFFFFFFC5
:10DE6D00FFFFDFFFDFFFBEF72842200000000000AC
:10DE7D00000000002000BEF7FFFFD39C0000000053
:10DE8D000000000000000000000020002000200025
:10DE9D002000200020005DEFFFFF55AD00000000C9
:10DEAD000000000000000000000000000000000065
:10DEBD0000002000200020002000200000000000B5
:10DECD000000000000000000000000000000494AB2
:10DEDD00FFFFFFFFFFFFFFFFFFFFFFFFFFFFFFFF45
:10DEED00DFFFDFFFDFFFBEF728420000000000006C
:10DEFD00000000004529FFFFFFFFCB5A0000000086
:10DF0D000000000000000000200020002000200084
:10DF1D0020000000000075ADFFFFDBDE00000000FB
:10DF2D00000000000000C739718C718C718C718CF0
:10DF3D00518C518C518C518C518C718C718C718C8C
:10DF4D002C63000000000000000000000000494AA2
:10DF5D00FFFFFFFFFFFFFFFFDFFFFFFFFFFFFFFFE4
:10DF6D00DFFFDFFFDFFFBEF72842000000000000EB
:10DF7D0000000000E739FFFFFFFF0842000000002E
:10DF8D0000000000000020002000200020002000E4
:10DF9D00000000000000B294FFFF5DEF00000000E4
:10DFAD00000000000000BAD6FFFFFFFFFFFFBEF725
:10DFBD00BEF7BEF7BEF7BEF7FFFFFFFFFFFFFFFF88
:10DFCD00FFFF652900000000000000000000494A25
:10DFDD00FFFFFFFFFFFFDFFFDFFFFFFFFFFFFFFF84
:10DFED00DFFFDFFFDFFFFFFF284200000000000022
:10DFFD0000000000A631FFFFFFFF694A000000008E
:10E00D000000000020002000200020002000000063
:10E01D0000000000000014A5FFFF1CE70000000039
:10E02D0000000000000010847DEF7DEF3CE73CE731
:10E03D003CE73CE73CE77DEF7DEF7DEF7DEF7DEF4E
:10E04D0038C6410800000000000000000000494AE9
:10E05D00FFFFFFFFDFFFDFFFDFFFFFFFFFFFFFFF23
:10E06D00DFFFDFFFFFFFFFFF284200000000000081
:10E07D00000000008210FFFFFFFFEF7B000000009B
:10E08D0000002000200020002000200000000000E3
:10E09D000000000000009AD6FFFFF7BD0000000051
:10E0AD000000000000000000000020002000200003
:10E0BD002000200000000000000000000000000013
:10E0CD000000000000000000000000000000494AB0
:10E0DD00FFFFBEF7DFFFDFFFDFFFFFFFFFFFFFFFEC
:10E0ED00DFFFFFFFFFFFFFFF2842000000000000E1
:10E0FD000000000000009AD6FFFFBAD60000000015
:10E10D002000200020002000200000000000000062
:10E11D00000000004529FFFFFFFFEF7B000000001E
:10E12D000000000000000000200020002000200062
:10E13D0020000000000000000000000000000000B2
:10E14D000000000000000000000000000000494A2F
:10E15D00BEF7BEF7DFFFDFFFDFFFFFFFFFFFFFFFB4
:10E16D00FFFFFFFFFFFFFFFF284200000000000040
:10E17D000000000000008E73FFFFFFFFEB5A200030
:10E18D002000200020002000000000000000000002
:10E19D000000000096B5FFFFFFFF04210000000006
:10E1AD0000000000000020002000200020002000C2
:10E1BD000000000000000000000000000000000052
:10E1CD000000000000000000000000000000494AAF
:10E1DD00BEF7BEF7DFFFDFFFFFFFFFFFFFFFFFFF14
:10E1ED00FFFFFFFFFFFFFFFF2842000000000000C0
:10E1FD0000000000000061083CE7FFFF5DEFA63165
:10E20D0020002000200000000000000000000000A1
:10E21D000000CF7BFFFFFFFFF39C0000000000001C
:10E22D000000000020002000C318C318C318C31835
:10E23D00A210A210A210A210A210A210A210A21041
:10E24D002000000000000000000000002000494AEE
:10E25D00BEF7BEF7DFFFFFFFFFFFFFFFFFFFFFFF73
:10E26D00FFFFFFFFFFFFFFFF28420000000000003F
:10E27D000000000000000000494A9EF7BEF73CE791
:10E28D00CB5A2000000000000000000000006108D3
:10E29D00B294FFFFFFFF1CE782100000000000009A
:10E2AD00000020002000F39CBEF7BEF7FFFFFFFF2C
:10E2BD00FFFFFFFFFFFFFFFFFFFFFFFFFFFFFFFF61
:10E2CD005DEFA21000000000000020002000494A70
:10E2DD00BEF7BEF7FFFFFFFFFFFFFFFFFFFFFFFFD3
:10E2ED00FFFFFFFFFFFFFFFF2842000000000000BF
:10E2FD00000000000000000020000C639EF7BEF738
:10E30D00BEF79AD6CF7B494AE739AA5292947DEF50
:10E31D00FFFFFFFF3CE74529000000000000000063
:10E32D0020002000200038C6BEF7FFFFFFFFFFFFD3
:10E33D00FFFFFFFFFFFFFFFFFFFFFFFFFFFFFFFFE0
:10E34D00FFFF242100000000200020002000494A8A
:10E35D00BEF7FFFFFFFFFFFFFFFFFFFFFFFFFFFF09
:10E36D00FFFFFFFFFFFFFFFF28420000000000003E
:10E37D00000000000000200020002000494AFBDEC4
:10E38D00FFFFFFFFFFFFFFFFFFFFFFFFFFFFFFFF90
:10E39D00FFFFF7BDE31800000000000000002000A3
:10E3AD00200020002000E3182C632C632C632C63C9
:10E3BD002C632C632C632C632C632C632C632C63D8
:10E3CD00E739000000002000200020002000494A0D
:10E3DD00FFFFFFFFFFFFFFFFFFFFFFFFFFFFFFFF40
:10E3ED00FFFFFFFFFFFFFFFF2842000000000000BE
:10E3FD000000000020002000200020002000610807
:10E40D00AE73BAD6FFFFFFFFFFFFFFFFDFFFD7BDE4
:10E41D00694A0000000000000000000020002000FC
:10E42D00200020002000000000000000000000007F
:10E43D0000000000000000000000000000000000CF
:10E44D000000000020002000200020002000494A8C
:10E45D00FFFFFFFFFFFFFFFFFFFFFFFFFFFFFFFFBF
:10E46D00FFFFFFFFFFFFFFFF28420000000000003D
:10E47D0000002000200020002000200000000000EF
:10E48D0000000000A210C739084286314108000083
:10E49D00000000000000000000002000200020000F
:10E4AD00200020000000000000000000000000001F
:10E4BD00000000000000000000000000000000004F
:10E4CD000000200020002000200020000000494A0C
:10E4DD00FFFFFFFFFFFFFFFFFFFFFFFFFFFFFFFF3F
:10E4ED00FFFFFFFFFFFFFFFF2842000000000000BD
:10E4FD00200020002000200020000000000000006F
:10E50D0000000000000000000000000000000000FE
:10E51D00000000000000000020002000200020006E
:10E52D0020000000000000000000000000000000BE
:10E53D0000000000000000000000000000000000CE
:10E54D002000200020002000200000000000494A8B
:10E55D00FFFFFFFFFFFFFFFFFFFFFFFFFFFFFFFFBE
:10E56D00FFFFFFFFFFFFFFFF28420000000020001C
:10E57D00200020002000200000000000000000000E
:10E58D00000000000000000000000000000000007E
:10E59D0000000000000020002000200020002000CE
:10E5AD00000000000000000000000000000000005E
:10E5BD00000000000000000000000000000020002E
:10E5CD002000200020002000000000000000494A2B
:10E5DD00FFFFFFFFFFFFFFFFFFFFFFFFFFFFFFFF3E
:10E5ED00FFFFFFFFFFFFFFFF28420000200020007C
:10E5FD0020002000200000000000000000000000AE
:10E60D0000000000000000000000000000000000FD
:10E61D00000000002000200020002000200000004D
:10E62D0000000000000000000000000000000000DD
:10E63D00000000000000000000000000200020008D
:10E64D002000200020000000000000000000494ACA
:10E65D00FFFFFFFFFFFFFFFFFFFFFFFFFFFFFFFFBD
:10E66D00FFFFFFFFFFFFFFFF494A200020002000B2
:10E67D00200020000000000000000000000000004D
:10E68D00000000000000000000000000000000007D
:10E69D0000002000200020002000200000000000CD
:10E6AD00000000000000000000000000000000005D
:10E6BD0000000000000000000000200020002000ED
:10E6CD002000200000000000000000000000694A4A
:10E6DD00FFFFFFFFFFFFFFFFFFFFFFFFFFFFFFFF3D
:10E6ED00FFFFFFFFFFFFFFFF34A5242104210421BD
:10E6FD0004210421E318E318E318E318E318E318E1
:10E70D00E318E318E318E318E318E318E3180421FA
:10E71D00042104210421042104210421E318E31818
:10E72D00E318E318E318E318E318E318E318E31804
:10E73D00E318E318E3180421042104210421042122
:10E74D0004210421E318E318E318E318242196B5F6
:10E75D00FFFFFFFFFFFFFFFFFFFFFFFFFFFFFFFFBC
:10E76D00FFFFFFFFFFFFBEF7BEF7BEF7BEF7BEF719
:10E77D00FFFFFFFFFFFFFFFFFFFFFFFFFFFFFFFF9C
:10E78D00FFFFFFFFFFFFFFFFFFFFFFFFFFFFBEF7D5
:10E79D00BEF7BEF7BEF7BEF7FFFFFFFFFFFFFFFFA0
:10E7AD00FFFFFFFFFFFFFFFFFFFFFFFFFFFFFFFF6C
:10E7BD00FFFFFFFFFFFFBEF7BEF7BEF7BEF7BEF7C9
:10E7CD00FFFFFFFFFFFFFFFFFFFFFFFFFFFFFFFF4C
:10E7DD00FFFFFFFFFFFFFFFFFFFFFFFFFFFFFFFF3C
:10E7ED00FFFFFFFFDFFFBEF7BEF7BEF7BEF7FFFF70
:10E7FD00FFFFFFFFFFFFFFFFFFFFFFFFFFFFFFFF1C
:10E80D00FFFFFFFFFFFFFFFFFFFFFFFFBEF7BEF79D
:10E81D00BEF7BEF7BEF7FFFFFFFFFFFFFFFFFFFFD6
:10E82D00FFFFFFFFFFFFFFFFFFFFFFFFFFFFFFFFEB
:10E83D00FFFFFFFFBEF7BEF7BEF7BEF7BEF7FFFF48
:10E84D00FFFFFFFFFFFFFFFFFFFFFFFFFFFFFFFFCB
:10E85D00FFFFFFFFFFFFFFFFFFFFFFFFFFFFFFFFBB
:10E86D00FFFFDFFFDFFFBEF7BEF7BEF7FFFFFFFFC6
:10E87D00FFFFFFFFFFFFFFFFFFFFFFFFFFFFFFFF9B
:10E88D00FFFFFFFFFFFFFFFFFFFFBEF7BEF7BEF766
:10E89D00BEF7BEF7FFFFFFFFFFFFFFFFFFFFFFFF0D
:10E8AD00FFFFFFFFFFFFFFFFFFFFFFFFFFFFFFFF6B
:10E8BD00FFFFBEF7BEF7BEF7BEF7BEF7FFFFFFFFC8
:10E8CD00FFFFFFFFFFFFFFFFFFFFFFFFFFFFFFFF4B
:10E8DD00FFFFFFFFFFFFFFFFFFFFFFFFFFFFFFFF3B
:10E8ED00DFFFDFFFDFFFBEF7BEF7FFFFFFFFFFFF1D
:10E8FD00FFFFFFFFFFFFFFFFFFFFFFFFFFFFFFFF1B
:10E90D00FFFFFFFFFFFFFFFFBEF7BEF7BEF7BEF72E
:10E91D00BEF7FFFFFFFFFFFFFFFFFFFFFFFFFFFF43
:10E92D00FFFFFFFFFFFFFFFFFFFFFFFFFFFFFFFFEA
:10E93D00BEF7BEF7BEF7BEF7BEF7FFFFFFFFFFFF47
:10E94D00FFFFFFFFFFFFFFFFFFFFFFFFFFFFFFFFCA
:10E95D00FFFFFFFFFFFFFFFFDFFFFFFFFFFFFFFFDA
:10E96D00DFFFDFFFDFFFBEF7FFFFFFFFFFFFFFFF53
:10E97D00FFFFFFFFFFFFFFFFFFFFFFFFFFFFFFFF9A
:10E98D00FFFFFFFFFFFFBEF7BEF7BEF7BEF7BEF7F7
:10E99D00FFFFFFFFFFFFFFFFFFFFFFFFFFFFFFFF7A
:10E9AD00FFFFFFFFFFFFFFFFFFFFFFFFFFFFBEF7B3
:10E9BD00BEF7BEF7BEF7BEF7FFFFFFFFFFFFFFFF7E
:10E9CD00FFFFFFFFFFFFFFFFFFFFFFFFFFFFFFFF4A
:10E9DD00FFFFFFFFFFFFDFFFDFFFFFFFFFFFFFFF7A
:10E9ED00DFFFDFFFDFFFFFFFFFFFFFFFFFFFFFFF8A
:10E9FD00FFFFFFFFFFFFFFFFFFFFFFFFFFFFFFFF1A
:10EA0D00FFFFFFFFBEF7BEF7BEF7BEF7BEF7FFFF76
:10EA1D00FFFFFFFFFFFFFFFFFFFFFFFFFFFFFFFFF9
:10EA2D00FFFFFFFFFFFFFFFFFFFFFFFFBEF7BEF77B
:10EA3D00BEF7BEF7BEF7FFFFFFFFFFFFFFFFFFFFB4
:10EA4D00FFFFFFFFFFFFFFFFFFFFFFFFFFFFFFFFC9
:10EA5D00FFFFFFFFDFFFDFFFDFFFFFFFFFFFFFFF19
:10EA6D00DFFFDFFFFFFFFFFFFFFFFFFFFFFFFFFFE9
:10EA7D00FFFFFFFFFFFFFFFFFFFFFFFFFFFFFFFF99
:10EA8D00FFFFBEF7BEF7BEF7BEF7BEF7FFFFFFFFF6
:10EA9D00FFFFFFFFFFFFFFFFFFFFFFFFFFFFFFFF79
:10EAAD00FFFFFFFFFFFFFFFFFFFFBEF7BEF7BEF744
:10EABD00BEF7BEF7FFFFFFFFFFFFFFFFFFFFFFFFEB
:10EACD00FFFFFFFFFFFFFFFFFFFFFFFFFFFFFFFF49
:10EADD00FFFFBEF7DFFFDFFFDFFFFFFFFFFFFFFFE2
:10EAED00DFFFFFFFFFFFFFFFFFFFFFFFFFFFFFFF49
:10EAFD00FFFFFFFFFFFFFFFFFFFFFFFFFFFFFFFF19
:10EB0D00BEF7BEF7BEF7BEF7BEF7FFFFFFFFFFFF75
:10EB1D00FFFFFFFFFFFFFFFFFFFFFFFFFFFFFFFFF8
:10EB2D00FFFFFFFFFFFFFFFFBEF7BEF7BEF7BEF70C
:10EB3D00BEF7FFFFFFFFFFFFFFFFFFFFFFFFFFFF21
:10EB4D00FFFFFFFFFFFFFFFFFFFFFFFFFFFFFFFFC8
:10EB5D00BEF7BEF7DFFFDFFFDFFFFFFFFFFFFFFFAA
:10EB6D00FFFFFFFFFFFFFFFFFFFFFFFFFFFFFFFFA8
:10EB7D00FFFFFFFFFFFFFFFFFFFFFFFFFFFFDFFFB8
:10EB8D00DFFFDFFFDFFFDFFFFFFFFFFFFFFFFFFF08
:10EB9D00FFFFFFFFFFFFFFFFFFFFFFFFFFFFFFFF78
:10EBAD00FFFFFFFFFFFFDFFFDFFFDFFFDFFFDFFF08
:10EBBD00FFFFFFFFFFFFFFFFFFFFFFFFFFFFFFFF58
:10EBCD00FFFFFFFFFFFFFFFFFFFFFFFFFFFFDFFF68
:10EBDD00DFFFDFFFDFFFDFFFFFFFFFFFFFFFFFFFB8
:10EBED00FFFFFFFFFFFFFFFFFFFFFFFFFFFFFFFF28
:10EBFD00FFFFFFFFFFFFFFFFFFFFFFFFDFFFDFFF58
:10EC0D00DFFFDFFFDFFFFFFFFFFFFFFFFFFFFFFF67
:10EC1D00FFFFFFFFFFFFFFFFFFFFFFFFFFFFFFFFF7
:10EC2D00FFFFFFFFDFFFDFFFDFFFDFFFDFFFFFFF87
:10EC3D00FFFFFFFFFFFFFFFFFFFFFFFFFFFFFFFFD7
:10EC4D00FFFFFFFFFFFFFFFFFFFFFFFFDFFFDFFF07
:10EC5D00DFFFDFFFDFFFFFFFFFFFFFFFFFFFFFFF17
:10EC6D00FFFFFFFFFFFFFFFFFFFFFFFFFFFFFFFFA7
:10EC7D00FFFFFFFFFFFFFFFFFFFFDFFFDFFFDFFFF7
:10EC8D00DFFFDFFFFFFFFFFFFFFFFFFFFFFFFFFFC7
:10EC9D00FFFFFFFFFFFFFFFFFFFFFFFFFFFFFFFF77
:10ECAD00FFFFDFFFDFFFDFFFDFFFDFFFFFFFFFFF07
:10ECBD00FFFFFFFFFFFFFFFFFFFFFFFFFFFFFFFF57
:10ECCD00FFFFFFFFFFFFFFFFFFFFDFFFDFFFDFFFA7
:10ECDD00DFFFDFFFFFFFFFFFFFFFFFFFFFFFFFFF77
:10ECED00FFFFFFFFFFFFFFFFFFFFFFFFFFFFFFFF27
:10ECFD00FFFFFFFFFFFFFFFFFFFFFFFFFFFFFFFF17
:10ED0D00FFFFFFFFFFFFFFFFFFFFFFFFFFFFFFFF06
:10ED1D00FFFFFFFFFFFFFFFFFFFFFFFFFFFFFFFFF6
:10ED2D00FFFFFFFFFFFFFFFFFFFFFFFFFFFFFFFFE6
:10ED3D00FFFFFFFFFFFFFFFFFFFFFFFFFFFFFFFFD6
:10ED4D00FFFFFFFFFFFFFFFFFFFFFFFFFFFFFFFFC6
:10ED5D00FFFFFFFFFFFFFFFFFFFFFFFF0000200092
:10ED6D007E0017000C8401000CB201000CE00100C4
:10ED7D000C0E02000C3C02000C6A02000C98020002
:10ED8D000CC602000CF402000C2203000C50030010
:10ED9D000C7E03000CAC03000CDA03000C0804001D
:10EDAD000C3604000C6404000C9204000CC004002A
:10EDBD000CEE04000C1C05000C4A05000C78050037
:10EDCD000CA605000CD405000C0206000C30060044
:10EDDD000C5E06000C8C06000CBA06000CE8060052
:10EDED000C1607000C4407000C7207000CA007005E
:10EDFD000CCE07000CFC07000C2A08000C5808006C
:10EE0D000C8608000CB408000CE208000C10090078
:10EE1D000C3E09000C6C09000C9A09000CC8090085
:10EE2D000CF609000C240A000C520A000C800A0092
:10EE3D000CAE0A000CDC0A000C0A0B000C380B009F
:10EE4D000C660B000C940B000CC20B000CF00B00AD
:10EE5D000C1E0C000C4C0C000C7A0C000CA80C00B9
:10EE6D000CD60C000C040D000C320D000C600D00C6
:10EE7D000C8E0D000CBC0D000CEA0D000C180E00D4
:10EE8D000C460E000C740E000CA20E000CD00E00E1
:10EE9D000CFE0E000C2C0F000C5A0F000C880F00EE
:10EEAD000CB60F000CE40F000C1210000C401000FB
:10EEBD000C6E10000C9C10000CCA10000CF8100009
:10EECD000C2611000C5411000C8211000CB0110015
:10EEDD000CDE11000C0C12000C3A12000C68120022
:10EEED000000000000000000000000000000000015
:10EEFD000000000000000000000000000000000005
:10EF0D0000000000000000000000000000000000F4
:10EF1D0000000000000070007000700070007000B4
:10EF2D0070007000200020000000000070007000D4
:10EF3D0000000000000000000000000000000000C4
:10EF4D000000000000009C039C039C0308010801C5
:10EF5D00080100000000000000000000000000009B
:10EF6D000000000000000000000000000000000094
:10EF7D0098019801980198019801FE07FE079801E4
:10EF8D009801FE07FE0798019801980198019801D4
:10EF9D000000000000000000000000000000600004
:10EFAD006000F003F8030C030C007C00F8018003F3
:10EFBD000C030C03FC01FC0060006000600000000D
:10EFCD0000000000000000000000000000001C0018
:10EFDD002200220022001C03C003F8001E00C601FF
:10EFED00200220022002C0010000000000000000ED
:10EFFD000000000000000000000000000000000004
:10F00D00E003F8031800180030007806FC07CC0365
:10F01D008C01FC07F006000000000000000000005D
:10F02D00000000000000000000000000E000E00013
:10F03D00E000400040004000000000000000000023
:10F04D0000000000000000000000000000000000B3
:10F05D00000000000000000080018001C000C00021
:10F06D00C000600060006000600060006000C000D3
:10F07D00C000C00080018001000000000000000001
:10F08D0000000000000018001800300030003000B3
:10F09D0060006000600060006000600030003000C3
:10F0AD0030001800180000000000000000000000F3
:10F0BD00000000006000600060006C03FC03F000C5
:10F0CD00F000F801980100000000000000000000B1
:10F0DD000000000000000000000000000000000023
:10F0ED000000000000006000600060006000FE078E
:10F0FD00FE0760006000600060000000000000007E
:10F10D0000000000000000000000000000000000F2
:10F11D0000000000000000000000000000000000E2
:10F12D0000000000E00060006000300030001000C2
:10F13D0000000000000000000000000000000000C2
:10F14D0000000000000000000000FE03FE030000B0
:10F15D0000000000000000000000000000000000A2
:10F16D000000000000000000000000000000000092
:10F17D000000000000000000000000000000000082
:10F18D007000700070000000000000000000000022
:10F19D00000000000000000000030003800180015A
:10F1AD008001C000C0006000600030003000180019
:10F1BD00180018000C000C000000000000000000FA
:10F1CD000000000000000000F800FC018C010603A7
:10F1DD000603060306030603060306038C01FC0162
:10F1ED00F80000000000000000000000000000001A
:10F1FD0000000000000060007C007C0060006000EA
:10F20D00600060006000600060006000FC03FC03B3
:10F21D0000000000000000000000000000000000E1
:10F22D0000000000F800FC018E03060300038001BE
:10F23D00C0006000300018000C00FE03FE0300004B
:10F24D0000000000000000000000000000000000B1
:10F25D000000F800FE01860300038003F001F001B9
:10F26D008003000300038303FF01FE000000000084
:10F27D000000000000000000000000000000000081
:10F28D00C001E001E001B001980198018C018601F7
:10F29D00FE03FE038001E003E00300000000000018
:10F2AD000000000000000000000000000000FC0154
:10F2BD00FC010C000C00FC00FC018C03000300039E
:10F2CD0000038603FE01FC000000000000000000AA
:10F2DD00000000000000000000000000E003F80343
:10F2ED003C000C000E00F600FE018E030603060323
:10F2FD008C03FC01F0000000000000000000000085
:10F30D0000000000000000000000FE03FE030603E5
:10F31D000003800180018001C000C000C0006000BA
:10F32D006000600000000000000000000000000010
:10F33D000000000000000000F800FC018E03060331
:10F34D008E03FC01FC018E03060306038E03FC01F4
:10F35D00F8000000000000000000000000000000A8
:10F36D000000000000007800FC018E01060306037A
:10F37D008E03FC03780380038001E001FE003E0054
:10F38D000000000000000000000000000000000070
:10F39D000000000000000000000000007000700080
:10F3AD007000000000000000700070007000000090
:10F3BD000000000000000000000000000000000040
:10F3CD0000000000000000000000C001C001C001ED
:10F3DD00000000000000E000600030003000100070
:10F3ED000000000000000000000000000000000010
:10F3FD000000000000068007E00170001C000F00F7
:10F40D001C007000E00180070006000000000000F5
:10F41D0000000000000000000000000000000000DF
:10F42D00000000000000FF07FF0700000000FF07BD
:10F43D00FF070000000000000000000000000000B9
:10F44D0000000000000000000000000000000000AF
:10F45D0006001E007800E0008003000F8003E0002E
:10F46D0078001E00060000000000000000000000F3
:10F47D00000000000000000000000000F800FC018A
:10F48D008C030C030003C001E000600000000000CD
:10F49D00700070000000000000000000000000007F
:10F4AD000000000000000000E000980008010401C9
:10F4BD000401C401240124012401C4010400080035
:10F4CD000801F00000000000000000000000000036
:10F4DD000000000000000000FC00FC00E000B00196
:10F4ED00B00198011803FC03FC0306060F0F0F0F64
:10F4FD0000000000000000000000000000000000FF
:10F50D00000000000000FE00FE010C030C038C0344
:10F51D00FC01FC030C070C060C06FE07FE010000A7
:10F52D0000000000000000000000000000000000CE
:10F53D0000000000F006F8071C070E060600060086
:10F54D00060006000E061C07F803F001000000007F
:10F55D00000000000000000000000000000000009E
:10F56D000000FF00FF0186030607060606060606D5
:10F57D00060606078603FF01FF00000000000000DD
:10F58D00000000000000000000000000000000006E
:10F59D00FE07FE070C060C06CC00FC00FC00CC00A0
:10F5AD000C060C06FE07FE07000000000000000020
:10F5BD000000000000000000000000000000FE0739
:10F5CD00FE070C060C06CC00FC00FC00CC000C0069
:10F5DD000C007E007E000000000000000000000016
:10F5ED00000000000000000000000000F006FC0715
:10F5FD000C07060606000600C60FC60F06060C060B
:10F60D00FC07F001000000000000000000000000F9
:10F61D00000000000000000000009E079E070C0384
:10F62D000C030C03FC03FC030C030C030C039E07DF
:10F63D009E07000000000000000000000000000018
:10F64D000000000000000000FC03FC0360006000EF
:10F65D00600060006000600060006000FC03FC035F
:10F66D00000000000000000000000000000000008D
:10F67D00000000000000E00FE00F00030003000396
:10F68D0000030603060306038603FE01F8000000CF
:10F69D00000000000000000000000000000000005D
:10F6AD0000000000BE0FBE0F8C03CC006C007C0070
:10F6BD00DC008C018C010C033E0F3E0E000000009F
:10F6CD00000000000000000000000000000000002D
:10F6DD0000007E007E0018001800180018001800A9
:10F6ED00180618061806FE07FE07000000000000A9
:10F6FD0000000000000000000000000000000000FD
:10F70D000F0F0F0F0E079E079606F606F6066606F6
:10F71D00660606069F0F9F0F000000000000000008
:10F72D000000000000000000000000000000CE07F7
:10F73D00DE071C033C033C036C036C03CC03CC03BE
:10F74D008C03BE033E03000000000000000000001B
:10F75D00000000000000000000000000F000F801B3
:10F76D009C030E0706060606060606060E079C03F4
:10F77D00F801F00000000000000000000000000093
:10F78D0000000000000000000000FE01FE030C0759
:10F79D000C060C060C07FC03FC010C000C007E0093
:10F7AD007E000000000000000000000000000000CE
:10F7BD000000000000000000F000F8019C030E079F
:10F7CD0006060606060606060E079C03F801F0005F
:10F7DD00F006F8079803000000000000000000008C
:10F7ED00000000000000FE01FE030C070C060C07D4
:10F7FD00FC03FC018C030C030C073E0E3E0C0000B9
:10F80D0000000000000000000000000000000000EB
:10F81D0000000000F806FC070E0706060E00FC00AF
:10F82D00F003000706060E07FE03F60100000000B8
:10F83D0000000000000000000000000000000000BB
:10F84D000000FE07FE07660666066606600060009D
:10F85D00600060006000F801F80100000000000089
:10F86D00000000000000000000000000000000008B
:10F87D009E079E070C030C030C030C030C030C03D7
:10F88D000C039C03F801F0000000000000000000D4
:10F89D0000000000000000000000000000008F07C5
:10F8AD008F07060306038C018C01D800D800D80001
:10F8BD0070007000700000000000000000000000EB
:10F8CD000000000000000000000000001F0F1F0FCF
:10F8DD00060CE60CE60CE60CB60DB4051C071C0771
:10F8ED001C070C06000000000000000000000000D6
:10F8FD00000000000000000000008F078F070603C6
:10F90D008C01D80070007000D8008C0106038F07A1
:10F91D008F07000000000000000000000000000044
:10F92D0000000000000000009E079E070C039801D8
:10F93D00F000F0006000600060006000F801F80168
:10F94D0000000000000000000000000000000000AA
:10F95D00000000000000FC03FC030C038C01C00040
:10F96D0060006000300018030C03FC03FC03000072
:10F97D00000000000000000000000000000000007A
:10F98D000000E001E00160006000600060006000C8
:10F99D006000600060006000600060006000E001D9
:10F9AD00E0010000000000000000000000000C005D
:10F9BD000C001800180018003000300060006000C6
:10F9CD00C000C00080018001800100030003000021
:10F9DD0000000000000000000000000000007800A2
:10F9ED0078006000600060006000600060006000F2
:10F9FD00600060006000600060007800780000002A
:10FA0D000000000000000000000000002000700059
:10FA1D00D8008C0106030202000000000000000067
:10FA2D0000000000000000000000000000000000C9
:10FA3D0000000000000000000000000000000000B9
:10FA4D0000000000000000000000000000000000A9
:10FA5D00000000000000000000000000FF0FFF0F7D
:10FA6D000000000000000000100060008000000099
:10FA7D000000000000000000000000000000000079
:10FA8D000000000000000000000000000000000069
:10FA9D000000000000000000000000000000F80061
:10FAAD00FC030003F803FC030E038603FE0778072F
:10FABD000000000000000000000000000000000039
:10FACD00000000000700070006000600F600FE0318
:10FADD000E030606060606060E03FF03F7000000DA
:10FAED000000000000000000000000000000000009
:10FAFD0000000000000000000000F006FC070C06EE
:10FB0D000606060006000E06FC07F80100000000C0
:10FB1D0000000000000000000000000000000000D8
:10FB2D000007000700060006F006FC070C07060696
:10FB3D00060606060E07FC0FF00E00000000000082
:10FB4D0000000000000000000000000000000000A8
:10FB5D00000000000000F000FC030C03FE07FE0790
:10FB6D0006000C06FC07F00100000000000000007C
:10FB7D00000000000000000000000000E007F0079A
:10FB8D0030003000FC03FC0330003000300030004A
:10FB9D003000FC03FC03000000000000000000002A
:10FBAD000000000000000000000000000000000048
:10FBBD000000F00EFC0F0C070606060606060C07E5
:10FBCD00FC07F00600060007F803F801000000002E
:10FBDD0000000000000000000E000E000C000C00E4
:10FBED00EC01FC031C030C030C030C030C039E071C
:10FBFD009E07000000000000000000000000000053
:10FC0D0000000000000060006000000000007C00AB
:10FC1D007C0060006000600060006000FC03FC037D
:10FC2D0000000000000000000000000000000000C7
:10FC3D00000000006000600000000000FC01FC01FD
:10FC4D00800180018001800180018001800180019F
:10FC5D00C001FE007E00000000000000000000005A
:10FC6D0000000E000E000C000C00EC03EC036C0009
:10FC7D003C003C006C00CC00CE07CE07000000001D
:10FC8D000000000000000000000000000000000067
:10FC9D007C007C006000600060006000600060001F
:10FCAD00600060006000FC03FC0300000000000029
:10FCBD000000000000000000000000000000000037
:10FCCD00000000000000BF03FF076606660666061B
:10FCDD0066066606EF0EEF0E000000000000000045
:10FCED000000000000000000000000000000000007
:10FCFD0000000000EE00FE031C030C030C030C03BC
:10FD0D000C039E079E07000000000000000000008D
:10FD1D0000000000000000000000000000000000D6
:10FD2D000000F000FC030C030606060606060C0395
:10FD3D00FC03F000000000000000000000000000C7
:10FD4D0000000000000000000000000000000000A6
:10FD5D00F700FF030E030606060606060E03FE0356
:10FD6D00F600060006001F001F0000000000000046
:10FD7D000000000000000000000000000000F00E78
:10FD8D00FC0F0C070606060606060C07FC07F00618
:10FD9D0000060006800F800F00000000000000002C
:10FDAD000000000000000000000000009E03DE07C0
:10FDBD0078063800180018001800FE01FE0100003A
:10FDCD000000000000000000000000000000000026
:10FDDD0000000000000000000000F003FC030C0315
:10FDED003C00F801C0030C03FC03FC000000000004
:10FDFD0000000000000000000000000000000000F6
:10FE0D000000180018001800FE03FE03180018006B
:10FE1D00180018001806F807F00100000000000097
:10FE2D0000000000000000000000000000000000C5
:10FE3D000000000000008E038E030C030C030C0366
:10FE4D000C038C03FC077807000000000000000085
:10FE5D000000000000000000000000000000000095
:10FE6D00000000008F078F0706038C018C01D8005E
:10FE7D00D8007000700000000000000000000000BD
:10FE8D000000000000000000000000000000000065
:10FE9D0000008F078F0726032603F603DC01DC0124
:10FEAD008C018C010000000000000000000000002B
:10FEBD000000000000000000000000000000000035
:10FECD009E079E079801F0006000F00098019E07C4
:10FEDD009E07000000000000000000000000000070
:10FEED0000000000000000000000000000008F076F
:10FEFD008F0706038C018C01D800F80070003000CC
:10FF0D00300018007F007F0000000000000000009E
:10FF1D00000000000000000000000000FC03FC03D6
:10FF2D008C01C000600030001803FC03FC030000CE
:10FF3D0000000000000000000000000000000000B4
:10FF4D000000C001E0016000600060006000600022
:10FF5D007000380070006000600060006000E0011B
:10FF6D00C0010000000000000000000000000000C3
:10FF7D006000600060006000600060006000600074
:10FF8D006000600060006000600060006000600064
:10FF9D0000000000000000000000000000001C0038
:10FFAD003C00300030003000300030007000E000C8
:10FFBD00700030003000300030003C001C000000AC
:10FFCD000000000000000000000000000000000024
:10FFDD0000000000000038007E06E607C0030000A8
:10FFED000000000000000000000000000000000004
:03FFFD0000000001
:020000040020DA
:08000000FFFFFFFFFFFFFFFF00
:020000040030CA
:0E000000FF391F3CFF3F81FF0FC00FE00F4094
:00000001FF
