:0400000029EF19F0DB
:10312500EF0088C69A1200016E01C063F01200011B
:103135006E01C0C9FFC7A0FED7C9CF01F0120002BA
:103145006E8C908C9402509AEC18F08C80120002D0
:103155006E8C908C8402509AEC18F08C801200933F
:1031650092949E9380929AC00EC76E200EC66E12E0
:1031750000036E000E026E3A0E036005D02F0E039B
:103185006402D0010E026E02C001F0013012008C03
:10319500808C92000E026E320E016E13EC19F08CCB
:1031A50082000E026E960E016E13EC19F0120001EC
:1031B500C060F002C061F0000160516111D8A40047
:1031C5000E626F03C05EF0FEEC18F00001646F1232
:1031D5000001500302F3CF05F0F4CF06F0015004CF
:1031E50002F350062602500302F350062605C001DD
:1031F500F006C002F0120060C05BF061C05CF062D6
:10320500C05DF0060E5B26000E5C22000E5D225BA3
:10321500C0F6FF5CC0F7FF5DC0F8FF0800F550126F
:1032250000000E056E000E046E0AD0100E036E949B
:103235000EE82EFED7032EFCD700D0044A052A013E
:1032450050045C02500558D8B01200EFD700016455
:103255006B636B626B616B606B5F6A5E6A5D6A5C18
:103265006A5B6A250EF66E310EF76E000EF86E0972
:1032750000F5CF65F00900F5CF66F00900F5CF67D9
:10328500F0000EF86E0001B5EF23F00A500B10D8D0
:10329500B418D0010E0C6E04D0D8900A360B360C3B
:1032A5002A0BAEFAD70A50085C0B500958D8A0046F
:1032B500D00A50085E0B50095AD8900B320A320CCE
:1032C5002EF1D708C008F009C009F012008C908CC7
:1032D500942A0E9AEC18F08C8403509AEC18F0029C
:1032E500509AEC18F005509AEC18F004509AEC1826
:1032F500F08C942B0E9AEC18F08C8407509AEC18ED
:10330500F006509AEC18F009509AEC18F008509A0B
:10331500EC18F08C942C0E9AEC18F08C80120000AE
:103325000E066E000E056E03500410D8B41CD001B5
:103335000E076E04D0D89003360436072A04AEFA79
:10334500D7D890053606360350015C04500258D88C
:10335500A005D00350015E0450025A0580D89004A0
:10336500320332072EEDD705C001F006C002F01278
:103375000024D01DC00AF01EC00BF01FC00CF020A9
:10338500C00DF021C00EF022C00FF023C010F024B4
:10339500C011F01BC0D9FF1CC0DAFFDF5031EC2291
:1033A500F05E505FC025F0266A2526000E262225F0
:1033B500501D2626501E221B4A1C2A1BC0D9FF1C45
:1033C500C0DAFFDF50D8B41200D4D725D01DC00A0B
:1033D500F01EC00BF01FC00CF020C00DF021C00E78
:1033E500F022C00FF023C010F024C011F01BC0F66E
:1033F500FF1CC0F7FF0800F55031EC22F05E505F6E
:10340500C025F0266A2526000E262225501D2626D3
:10341500501E221B4A1C2A1BC0F6FF1CC0F7FF08C2
:1034250000F5500009D8B41200D1D71350186E1208
:10343500C019F00AC002F00BC003F00EC004F00F73
:10344500C005F00CC006F00DC007F010C008F01163
:10345500C009F069EC19F08C908C840CC014F00D47
:10346500C015F015D00AC016F00BC017F008D0181B
:10347500509AEC18F019509AEC18F0164A172A16BB
:10348500500E5C17500F58D8B0F2D7144A152A14AD
:1034950050105C15501158D8B0E5D78C8012000B30
:1034A500500C6E0AC00DF026D0000E036E000E0201
:1034B5006E000E056EEF0E046E000E076E000E0612
:1034C5006E010E096E3F0E086E69EC19F01BD000F7
:1034D5000E036E000E026E010E056E3F0E046E00A9
:1034E5000E076E000E066E000E096EEF0E086E6971
:1034F500EC19F008D000016751880AD8B4D5D76017
:103505000AD8B4E5D78C908C84000E0F6E000E0E91
:103515006E400E0E5C010E0F58D8B016D0000E117D
:103525006E000E106E11500DE1F00E105CD8B00952
:10353500D00C509AEC18F00D509AEC18F0104A1176
:103545002AF1D70E4A0F2AE4D78C80120035C01510
:10355500F036C016F037C017F038C018F039C0196A
:10356500F03AC01AF037C01BF038C01CF03DC01D42
:10357500F03EC01EF0C0EC1BF035C015F036C0168D
:10358500F03BC017F03CC018F039C019F03AC01A2A
:10359500F03BC01BF03CC01CF03DC01DF03EC01E02
:1035A500F0C0EC1BF035C015F036C016F037C0176B
:1035B500F038C018F035C019F036C01AF03BC01B02
:1035C500F03CC01CF03DC01DF03EC01EF0C0EC1B21
:1035D500F039C015F03AC016F037C017F038C018EA
:1035E500F039C019F03AC01AF03BC01BF03CC01CC2
:1035F500F03DC01DF03EC01EF0C0EC1BF012000DEA
:10360500D0010E07D0090E05D0190E03D0310E01D9
:10361500D0510E146E15D0790EFCD7000163510000
:103625000AD8B4EED7010AD8B4EDD7030AD8B4EC5A
:10363500D7010AD8B4EBD7070AD8B4EAD7010AEB01
:10364500D700016351106E116A101E111E104A1128
:103655002A0A501024026E0B501120036E000163DC
:10366500510A24046E000E0B20056E0001635112F1
:103675006E136A121E131E124A132A0C50122406C8
:103685006E0D501320076E000163510C24086E0067
:103695000E0D20096E69EC19F08C908C8407D00F03
:1036A500509AEC18F00E509AEC18F014061450D8F5
:1036B500A4F6D78C8012000CC002F00DC003F010E8
:1036C500500C24126E000E0D20136EFF0E122404F2
:1036D5006EFF0E1320056E0EC006F00FC007F01129
:1036E500500E24146E000E0F20156EFF0E142408C4
:1036F5006EFF0E1520096E69EC19F08C908C840014
:103705000E176E000E166E2ED0000E196E000E18D6
:103715006E1ED00AC0F6FF0BC0F7FF0900F5CF12E9
:10372500F00900F5CF13F013C012F0136A12509A86
:10373500EC18F00AC0F6FF0BC0F7FF0800F5509A29
:10374500EC18F0020E0A26000E0B22184A192A1050
:1037550050126E136A1250185C13501958D8A0D91C
:10376500D7164A172A1150126E136A1250165C1397
:10377500501758D8A0C9D78C80120015C01FF01655
:10378500C020F01F1E201E1F4A202A19501F243159
:103795006E1A502020326E17C01FF018C020F01F7F
:1037A5001E201E1F4A202A1B501F24336E1C50202A
:1037B50020346E000E266E000E256E000E286E005B
:1037C5000E276E000E2C6E000E2B6E000E2A6E005C
:1037D5000E296E32AE03D0256826680BD032BE099D
:1037E500D0325003E13104D8A004D0000E266E017A
:1037F5000E256E34AE03D0276828680BD034BE0979
:10380500D0345003E13304D8A004D0000E286E0153
:103815000E276E32AE03D02B682C680BD032BE0952
:10382500D0325003E13104D8A004D0000E2C6E0133
:103835000E2B6E32AE0DD031C001F032C002F0FF5A
:103845000E046E0368EBEC18F001C031F002C032D3
:10385500F034AE0DD033C001F034C002F0FF0E04D9
:103865006E0368EBEC18F001C033F002C034F031A0
:10387500C02FF032C030F033C02DF034C02EF02F01
:10388500502D5C2E50800A1F6E3050800A1F58D86C
:10389500A01CD033C02FF034C030F031C02DF03231
:1038A500C02EF034AE03D029682A680BD034BE0987
:1038B500D0345003E13304D8A004D0000E2A6E01A1
:1038C5000E296E000E2C6E000E2B6E303430301F1C
:1038D5006E2F30236E1FC024F0000E226E000E21C5
:1038E5006E32D015C00AF016C00BF017C00CF018D8
:1038F500C00DF01DC00EF01EC00FF002EC1BF02D28
:103905005023262E5024222F50235C2450800A1F3A
:103915006E3050800A1F58D8A00CD02F50235E302F
:1039250050245A255015262650162227501726288A
:103935005007D02B5015262C501622295017262A11
:10394500501822214A222A21502F5C3050800A1F0C
:103955006E2250800A1F58D8A01200C3D7959095A3
:103965009495928C808C948C92CAEC18F0CB0EA214
:10397500EC18F0390EAAEC18F02C0EAAEC18F00091
:103985000EAAEC18F0340EAAEC18F0020EAAEC18E8
:10399500F0CF0EA2EC18F0000EAAEC18F0C10EAA9A
:1039A500EC18F0300EAAEC18F0E80EA2EC18F08531
:1039B5000EAAEC18F0000EAAEC18F0780EAAEC1876
:1039C500F0EA0EA2EC18F0000EAAEC18F0000EAA10
:1039D500EC18F0ED0EA2EC18F0640EAAEC18F0034A
:1039E5000EAAEC18F0120EAAEC18F0810EAAEC182B
:1039F500F0F70EA2EC18F0200EAAEC18F0C00EA2FB
:103A0500EC18F0230EAAEC18F0C10EA2EC18F01079
:103A15000EAAEC18F0C50EA2EC18F03E0EAAEC1892
:103A2500F0280EAAEC18F0C70EA2EC18F0860EAA24
:103A3500EC18F0360EA2EC18F0880EAAEC18F03A45
:103A45000EA2EC18F0550EAAEC18F0B10EA2EC1867
:103A5500F0000EAAEC18F0180EAAEC18F0B60EA29B
:103A6500EC18F0080EAAEC18F0820EAAEC18F02754
:103A75000EAAEC18F0F20EA2EC18F0000EAAEC1843
:103A8500F0260EA2EC18F0010EAAEC18F0E00EA23A
:103A9500EC18F00F0EAAEC18F0310EAAEC18F02B6A
:103AA5000EAAEC18F00C0EAAEC18F00E0EAAEC18E3
:103AB500F0080EAAEC18F04E0EAAEC18F0F10EAABA
:103AC500EC18F0370EAAEC18F0070EAAEC18F01057
:103AD5000EAAEC18F0030EAAEC18F00E0EAAEC18BC
:103AE500F0090EAAEC18F0000EAAEC18F0E10EA2EF
:103AF500EC18F0000EAAEC18F00E0EAAEC18F01453
:103B05000EAAEC18F0030EAAEC18F0110EAAEC1888
:103B1500F0070EAAEC18F0310EAAEC18F0C10EAAA7
:103B2500EC18F0480EAAEC18F0080EAAEC18F00FE5
:103B35000EAAEC18F00C0EAAEC18F0310EAAEC182F
:103B4500F0360EAAEC18F00F0EAAEC18F0110EA222
:103B5500EC18F0000E026E960E016E13EC19F029AA
:103B65000EA2EC18F0FF0E0B6E0A6852EC1AF0125A
:103B7500003D503524156E3E503620166E37C01761
:103B8500F038C018F03DC041F03EC042F0411E4241
:103B95001E414A422A39504124196E3A5042201A90
:103BA5006E37C01BF038C01CF03FC01DF040C01E72
:103BB500F0C0EC1BF03D503524156E3E50362016F6
:103BC5006E3BC017F03CC018F03DC041F03EC0420E
:103BD500F0411E421E414A422A39504124196E3A8B
:103BE5005042201A6E3BC01BF03CC01CF03FC01D6C
:103BF500F040C01EF0C0EC1BF035C015F036C01605
:103C0500F03D503724176E3E503820186E35C019D8
:103C1500F036C01AF03DC041F03EC042F0411E42B0
:103C25001E414A422A3B5041241B6E3C5042201CF7
:103C35006E3FC01DF040C01EF0C0EC1BF039C01532
:103C4500F03AC016F03D503724176E3E5038201814
:103C55006E39C019F03AC01AF03DC041F03EC0427D
:103C6500F0411E421E414A422A3B5041241B6E3CF4
:103C75005042201C6E3FC01DF040C01EF0C0EC1B22
:103C8500F03D503524156E3E503620166E3D5037AA
:103C950024176E3E503820186E000E1A6E030E194A
:103CA5006E3DC01BF03EC01CF03FC01DF040C01E65
:103CB500F0FFEC20F03DC041F03EC042F0411E4215
:103CC5001E414A422A39504124156E3A5042201667
:103CD5006E3D503724176E3E503820186E000E1A70
:103CE5006E040E196E3DC01BF03EC01CF03FC01D9A
:103CF500F040C01EF0FFEC20F03D503524156E3E1F
:103D0500503620166E3DC041F03EC042F0411E4285
:103D15001E414A422A3B504124176E3C504220180E
:103D25006E000E1A6E020E196E3DC01BF03EC01CD1
:103D3500F03FC01DF040C01EF0FFEC20F03DC0413B
:103D4500F03EC042F0411E421E414A422A395041CE
:103D550024156E3A504220166E3DC043F03EC044D5
:103D6500F0431E441E434A442A3B504324176E3CED
:103D7500504420186E000E1A6E010E196E3DC01BC0
:103D8500F03EC01CF03FC01DF040C01EF0FFEC200F
:103D9500F0120019C023F01AC024F0000E266E00A0
:103DA5000E256E23C01DF024C01EF01D1E1E1E1DF7
:103DB5004A1E2A010E1D24216E000E1E20226EF7BA
:103DC500D0155023240A6E165024200B6E1750254B
:103DD500240C6E185026200D6E1BC00EF01CC00F53
:103DE500F002EC1BF0155025240A6E165026200B08
:103DF5006E175023240C6E185024200D6E1BC00E18
:103E0500F01CC00FF002EC1BF023C01DF024C01EF7
:103E1500F01D1E1E1E1D4A1E2A15501D240A6E1653
:103E2500501E200B6E175025240C6E185026200DA1
:103E35006E1BC00EF01CC00FF002EC1BF025C01D60
:103E4500F026C01EF01D1E1E1E1D4A1E2A15501DE1
:103E5500240A6E16501E200B6E175023240C6E1864
:103E65005024200D6E1BC00EF01CC00FF002EC1B81
:103E7500F023C01DF024C01EF01D1E1E1E1D4A1E6F
:103E85002A15501D240A6E16501E200B6E25C01FC4
:103E9500F026C020F01F1E201E1F4A202A17501F83
:103EA500240C6E185020200D6E1BC00EF01CC00F88
:103EB500F002EC1BF025C01DF026C01EF01D1E1ED5
:103EC5001E1D4A1E2A15501D240A6E16501E200B53
:103ED5006E23C01FF024C020F01F1E201E1F4A2085
:103EE5002A17501F240C6E185020200D6E1BC00E73
:103EF500F01CC00FF002EC1BF0155023240A6E16BF
:103F05005024200B6E25C01DF026C01EF01D1E1E60
:103F15001E1D4A1E2A17501D240C6E18501E200DFA
:103F25006E1BC00EF01CC00FF002EC1BF0155025E7
:103F3500240A6E165026200B6E23C01DF024C01EC9
:103F4500F01D1E1E1E1D4A1E2A17501D240C6E181C
:103F5500501E200D6E1BC00EF01CC00FF002EC1B96
:103F6500F0254A262A22AE09D025C01DF026C01EFE
:103F7500F0D8901D361E36010E13D02306D8A02486
:103F85000623C01DF024C01EF01D1E1E1E1D4A1E48
:103F95002A25501D2626501E22D8901D361E360273
:103FA5000E1D26000E1E221D5021261E50222225E2
:103FB50050235C2450800A1D6E2650800A1D58D857
:103FC500A01200FED6110E176E000E186E02D12536
:103FD5000E1F18D8B409D00DC0D9FF0EC0DAFF1FC7
:103FE500C0DFFF0D4A0E2AF5D0000E1E6E000E1D15
:103FF5006E000E1A6E0FC0F6FF10C0F7FF0800F531
:1040050050BBEC18F0D8A032D0000E1E6E000E1D6D
:104015006E1DC001F01EC002F0000E046E0A0E03F4
:104025006EEBEC18F001C01DF002C01EF0D00E13AF
:104035006EFF0E146E0FC0F6FF10C0F7FF0800F5F7
:1040450050156E166A135015261450162215501D5C
:104055002616501E220F4A102A0FC0F6FF10C0F771
:10406500FF0800F550BBEC18F0D8B0D2D70FC0F65A
:10407500FF10C0F7FF0F4A102A0800F5CF1FF01FE9
:1040850050000AD8B4B2D0640AD8B403D00D0AD807
:10409500A4A0D017C0D9FF18C0DAFFDECF1BF0DD12
:1040A500CF1CF0020E1726000E18221CAE06D003F8
:1040B5000E1A121B6C1C1ED8B01C2A010E1F6E0591
:1040C5000E1F18D8B412D01F50020D210EF324F67E
:1040D5006E4D0EF420F76E0900F5501B5C0900F5D6
:1040E500501C58D8A002D01F2AEAD71D501E10D840
:1040F500B409D01AC013F0030E1316D8B403D01D9B
:1041050006D8A01E06800E1FBE7F0E136E1D501F03
:104115005C1E50800A1358D8B007D01F501D5E0092
:104125000E1FBEFF0E1E5A04D0000E1E6E000E1D81
:104135006E1D501E10D8B40FD00DC0D9FF0EC0DAB9
:10414500FF200EDF6E0D4A0E2A1D06D8A01E061D85
:10415500501E10D8A4F1D71AC013F0030E1316D8A9
:10416500B408D00DC0D9FF0EC0DAFF2D0EDF6E0DDD
:104175004A0E2A1FC019F029D01950020D210EF33D
:1041850024F66E4D0EF420F76E0900F5CF03F00A04
:1041950000F5CF04F01BC001F01CC002F092EC1931
:1041A500F001C008F002C009F0000E0B6E0A0E0AFD
:1041B5006E48EC19F00850300F1F6E0DC0D9FF0E78
:1041C500C0DAFF1FC0DFFF0D4A0E2A19061928D8CD
:1041D500A4D3D70FC0F6FF10C0F7FF0F4A102A0867
:1041E50000F5CF1FF01F50D8A4F2D60DC0D9FF0E91
:1041F500C0DAFF000EDF6E12001BC025F01CC026C2
:10420500F0000E286E000E276E25C01FF026C02078
:10421500F01F1E201E1F4A202A010E1F24236E0098
:104225000E2020246E10D1155025240A6E16502616
:10423500200B6E175027240C6E185028200D6E1D6C
:10424500C00EF01EC00FF002EC1BF0155027240A1B
:104255006E165028200B6E175025240C6E1850260C
:10426500200D6E1DC00EF01EC00FF002EC1BF0C439
:10427500D025C01FF026C020F01F1E201E1F4A207B
:104285002A15501F240A6E165020200B6E17502732
:10429500240C6E185028200D6E1DC00EF01EC00F88
:1042A500F002EC1BF027C01FF028C020F01F1E20D5
:1042B5001E1F4A202A15501F240A6E165020200B57
:1042C5006E175025240C6E185026200D6E1DC00E3D
:1042D500F01EC00FF002EC1BF08FD025C01FF0269A
:1042E500C020F01F1E201E1F4A202A15501F240A19
:1042F5006E165020200B6E27C021F028C022F02119
:104305001E221E214A222A175021240C6E185022E3
:10431500200D6E1DC00EF01EC00FF002EC1BF02725
:10432500C01FF028C020F01F1E201E1F4A202A157E
:10433500501F240A6E165020200B6E25C021F02632
:10434500C022F0211E221E214A222A175021240CA8
:104355006E185022200D6E1DC00EF01EC00FF0020B
:10436500EC1BF04AD0155025240A6E165026200B5A
:104375006E27C01FF028C020F01F1E201E1F4A20D8
:104385002A17501F240C6E185020200D6E1DC00ECC
:10439500F01EC00FF002EC1BF0155027240A6E1614
:1043A5005028200B6E25C01FF026C020F01F1E20B0
:1043B5001E1F4A202A17501F240C6E185020200D4E
:1043C5006E1DC00EF01EC00FF002EC1BF015D019CB
:1043D500C01FF01AC020F02050000AD8A40DD01F2D
:1043E50050010AD8B420D7030AD8B442D7010AD855
:1043F500B474D7070AD8B4B6D7274A282A24AE09F1
:10440500D027C01FF028C020F0D8901F36203601D5
:104415000E13D02506D8A0260625C01FF026C020DD
:10442500F01F1E201E1F4A202A27501F2628502015
:1044350022D8901F362036020E1F26000E20221F7E
:10444500502326205024222750255C2650800A1F01
:104455006E2850800A1F58D8A01200B9D7156EE0F3
:104465000E1524186E196AFF0E192218C012F019BC
:10447500C013F0D89012361336D890123613361270
:10448500C018F013C019F0080E1824186E000E1984
:1044950020196E60C05BF061C05CF062C05DF01811
:1044A500C0E8FF5B2619C0E8FF5C22000E5D225BB9
:1044B500C0F6FF5CC0F7FF5DC0F8FF0800F5CF5FF1
:1044C500F0020E5B26000E5C22000E5D225BC0F63C
:1044D500FF5CC0F7FF5DC0F8FF0800F550186E19C6
:1044E5006A010E5B5E000E5C5A000E5D5A5BC0F6FB
:1044F500FF5CC0F7FF5DC0F8FF0800F5CF12F018AC
:1045050050136E1250186E13C019F060C05BF06145
:10451500C05CF062C05DF018C0E8FF5B2619C0E81A
:10452500FF5C22000E5D2264C016F00AC002F00B8B
:10453500C003F05E505FC012F0136A1226000E131E
:10454500220A5012260B501322FF0E1224046EFF6E
:104555000E1320056E0CC006F00DC007F0000164B7
:10456500510C24086E000E0D20096E69EC19F08CB3
:10457500908C84F3D05FC01AF0DED01A50D8B4CE38
:10458500D05BC0F6FF5CC0F7FF5DC0F8FF0800F523
:10459500A007D00F509AEC18F00E509AEC18F006C0
:1045A500D011509AEC18F010509AEC18F01A061A1F
:1045B50050D8B4B4D05BC0F6FF5CC0F7FF5DC0F85F
:1045C500FF0800F5A207D00F509AEC18F00E509A8C
:1045D500EC18F006D011509AEC18F010509AEC181F
:1045E500F01A061A50D8B49AD05BC0F6FF5CC0F733
:1045F500FF5DC0F8FF0800F5A407D00F509AEC182E
:10460500F00E509AEC18F006D011509AEC18F010F4
:10461500509AEC18F01A061A50D8B480D05BC0F640
:10462500FF5CC0F7FF5DC0F8FF0800F5A607D00FD7
:10463500509AEC18F00E509AEC18F006D011509ADA
:10464500EC18F010509AEC18F01A061A50D8B46607
:10465500D05BC0F6FF5CC0F7FF5DC0F8FF0800F552
:10466500A807D00F509AEC18F00E509AEC18F006E7
:10467500D011509AEC18F010509AEC18F01A061A4E
:1046850050D8B44CD05BC0F6FF5CC0F7FF5DC0F8F6
:10469500FF0800F5AA07D00F509AEC18F00E509AB3
:1046A500EC18F006D011509AEC18F010509AEC184E
:1046B500F01A061A50D8B432D05BC0F6FF5CC0F7CA
:1046C500FF5DC0F8FF0800F5AC07D00F509AEC1855
:1046D500F00E509AEC18F006D011509AEC18F01024
:1046E500509AEC18F01A061A50D8B418D05BC0F6D8
:1046F500FF5CC0F7FF5DC0F8FF0800F5AE07D00FFF
:10470500509AEC18F00E509AEC18F006D011509A09
:10471500EC18F010509AEC18F01A0607D0010E5B51
:1047250026000E5C22000E5D2209D0010E5B2600DC
:104735000E5C22000E5D221A50D8A41FD7000E175A
:104745006E07D011509AEC18F010509AEC18F0172B
:104755002A5E50175CD8A0F5D716061650D8A40ABD
:10476500D78C8012000F0EC16E000E806E000E8178
:104775006E000E826E000E836E000E846E000E9229
:104785006E000E936E000E946E000E956E000E96E2
:104795006E94EC18F0B2EC18F0B1EC1CF0010E962A
:1047A500EC18F0000E366E050E356E000E386E7381
:1047B5000E376E000E3A6EEA0E396E010E3C6E3AF9
:1047C5000E3B6E000E3E6E0A0E3D6E000E406E00F4
:1047D5000E3F6EBBEC1DF02B0E016E6D0E026E01D1
:1047E5000E036EDAEC18F0EB0E1B6E7F0E1C6E00DE
:1047F5000E1E6E140E1D6E000E206E0A0E1F6E002C
:104805000E226E000E216EFF0E246E2368E8EC1951
:10481500F0C10E1B6E7F0E1C6E000E1E6E140E1D5B
:104825006E000E206E220E1F6E000E226E000E21EF
:104835006EFF0E246E2368E8EC19F0D00E1B6E7F18
:104845000E1C6E000E1E6E140E1D6E000E206E3AAE
:104855000E1F6E000E226E000E216EFF0E246E23BB
:1048650068E8EC19F0F70E1B6E7F0E1C6E000E1E2D
:104875006E140E1D6E000E206E520E1F6E000E225F
:104885006E000E216EFF0E246E2368E8EC19F0030E
:104895000E026EE80E016E13EC19F0000E0B6E00A1
:1048A5000E0A6E000E0D6E0A0E0C6E000E0F6E00D7
:1048B5000E0E6EFF0E116E10683E0E31EC22F0EBFF
:1048C5000E1B6E7F0E1C6E000E1E6E140E1D6E00EE
:1048D5000E206E0A0E1F6EFF0E226E2168000E243A
:1048E5006E000E236EE8EC19F0030E026E200E0129
:1048F5006E13EC19F0000E0B6E000E0A6E000E0D15
:104905006E0A0E0C6EFF0E0F6E0E68FF0E116E1006
:10491500683E0E31EC22F0EB0E1B6E7F0E1C6E0016
:104925000E1E6E140E1D6E000E206E0A0E1F6E00FA
:104935000E226E000E216EFF0E246E2368E8EC1920
:10494500F0000E0B6E000E0A6E000E0D6E220E0CA0
:104955006E000E0F6E000E0E6EFF0E116E10683E8D
:104965000E31EC22F0C10E1B6E7F0E1C6E000E1E6A
:104975006E140E1D6E000E206E220E1F6EFF0E228F
:104985006E2168000E246E000E236EE8EC19F0030C
:104995000E026E200E016E13EC19F0000E0B6E0068
:1049A5000E0A6E000E0D6E220E0C6EFF0E0F6E0EB1
:1049B50068FF0E116E10683E0E31EC22F0C10E1B21
:1049C5006E7F0E1C6E000E1E6E140E1D6E000E20E8
:1049D5006E220E1F6E000E226E000E216EFF0E243B
:1049E5006E2368E8EC19F0000E0B6E000E0A6E00DF
:1049F5000E0D6E3A0E0C6E000E0F6E000E0E6EFF53
:104A05000E116E10683E0E31EC22F0D00E1B6E7F3B
:104A15000E1C6E000E1E6E140E1D6E000E206E3ADC
:104A25000E1F6EFF0E226E2168000E246E000E23EF
:104A35006EE8EC19F0030E026E200E016E13EC19F0
:104A4500F0000E0B6E000E0A6E000E0D6E3A0E0C87
:104A55006EFF0E0F6E0E68FF0E116E10683E0E3162
:104A6500EC22F0D00E1B6E7F0E1C6E000E1E6E1417
:104A75000E1D6E000E206E3A0E1F6E000E226E0089
:104A85000E216EFF0E246E2368E8EC19F0000E0B64
:104A95006E000E0A6E000E0D6E520E0C6E000E0F9D
:104AA5006E000E0E6EFF0E116E10683E0E31EC227A
:104AB500F0F70E1B6E7F0E1C6E000E1E6E140E1D83
:104AC5006E000E206E520E1F6EFF0E226E216800C4
:104AD5000E246E000E236EE8EC19F0030E026E2014
:104AE5000E016E13EC19F0000E5A6E1F0E596E5A18
:104AF500BE33D05A5004E1020E595CD8A02DD045E2
:104B05000E0D6E000E0E6EDF0E0F6E7F0E106E59BF
:104B1500C011F05AC012F0E5EC1FF0450E1B6E00F7
:104B25000E1C6E000E1E6E140E1D6E000E206E52B3
:104B35000E1F6EFF0E226E2168000E246E000E23DE
:104B45006EBBEC19F0000E026EC80E016E13EC1967
:104B5500F05906D8A05A06CBD7000E0B6E210E0AC7
:104B65006E000E0D6E960E0C6E000E0F6E3F0E0E45
:104B75006E000E116EB40E106E800E136E000E12C6
:104B85006E18EC1AF0000E0B6E670E0A6E000E0D15
:104B95006E960E0C6E000E0F6E850E0E6E000E11CB
:104BA5006EB40E106E040E136E000E126E18EC1A13
:104BB500F0000E0B6EAD0E0A6E000E0D6E960E0C0D
:104BC5006E000E0F6ECB0E0E6E000E116EB40E1033
:104BD5006E000E136E100E126E18EC1AF0000E1603
:104BE5006E300E156E000E186EA50E176E000E1A9D
:104BF5006E1A0E196E000E1C6E000E1B6ECCEC1E8E
:104C0500F0000E366E5D0E356E000E386E8C0E376A
:104C15006E000E3A6E8F0E396E000E3C6EBE0E3B68
:104C25006E000E3E6E0A0E3D6E000E406E000E3F8B
:104C35006EBBEC1DF0000E366EA30E356E000E3801
:104C45006E8C0E376E000E3A6ED50E396E000E3C28
:104C55006EBE0E3B6E000E3E6E000E3D6EA9EC1A4A
:104C6500F02B0E0A6E4D0E0B6E000E0D6E140E0C13
:104C75006E000E0F6EDC0E0E6E400E106E400E11A5
:104C85006E5EEC1BF0030E96EC18F0000E366E5DB2
:104C95000E356E000E386ED20E376E000E3A6ED59A
:104CA5000E396E010E3C6E2C0E3B6E000E3E6E0AEA
:104CB5000E3D6E000E406E000E3F6EBBEC1DF0000B
:104CC5000E96EC18F0000E166E5D0E156E000E18A1
:104CD5006E1768000E1A6ED50E196E000E1C6E1B2F
:104CE50068000E1E6E000E1D6EC0EC1BF0000E1649
:104CF5006E990E156E000E186ED20E176E000E1AF6
:104D05006E990E196E010E1C6E2C0E1B6E000E1E7A
:104D15006E000E1D6EC0EC1BF0FFD70001000A00EF
:104D25006400E8031027FFFFFFFFFFFFFFFFFFFF02
:104D3500FFFFFFFFFFFFFFFFFFFFFFFFFFFFFFFF7E
:104D4500FFFFFFFFFFFFFFFFFFFFFFFFFFFFFFFF6E
:104D5500FFFFFFFFFFFFFFFFFFFFFFFFFFFFFFFF5E
:104D6500FFFFFFFFFFFFFFFFFFFFFFFFFFFFFFFF4E
:104D7500FFFFFFFFFFFFFFFFFFFFFFFFFFFFFFFF3E
:104D8500FFFFFFFFFFFFFFFFFFFFFFFFFFFFFFFF2E
:104D9500FFFFFFFFFFFFFFFFFFFFFFFFFFFFFFFF1E
:104DA500FFFFFFFFFFFFFFFFFFFFFFFFFFFFFFFF0E
:104DB500FFFFFFFFFFFFFFFFFFFFFFFFFFFFFFFFFE
:104DC500FFFFFFFFFFFFFFFFFFFFFFFFFFFFFFFFEE
:104DD500FFFFFFFFFFFFFFFFFFFFFFFFFFFFFFFFDE
:104DE500FFFFFFFFFFFFFFFFFFFFFFFFFFFFFFFFCE
:104DF500FFFFFFFFFFFFFFFFFFFFFFFFFFFFFFFFBE
:104E0500FFFFFFFFFFFFFFFFFFFFFFFFFFFFFFFFAD
:104E1500FFFFFFFFFFFFFFFFFFFFFFFFFFFFFFFF9D
:104E2500FFFFFFFFFFFFFFFFFFFFFFFFFFFFFFFF8D
:104E3500FFFFFFFFFFFFFFFFFFFFFFFFFFFFFFFF7D
:104E4500FFFFFFFFDFFFDFFFDFFFDFFFDFFFFFFF0D
:104E5500FFFFFFFFFFFFFFFFFFFFFFFFFFFFFFFF5D
:104E6500FFFFFFFFFFFFFFFFFFFFFFFFDFFFDFFF8D
:104E7500DFFFDFFFDFFFFFFFFFFFFFFFFFFFFFFF9D
:104E8500FFFFFFFFFFFFFFFFFFFFFFFFFFFFFFFF2D
:104E9500FFFFFFFFDFFFDFFFDFFFDFFFDFFFFFFFBD
:104EA500FFFFFFFFFFFFFFFFFFFFFFFFFFFFFFFF0D
:104EB500FFFFFFFFFFFFFFFFFFFFFFFFFFFFFFFFFD
:104EC500FFFFDFFFDFFFDFFFDFFFDFFFFFFFFFFF8D
:104ED500FFFFFFFFFFFFFFFFFFFFFFFFFFFFFFFFDD
:104EE500FFFFFFFFFFFFFFFFFFFFDFFFDFFFDFFF2D
:104EF500DFFFDFFFFFFFFFFFFFFFFFFFFFFFFFFFFD
:104F0500FFFFFFFFFFFFFFFFFFFFFFFFFFFFFFFFAC
:104F1500FFFFDFFFDFFFDFFFDFFFDFFFFFFFFFFF3C
:104F2500FFFFFFFFFFFFFFFFFFFFFFFFFFFFFFFF8C
:104F3500FFFFFFFFFFFFFFFFFFFFFFFFFFFFFFFF7C
:104F4500DFFFDFFFDFFFDFFFDFFFFFFFFFFFFFFF0C
:104F5500FFFFFFFFFFFFFFFFFFFFFFFFFFFFFFFF5C
:104F6500FFFFFFFFFFFFFFFFDFFFDFFFDFFFDFFFCC
:104F7500DFFFFFFFFFFFFFFFFFFFFFFFFFFFFFFF5C
:104F8500FFFFFFFFFFFFFFFFFFFFFFFFFFFFFFFF2C
:104F9500DFFFDFFFDFFFDFFFDFFFFFFFFFFFFFFFBC
:104FA500FFFFFFFFFFFFFFFFFFFFFFFFFFFFFFFF0C
:104FB500FFFFFFFFFFFFFFFFFFFFFFFFFFFFBEF745
:104FC500BEF7BEF7BEF7BEF7FFFFFFFFFFFFFFFF10
:104FD500FFFFFFFFFFFFFFFFFFFFFFFFFFFFFFFFDC
:104FE500FFFFFFFFFFFFBEF7BEF7BEF7BEF7BEF739
:104FF500FFFFFFFFFFFFFFFFFFFFFFFFFFFFFFFFBC
:10500500FFFFFFFFFFFFFFFFFFFFFFFFFFFFBEF7F4
:10501500BEF7BEF7BEF7BEF7FFFFFFFFFFFFFFFFBF
:10502500FFFFFFFFFFFFFFFFFFFFFFFFFFFFFFFF8B
:10503500FFFFFFFFFFFFFFFFFFFFFFFFBEF7BEF70D
:10504500BEF7BEF7BEF7FFFFFFFFFFFFFFFFFFFF46
:10505500FFFFFFFFFFFFFFFFFFFFFFFFFFFFFFFF5B
:10506500FFFFFFFFBEF7BEF7BEF7BEF7BEF7FFFFB8
:10507500FFFFFFFFFFFFFFFFFFFFFFFFFFFFFFFF3B
:10508500FFFFFFFFFFFFFFFFFFFFFFFFBEF7BEF7BD
:10509500BEF7BEF7BEF7FFFFFFFFFFFFFFFFFFFFF6
:1050A500FFFFFFFFFFFFFFFFFFFFFFFFFFFFFFFF0B
:1050B500FFFFFFFFFFFFFFFFFFFFBEF7BEF7BEF7D6
:1050C500BEF7BEF7FFFFFFFFFFFFFFFFFFFFFFFF7D
:1050D500FFFFFFFFFFFFFFFFFFFFFFFFFFFFFFFFDB
:1050E500FFFFBEF7BEF7BEF7BEF7BEF7FFFFFFFF38
:1050F500FFFFFFFFFFFFFFFFFFFFFFFFFFFFFFFFBB
:10510500FFFFFFFFFFFFFFFFFFFFBEF7BEF7BEF785
:10511500BEF7BEF7FFFFFFFFFFFFFFFFFFFFFFFF2C
:10512500FFFFFFFFFFFFFFFFFFFFFFFFFFFFFFFF8A
:10513500FFFFFFFFFFFFFFFFBEF7BEF7BEF7BEF79E
:10514500BEF7FFFFFFFFFFFFFFFFFFFFFFFFFFFFB3
:10515500FFFFFFFFFFFFFFFFFFFFFFFFFFFFFFFF5A
:10516500BEF7BEF7BEF7BEF7BEF7FFFFFFFFFFFFB7
:10517500FFFFFFFFFFFFFFFFFFFFFFFFFFFFFFFF3A
:10518500FFFFFFFFFFFFFFFFBEF7BEF7BEF7BEF74E
:10519500BEF7FFFFFFFFFFFFFFFFFFFFFFFFFFFF63
:1051A500FFFFFFFFFFFFFFFFFFFFFFFFFFFFFFFF0A
:1051B500FFFFFFFFFFFFBEF7BEF7BEF7BEF7BEF767
:1051C500FFFFFFFFFFFFFFFFFFFFFFFFFFFFFFFFEA
:1051D500FFFFFFFFFFFFFFFFFFFFFFFFFFFFBEF723
:1051E500BEF7BEF7BEF7BEF7FFFFFFFFFFFFFFFFEE
:1051F500FFFFFFFFFFFFFFFFFFFFFFFFFFFFFFFFBA
:10520500FFFFFFFFFFFFBEF7BEF7BEF7BEF7BEF716
:10521500FFFFFFFFFFFFFFFFFFFFFFFFFFFFFFFF99
:10522500FFFFFFFFFFFFFFFFFFFFFFFFFFFFFFFF89
:10523500FFFFFFFFBEF7BEF7BEF7BEF7BEF7FFFFE6
:10524500FFFFFFFFFFFFFFFFFFFFFFFFFFFFFFFF69
:10525500FFFFFFFFFFFFFFFFFFFFFFFFBEF7BEF7EB
:10526500BEF7BEF7BEF7FFFFFFFFFFFFFFFFFFFF24
:10527500FFFFFFFFFFFFFFFFFFFFFFFFFFFFFFFF39
:10528500FFFFFFFFBEF7BEF7BEF7BEF7BEF7FFFF96
:10529500FFFFFFFFFFFFFFFFFFFFFFFFFFFFFFFF19
:1052A500FFFFFFFFFFFFFFFFFFFFFFFFFFFFFFFF09
:1052B500FFFFBEF7BEF7BEF7BEF7BEF7FFFFFFFF66
:1052C500FFFFFFFFFFFFFFFFFFFFFFFFFFFFFFFFE9
:1052D500FFFFFFFFFFFFFFFFFFFFBEF7BEF7BEF7B4
:1052E500BEF7BEF7FFFFFFFFFFFFFFFFFFFFFFFF5B
:1052F500FFFFFFFFFFFFFFFFFFFFFFFFFFFFFFFFB9
:10530500FFFFBEF7BEF7BEF7BEF7BEF7FFFFFFFF15
:10531500FFFFFFFFFFFFFFFFFFFFFFFFFFFFFFFF98
:10532500FFFFFFFFFFFFFFFFFFFFFFFFFFFFFFFF88
:10533500BEF7BEF7BEF7BEF7BEF7FFFFFFFFFFFFE5
:10534500FFFFFFFFFFFFFFFFFFFFFFFFFFFFFFFF68
:10535500FFFFFFFFFFFFFFFFBEF7BEF7BEF7BEF77C
:10536500BEF7FFFFFFFFFFFFFFFFFFFFFFFFFFFF91
:10537500FFFFFFFFFFFFFFFFFFFFFFFFFFFFFFFF38
:10538500BEF779CED39C0C636529694ADFFFFFFF21
:10539500FFFFFFFFFFFFFFFFFFFFFFFFFFFFFFFF18
:1053A500FFFFFFFFFFFFFFFFFFFFFFFFFFFFDFFF28
:1053B500BEF7BEF7BEF7BEF7FFFFFFFFFFFFFFFF1C
:1053C500FFFFFFFFFFFFFFFFFFFFFFFFFFFFFFFFE8
:1053D500FFFFFFFFFFFFBEF7BEF7BEF7BEF7BEF745
:1053E500FFFFFFFFFFFFFFFFFFFFFFFFFFFFFFFFC8
:1053F500FFFFFFFFFFFFFFFF9EF7D7BD1084494A60
:10540500A21020002000200000000000DBDEFFFFCE
:10541500FFFFFFFFFFFFFFFFFFFFFFFFFFFFFFFF97
:10542500FFFFFFFFFFFFFFFFFFFFFFFFDFFFDFFFC7
:10543500BEF7BEF7BEF7FFFFFFFFFFFFFFFFFFFF52
:10544500FFFFFFFFFFFFFFFFFFFFFFFFFFFFFFFF67
:10545500FFFFFFFFBEF7BEF7BEF7BEF7BEF7FFFFC4
:10546500FFFFFFFFFFFFFFFFFFFFFFFFFFFFFFFF47
:10547500BAD6F39C2C6365290000000020002000AB
:10548500200020002000610808429294FFFFFFFFE2
:10549500FFFFFFFFFFFFFFFFFFFFFFFFFFFFFFFF17
:1054A500FFFFFFFFFFFFFFFFFFFFDFFFDFFFDFFF67
:1054B500BEF7BEF7FFFFFFFFFFFFFFFFFFFFFFFF89
:1054C500FFFFFFFFFFFFFFFFFFFFFFFFFFFFFFFFE7
:1054D500FFFFBEF7BEF7BEF7BEF7BEF7FFFFFFFF44
:1054E500FFFFFFFFFFFF9EF7D7BD1084494A8210DB
:1054F5000000000000000000000020002000242122
:10550500CB5A929479CEFFFFFFFFFFFFFFFFFFFF0E
:10551500FFFFFFFFFFFFFFFFFFFFFFFFFFFFFFFF96
:10552500FFFFDFFFFFFFFFFFFFFFDFFFDFFFDFFF06
:10553500BEF7FFFFFFFFFFFFFFFFFFFFFFFFFFFFBF
:10554500FFFFFFFFFFFFFFFFFFFFFFFFFFFFFFFF66
:10555500BEF7BEF7BEF7BEF7BEF7FFFFFFFFBAD631
:10556500F39C2C63452900000000000000000000AA
:105575000000000061080842CF7375AD1CE7BEF757
:10558500BEF7FFFFFFFFFFFFFFFFFFFFFFFFFFFF6F
:10559500FFFFFFFFFFFFFFFFFFFFFFFFFFFFFFFF16
:1055A500DFFFDFFFFFFFFFFFFFFFDFFFDFFFDFFFA6
:1055B500FFFFFFFFFFFFFFFFFFFFFFFFFFFFFFFFF6
:1055C500FFFFFFFFFFFFFFFFFFFFFFFFFFFFBEF72F
:1055D500BEF7BEF73CE796B510842842821000005E
:1055E5000000000000000000000000002421EB5A2C
:1055F500D39C9AD6DFFFBEF7BEF7BEF7BEF7BEF760
:10560500FFFFFFFFFFFFFFFFFFFFFFFFFFFFFFFFA5
:10561500FFFFFFFFFFFFFFFFFFFFFFFFFFFFDFFFB5
:10562500DFFFDFFFFFFFFFFFFFFFDFFFDFFFFFFF05
:10563500FFFFFFFFFFFFFFFFFFFFFFFFFFFFFFFF75
:10564500FFFFFFFFFFFFFFFFFFFFFFFF79CEB294D4
:105655000C63452920000000000000000000000048
:10566500000061080842EF7BB6B57DEFFFFFFFFF45
:10567500FFFFFFFFBEF7BEF7BEF7BEF7BEF7FFFFA2
:10568500FFFFFFFFFFFFFFFFFFFFFFFFFFFFFFFF25
:10569500FFFFFFFFFFFFFFFFFFFFFFFFBEF7DFFF7E
:1056A500DFFFDFFFFFFFFFFFFFFFDFFFFFFFFFFF65
:1056B500FFFFFFFFFFFFFFFFFFFFFFFFFFFFFFFFF5
:1056C500FFFF7DEFD7BDEF7B284282102000200031
:1056D5002000200000000000000045290C63D39C39
:1056E5009AD6FFFFFFFFFFFFFFFFFFFFFFFFFFFF53
:1056F500FFFFBEF7BEF7BEF7BEF7BEF7FFFFFFFF22
:10570500FFFFFFFFFFFFFFFFFFFFFFFFFFFFFFFFA4
:10571500FFFFFFFFFFFFFFFFFFFFBEF7BEF7DFFF46
:10572500DFFFDFFFFFFFFFFFFFFFFFFFFFFFFFFFC4
:10573500FFFFFFFFFFFFFFFFFFFFBAD6D39C0C6300
:105745004529000000000000200020002000200066
:1057550082102842EF7BB6B57DEFFFFFFFFFFFFF0D
:10576500FFFFFFFFFFFFFFFFFFFFFFFFFFFFFFFF44
:10577500BEF7BEF7BEF7BEF7BEF7FFFFFFFFFFFFA1
:10578500FFFFFFFFFFFFFFFFFFFFFFFFFFFFFFFF24
:10579500FFFFFFFFFFFFFFFFBEF7BEF7BEF7DFFF0F
:1057A500DFFFFFFFFFFFFFFFFFFFFFFFFFFFFFFF24
:1057B500FFFF3CE7EF7B2842610800000000000086
:1057C5000000000000002000200020000421AA5253
:1057D5001084108410841084108410841084108424
:1057E5001084108410841084108410841084108414
:1057F500EF7BEF7BEF7B1084108410841084108482
:1058050010841084108410841084108410841084F3
:105815001084108410843084FBDEBEF7BEF7DFFFF2
:10582500FFFFFFFFFFFFFFFFFFFFFFFFFFFFFFFF83
:10583500FFFFAA5200000000000000000000000069
:1058450000000000200020002000200020000000B3
:105855000000000000000000000000000000000043
:1058650000000000000000000000000020002000F3
:1058750020002000200000000000000000000000C3
:105885000000000000000000000000000000000013
:105895000000000020002000CB5ABEF7BEF7FFFF36
:1058A500FFFFFFFFFFFFFFFFFFFFFFFFFFFFFFFF03
:1058B500FFFF28420000000000000000000000007B
:1058C5000000200020002000200020000000000033
:1058D50000000000000000000000000000000000C3
:1058E5000000000000000000000020002000200053
:1058F5002000200000000000000000000000000063
:105905000000000000000000000000000000000092
:105915000000200020002000494ABEF7FFFFFFFFDE
:10592500FFFFFFFFFFFFFFFFFFFFFFFFFFFFFFFF82
:10593500FFFF2842000000000000000000000000FA
:1059450020002000200020002000000000000000B2
:105955000000000000000000000000000000000042
:1059650000000000000000002000200020002000B2
:105975002000000000000000000000000000000002
:105985000000000000000000000000000000000012
:105995002000200020002000494AFFFFFFFFFFFFF5
:1059A500FFFFFFFFFFFFFFFFFFFFFFFFFFFFFFFF02
:1059B500FFFF28420000000000000000000020005A
:1059C5002000200020002000000000000000000052
:1059D50000000000000000000000000000000000C2
:1059E5000000000000002000200020002000200012
:1059F50000000000000000000000000000000000A2
:105A05000000000000000000000000000000200071
:105A15002000200020002000494AFFFFFFFFFFFF74
:105A2500FFFFFFFFFFFFFFFFFFFFFFFFFFFFFFFF81
:105A3500FFFF2842000000000000000020002000B9
:105A450020002000200000000000000000000000F1
:105A55000000000000000000000000000000000041
:105A65000000000020002000200020002000000091
:105A75000000000000000000000000000000000021
:105A850000000000000000000000000020002000D1
:105A95002000200020000000494AFFFFFFFFFFFF14
:105AA500FFFFFFFFFFFFFFFFFFFFFFFFFFFFFFFF01
:105AB500FFFF284200000000000020002000200019
:105AC50020002000000000000000E318AE73D7BDE1
:105AD500FBDE3CE79AD634A5EB5A410800000000EE
:105AE5000000200020002000200020000000000011
:105AF50000000000000000000000000000000000A1
:105B05000000000000000000000020002000200030
:105B15002000200000000000494AFFFFFFFFFFFFB3
:105B2500FFFFFFFFFFFFFFFFFFFFFFFFFFFFFFFF80
:105B3500FFFF284200000000200020002000200078
:105B45002000000000006108B294DFFFFFFFFFFFA7
:105B5500FFFFFFFFFFFFFFFFFFFF5DEF0C6300008F
:105B65002000200020002000200000000000000090
:105B75000000200020002000200020002000200040
:105B850020002000200041084108200020002000BE
:105B95002000000000000000494AFFFFFFFFFFFF53
:105BA500FFFFFFFFFFFFFFFFFFFFFFFFFFFFFFFF00
:105BB500FFFF2842000020002000200020002000D8
:105BC500000000000421DBDEFFFFFFFFFFFFBAD668
:105BD50034A5D39C96B57DEFFFFFFFFFFFFFF39C38
:105BE5004108200020002000000000000000000007
:105BF500B294FFFFFFFFFFFFFFFFFFFFFFFFFFFF68
:105C0500FFFFFFFFFFFFBEF7BEF7BAD682102000E9
:105C15000000000000000000494AFFFFFFFFFFFFF2
:105C2500FFFFFFFFFFFFFFFFFFFFFFFFFFFFFFFF7F
:105C3500FFFF284220002000200020002000000057
:105C45000000A2101CE7FFFFFFFFD7BD8631000053
:105C55000000000000002000CB5A1CE7BEF7BEF78D
:105C6500F39C200020000000000000000000000060
:105C75009AD6FFFFFFFFFFFFFFFFFFFFFFFFFFFFBD
:105C8500FFFFFFFFBEF7BEF7BEF7BEF745290000D1
:105C95000000000000000000494AFFFFFFFFFFFF72
:105CA500FFFFFFFFFFFFFFFFFFFFFFFFFFFFFFFFFF
:105CB500FFFF2842200020002000200000000000F7
:105CC5000000B6B5FFFFFFFF3084000000000000B4
:105CD50000000000000000000000A210F7BDBEF7A4
:105CE500BEF70C630000000000000000000000008B
:105CF5002421AE73AE73AE73AE73AE73AE73AE7373
:105D0500AE73AE73AE73AE73AE73694A0000000036
:105D15000000000000000000494AFFFFFFFFFFFFF1
:105D2500FFFFFFFFFFFFFFFFFFFFFFFFFFFFFFFF7E
:105D3500BEF72842200020002000000000000000DF
:105D45002842FFFFFFFF14A500000000000000002F
:105D5500000000000000000020002000A210DBDE93
:105D6500BEF75DEF410800000000000000000000E4
:105D7500000000000000000000000000000000001E
:105D8500200020002000200020000000000000006E
:105D95000000000000000000494AFFFFFFFFFFFF71
:105DA500FFFFFFFFFFFFFFFFFFFFFFFFFFFFDFFF1E
:105DB500BEF728422000200000000000000000007F
:105DC50096B5FFFF9EF7821000000000000000005E
:105DD5000000000000002000200020002000AA5242
:105DE500FFFFFFFF0C630000000000000000000043
:105DF500000000000000000000000000000020007E
:105E0500200020002000200000000000000000000D
:105E15000000000000000000494AFFFFFFFFFFFFF0
:105E2500FFFFFFFFFFFFFFFFFFFFFFFFDFFFDFFFBD
:105E3500BEF72842200000000000000000002000FE
:105E4500BEF7FFFFD39C000000000000000000002B
:105E5500000000002000200020002000200020007D
:105E65005DEFFFFF55AD00000000000000000000E1
:105E750000000000000000000000000020002000DD
:105E850020002000200000000000000000000000AD
:105E95000000000000000000494AFFFFFFFFFFFF70
:105EA500FFFFFFFFFFFFFFFFFFFFDFFFDFFFDFFF5D
:105EB500BEF7284200000000000000000000452950
:105EC500FFFFFFFFCB5A00000000000000000000AC
:105ED500000020002000200020002000000000001D
:105EE50075ADFFFFDBDE00000000000000000000D4
:105EF500C739718C718C718C718C518C518C518C12
:105F0500518C518C718C718C718C2C63000000004C
:105F15000000000000000000494AFFFFFFFFFFFFEF
:105F2500FFFFDFFFFFFFFFFFFFFFDFFFDFFFDFFFFC
:105F3500BEF7284200000000000000000000E7391D
:105F4500FFFFFFFF08420000000000000000000006
:105F5500200020002000200020000000000000009C
:105F6500B294FFFF5DEF000000000000000000009C
:105F7500BAD6FFFFFFFFFFFFBEF7BEF7BEF7BEF7BE
:105F8500BEF7FFFFFFFFFFFFFFFFFFFF65290000D3
:105F95000000000000000000494AFFFFFFFFFFFF6F
:105FA500DFFFDFFFFFFFFFFFFFFFDFFFDFFFDFFF9C
:105FB500FFFF284200000000000000000000A6319D
:105FC500FFFFFFFF694A00000000000000002000FD
:105FD500200020002000200000000000000000003C
:105FE50014A5FFFF1CE700000000000000000000F2
:105FF50010847DEF7DEF3CE73CE73CE73CE73CE781
:106005007DEF7DEF7DEF7DEF7DEF38C64108000028
:106015000000000000000000494AFFFFFFFFDFFF0E
:10602500DFFFDFFFFFFFFFFFFFFFDFFFDFFFFFFFFB
:10603500FFFF284200000000000000000000821061
:10604500FFFFFFFFEF7B00000000000020002000A5
:1060550020002000200000000000000000000000DB
:106065009AD6FFFFF7BD0000000000000000000009
:10607500000000002000200020002000200000007B
:10608500000000000000000000000000000000000B
:106095000000000000000000494AFFFFBEF7DFFFD7
:1060A500DFFFDFFFFFFFFFFFFFFFDFFFFFFFFFFF5B
:1060B500FFFF284200000000000000000000000073
:1060C5009AD6FFFFBAD6000000002000200020006D
:1060D500200020000000000000000000000045290D
:1060E500FFFFFFFFEF7B0000000000000000000045
:1060F50000002000200020002000200000000000FB
:10610500000000000000000000000000000000008A
:106115000000000000000000494ABEF7BEF7DFFF9F
:10612500DFFFDFFFFFFFFFFFFFFFFFFFFFFFFFFFBA
:10613500FFFF2842000000000000000000000000F2
:106145008E73FFFFFFFFEB5A200020002000200088
:10615500200000000000000000000000000096B5CF
:10616500FFFFFFFF04210000000000000000000009
:10617500200020002000200020000000000000007A
:10618500000000000000000000000000000000000A
:106195000000000000000000494ABEF7BEF7DFFF1F
:1061A500DFFFFFFFFFFFFFFFFFFFFFFFFFFFFFFF1A
:1061B500FFFF284200000000000000000000000072
:1061C50061083CE7FFFF5DEFA631200020002000BD
:1061D500000000000000000000000000CF7BFFFF72
:1061E500FFFFF39C000000000000000000002000FD
:1061F5002000C318C318C318C318A210A210A210F8
:10620500A210A210A210A210A210200000000000EF
:106215000000000000002000494ABEF7BEF7DFFF7E
:10622500FFFFFFFFFFFFFFFFFFFFFFFFFFFFFFFF79
:10623500FFFF2842000000000000000000000000F1
:106245000000494A9EF7BEF73CE7CB5A2000000004
:1062550000000000000000006108B294FFFFFFFF8E
:106265001CE7821000000000000000002000200054
:10627500F39CBEF7BEF7FFFFFFFFFFFFFFFFFFFF2A
:10628500FFFFFFFFFFFFFFFFFFFF5DEFA210000015
:106295000000000020002000494ABEF7BEF7FFFFBE
:1062A500FFFFFFFFFFFFFFFFFFFFFFFFFFFFFFFFF9
:1062B500FFFF284200000000000000000000000071
:1062C500000020000C639EF7BEF7BEF79AD6CF7B81
:1062D500494AE739AA5292947DEFFFFFFFFF3CE759
:1062E50045290000000000000000200020002000DB
:1062F50038C6BEF7FFFFFFFFFFFFFFFFFFFFFFFFF2
:10630500FFFFFFFFFFFFFFFFFFFFFFFF242100004F
:106315000000200020002000494ABEF7FFFFFFFFD4
:10632500FFFFFFFFFFFFFFFFFFFFFFFFFFFFFFFF78
:10633500FFFF2842000000000000000000000000F0
:10634500200020002000494AFBDEFFFFFFFFFFFF82
:10635500FFFFFFFFFFFFFFFFFFFFFFFFF7BDE31895
:1063650000000000000000002000200020002000A8
:10637500E3182C632C632C632C632C632C632C6334
:106385002C632C632C632C632C63E739000000001D
:106395002000200020002000494AFFFFFFFFFFFFEB
:1063A500FFFFFFFFFFFFFFFFFFFFFFFFFFFFFFFFF8
:1063B500FFFF284200000000000000000000200050
:1063C50020002000200020006108AE73BAD6FFFF30
:1063D500FFFFFFFFFFFFDFFFD7BD694A0000000099
:1063E5000000000000002000200020002000200008
:1063F5000000000000000000000000000000000098
:106405000000000000000000000000000000200067
:106415002000200020002000494AFFFFFFFFFFFF6A
:10642500FFFFFFFFFFFFFFFFFFFFFFFFFFFFFFFF77
:10643500FFFF2842000000000000000020002000AF
:106445002000200020000000000000000000A21035
:10645500C7390842863141080000000000000000ED
:106465000000000020002000200020002000000087
:106475000000000000000000000000000000000017
:1064850000000000000000000000000020002000C7
:106495002000200020000000494AFFFFFFFFFFFF0A
:1064A500FFFFFFFFFFFFFFFFFFFFFFFFFFFFFFFFF7
:1064B500FFFF28420000000000002000200020000F
:1064C5002000200000000000000000000000000087
:1064D50000000000000000000000000000000000B7
:1064E5000000200020002000200020000000000007
:1064F5000000000000000000000000000000000097
:106505000000000000000000000020002000200026
:106515002000200000000000494AFFFFFFFFFFFFA9
:10652500FFFFFFFFFFFFFFFFFFFFFFFFFFFFFFFF76
:10653500FFFF28420000000020002000200020006E
:106545002000000000000000000000000000000026
:106555000000000000000000000000000000000036
:106565002000200020002000200000000000000086
:106575000000000000000000000000000000000016
:106585000000000000000000200020002000200086
:106595002000000000000000494AFFFFFFFFFFFF49
:1065A500FFFFFFFFFFFFFFFFFFFFFFFFFFFFFFFFF6
:1065B500FFFF2842000020002000200020002000CE
:1065C50000000000000000000000000000000000C6
:1065D5000000000000000000000000000000200096
:1065E5002000200020002000000000000000000026
:1065F5000000000000000000000000000000000096
:1066050000000000000020002000200020002000E5
:106615000000000000000000494AFFFFFFFFFFFFE8
:10662500FFFFFFFFFFFFFFFFFFFFFFFFFFFFFFFF75
:10663500FFFF494A20002000200020002000000024
:106645000000000000000000000000000000000045
:1066550000000000000000000000000020002000F5
:1066650020002000200000000000000000000000C5
:106675000000000000000000000000000000000015
:106685000000000020002000200020002000000065
:106695000000000000000000694AFFFFFFFFFFFF48
:1066A500FFFFFFFFFFFFFFFFFFFFFFFFFFFFFFFFF5
:1066B500FFFF34A524210421042104210421E3182A
:1066C500E318E318E318E318E318E318E318E318ED
:1066D500E318E318E318E318042104210421042135
:1066E500042104210421E318E318E318E318E3184F
:1066F500E318E318E318E318E318E318E318E318BD
:106705000421042104210421042104210421E31886
:10671500E318E318E318242196B5FFFFFFFFFFFFF9
:10672500FFFFFFFFFFFFFFFFFFFFFFFFFFFFFFFF74
:10673500BEF7BEF7BEF7BEF7BEF7FFFFFFFFFFFFD1
:10674500FFFFFFFFFFFFFFFFFFFFFFFFFFFFFFFF54
:10675500FFFFFFFFFFFFFFFFBEF7BEF7BEF7BEF768
:10676500BEF7FFFFFFFFFFFFFFFFFFFFFFFFFFFF7D
:10677500FFFFFFFFFFFFFFFFFFFFFFFFFFFFFFFF24
:10678500BEF7BEF7BEF7BEF7BEF7FFFFFFFFFFFF81
:10679500FFFFFFFFFFFFFFFFFFFFFFFFFFFFFFFF04
:1067A500FFFFFFFFFFFFFFFFFFFFFFFFFFFFDFFF14
:1067B500BEF7BEF7BEF7BEF7FFFFFFFFFFFFFFFF08
:1067C500FFFFFFFFFFFFFFFFFFFFFFFFFFFFFFFFD4
:1067D500FFFFFFFFFFFFBEF7BEF7BEF7BEF7BEF731
:1067E500FFFFFFFFFFFFFFFFFFFFFFFFFFFFFFFFB4
:1067F500FFFFFFFFFFFFFFFFFFFFFFFFFFFFBEF7ED
:10680500BEF7BEF7BEF7BEF7FFFFFFFFFFFFFFFFB7
:10681500FFFFFFFFFFFFFFFFFFFFFFFFFFFFFFFF83
:10682500FFFFFFFFFFFFFFFFFFFFFFFFDFFFDFFFB3
:10683500BEF7BEF7BEF7FFFFFFFFFFFFFFFFFFFF3E
:10684500FFFFFFFFFFFFFFFFFFFFFFFFFFFFFFFF53
:10685500FFFFFFFFBEF7BEF7BEF7BEF7BEF7FFFFB0
:10686500FFFFFFFFFFFFFFFFFFFFFFFFFFFFFFFF33
:10687500FFFFFFFFFFFFFFFFFFFFFFFFBEF7BEF7B5
:10688500BEF7BEF7BEF7FFFFFFFFFFFFFFFFFFFFEE
:10689500FFFFFFFFFFFFFFFFFFFFFFFFFFFFFFFF03
:1068A500FFFFFFFFFFFFFFFFFFFFDFFFDFFFDFFF53
:1068B500BEF7BEF7FFFFFFFFFFFFFFFFFFFFFFFF75
:1068C500FFFFFFFFFFFFFFFFFFFFFFFFFFFFFFFFD3
:1068D500FFFFBEF7BEF7BEF7BEF7BEF7FFFFFFFF30
:1068E500FFFFFFFFFFFFFFFFFFFFFFFFFFFFFFFFB3
:1068F500FFFFFFFFFFFFFFFFFFFFBEF7BEF7BEF77E
:10690500BEF7BEF7FFFFFFFFFFFFFFFFFFFFFFFF24
:10691500FFFFFFFFFFFFFFFFFFFFFFFFFFFFFFFF82
:10692500FFFFDFFFFFFFFFFFFFFFDFFFDFFFDFFFF2
:10693500BEF7FFFFFFFFFFFFFFFFFFFFFFFFFFFFAB
:10694500FFFFFFFFFFFFFFFFFFFFFFFFFFFFFFFF52
:10695500BEF7BEF7BEF7BEF7BEF7FFFFFFFFFFFFAF
:10696500FFFFFFFFFFFFFFFFFFFFFFFFFFFFFFFF32
:10697500FFFFFFFFFFFFFFFFBEF7BEF7BEF7BEF746
:10698500BEF7FFFFFFFFFFFFFFFFFFFFFFFFFFFF5B
:10699500FFFFFFFFFFFFFFFFFFFFFFFFFFFFFFFF02
:1069A500DFFFDFFFFFFFFFFFFFFFDFFFDFFFDFFF92
:1069B500FFFFFFFFFFFFFFFFFFFFFFFFFFFFFFFFE2
:1069C500FFFFFFFFFFFFFFFFFFFFFFFFFFFFBEF71B
:1069D500BEF7BEF7BEF7BEF7FFFFFFFFFFFFFFFFE6
:1069E500FFFFFFFFFFFFFFFFFFFFFFFFFFFFFFFFB2
:1069F500FFFFFFFFFFFFBEF7BEF7BEF7BEF7BEF70F
:106A0500FFFFFFFFFFFFFFFFFFFFFFFFFFFFFFFF91
:106A1500FFFFFFFFFFFFFFFFFFFFFFFFFFFFDFFFA1
:106A2500DFFFDFFFFFFFFFFFFFFFDFFFDFFFFFFFF1
:106A3500FFFFFFFFFFFFFFFFFFFFFFFFFFFFFFFF61
:106A4500FFFFFFFFFFFFFFFFFFFFFFFFBEF7BEF7E3
:106A5500BEF7BEF7BEF7FFFFFFFFFFFFFFFFFFFF1C
:106A6500FFFFFFFFFFFFFFFFFFFFFFFFFFFFFFFF31
:106A7500FFFFFFFFBEF7BEF7BEF7BEF7BEF7FFFF8E
:106A8500FFFFFFFFFFFFFFFFFFFFFFFFFFFFFFFF11
:106A9500FFFFFFFFFFFFFFFFFFFFFFFFBEF7DFFF6A
:106AA500DFFFDFFFFFFFFFFFFFFFDFFFFFFFFFFF51
:106AB500FFFFFFFFFFFFFFFFFFFFFFFFFFFFFFFFE1
:106AC500FFFFFFFFFFFFFFFFFFFFBEF7BEF7BEF7AC
:106AD500BEF7BEF7FFFFFFFFFFFFFFFFFFFFFFFF53
:106AE500FFFFFFFFFFFFFFFFFFFFFFFFFFFFFFFFB1
:106AF500FFFFBEF7BEF7BEF7BEF7BEF7FFFFFFFF0E
:106B0500FFFFFFFFFFFFFFFFFFFFFFFFFFFFFFFF90
:106B1500FFFFFFFFFFFFFFFFFFFFBEF7BEF7DFFF32
:106B2500DFFFDFFFFFFFFFFFFFFFFFFFFFFFFFFFB0
:106B3500FFFFFFFFFFFFFFFFFFFFFFFFFFFFFFFF60
:106B4500FFFFFFFFFFFFFFFFDFFFDFFFDFFFDFFFD0
:106B5500DFFFFFFFFFFFFFFFFFFFFFFFFFFFFFFF60
:106B6500FFFFFFFFFFFFFFFFFFFFFFFFFFFFFFFF30
:106B7500DFFFDFFFDFFFDFFFDFFFFFFFFFFFFFFFC0
:106B8500FFFFFFFFFFFFFFFFFFFFFFFFFFFFFFFF10
:106B9500FFFFFFFFFFFFFFFFDFFFDFFFDFFFDFFF80
:106BA500DFFFFFFFFFFFFFFFFFFFFFFFFFFFFFFF10
:106BB500FFFFFFFFFFFFFFFFFFFFFFFFFFFFFFFFE0
:106BC500FFFFFFFFFFFFDFFFDFFFDFFFDFFFDFFF70
:106BD500FFFFFFFFFFFFFFFFFFFFFFFFFFFFFFFFC0
:106BE500FFFFFFFFFFFFFFFFFFFFFFFFFFFFDFFFD0
:106BF500DFFFDFFFDFFFDFFFFFFFFFFFFFFFFFFF20
:106C0500FFFFFFFFFFFFFFFFFFFFFFFFFFFFFFFF8F
:106C1500FFFFFFFFFFFFDFFFDFFFDFFFDFFFDFFF1F
:106C2500FFFFFFFFFFFFFFFFFFFFFFFFFFFFFFFF6F
:106C3500FFFFFFFFFFFFFFFFFFFFFFFFFFFFFFFF5F
:106C4500FFFFFFFFDFFFDFFFDFFFDFFFDFFFFFFFEF
:106C5500FFFFFFFFFFFFFFFFFFFFFFFFFFFFFFFF3F
:106C6500FFFFFFFFFFFFFFFFFFFFFFFFDFFFDFFF6F
:106C7500DFFFDFFFDFFFFFFFFFFFFFFFFFFFFFFF7F
:106C8500FFFFFFFFFFFFFFFFFFFFFFFFFFFFFFFF0F
:106C9500FFFFFFFFDFFFDFFFDFFFDFFFDFFFFFFF9F
:106CA500FFFFFFFFFFFFFFFFFFFFFFFFFFFFFFFFEF
:106CB500FFFFFFFFFFFFFFFFFFFFFFFFFFFFFFFFDF
:106CC500FFFFFFFFFFFFFFFFFFFFFFFFFFFFFFFFCF
:106CD500FFFFFFFFFFFFFFFFFFFFFFFFFFFFFFFFBF
:106CE500FFFFFFFFFFFFFFFFFFFFFFFFFFFFFFFFAF
:106CF500FFFFFFFFFFFFFFFFFFFFFFFFFFFFFFFF9F
:106D0500FFFFFFFFFFFFFFFFFFFFFFFFFFFFFFFF8E
:106D1500FFFFFFFFFFFFFFFFFFFFFFFFFFFFFFFF7E
:106D2500FFFFFFFFFFFF000020007E0017000C841F
:106D350001000CB201000CE001000C0E02000C3C3D
:106D450002000C6A02000C9802000CC602000CF44A
:106D550002000C2203000C5003000C7E03000CAC57
:106D650003000CDA03000C0804000C3604000C6464
:106D750004000C9204000CC004000CEE04000C1C72
:106D850005000C4A05000C7805000CA605000CD47E
:106D950005000C0206000C3006000C5E06000C8C8B
:106DA50006000CBA06000CE806000C1607000C4499
:106DB50007000C7207000CA007000CCE07000CFCA6
:106DC50007000C2A08000C5808000C8608000CB4B3
:106DD50008000CE208000C1009000C3E09000C6CC0
:106DE50009000C9A09000CC809000CF609000C24CE
:106DF5000A000C520A000C800A000CAE0A000CDCDA
:106E05000A000C0A0B000C380B000C660B000C94E6
:106E15000B000CC20B000CF00B000C1E0C000C4CF4
:106E25000C000C7A0C000CA80C000CD60C000C0401
:106E35000D000C320D000C600D000C8E0D000CBC0D
:106E45000D000CEA0D000C180E000C460E000C741B
:106E55000E000CA20E000CD00E000CFE0E000C2C29
:106E65000F000C5A0F000C880F000CB60F000CE435
:106E75000F000C1210000C4010000C6E10000C9C42
:106E850010000CCA10000CF810000C2611000C5450
:106E950011000C8211000CB011000CDE11000C0C5D
:106EA50012000C3A12000C681200000000000000ED
:106EB50000000000000000000000000000000000CD
:106EC50000000000000000000000000000000000BD
:106ED50000000000000000000000000000000000AD
:106EE500700070007000700070007000700020006D
:106EF500200000000000700070000000000000008D
:106F0500000000000000000000000000000000007C
:106F15009C039C039C030801080108010000000074
:106F2500000000000000000000000000000000005C
:106F35000000000000000000000098019801980181
:106F450098019801FE07FE0798019801FE07FE07C4
:106F5500980198019801980198010000000000002F
:106F6500000000000000000060006000F003F8036E
:106F75000C030C007C00F80180030C030C03FC01DE
:106F8500FC006000600060000000000000000000E0
:106F950000000000000000001C002200220022006A
:106FA5001C03C003F8001E00C601200220022002B7
:106FB500C00100000000000000000000000000000B
:106FC50000000000000000000000E003F8031800C6
:106FD500180030007806FC07CC038C01FC07F0068E
:106FE500000000000000000000000000000000009C
:106FF500000000000000E000E000E000400040006C
:10700500400000000000000000000000000000003B
:10701500000000000000000000000000000000006B
:10702500000080018001C000C000C0006000600059
:107035006000600060006000C000C000C00080010A
:1070450080010000000000000000000000000000BA
:10705500180018003000300030006000600060004B
:10706500600060006000300030003000180018003B
:1070750000000000000000000000000000006000AB
:10708500600060006C03FC03F000F000F80198015B
:1070950000000000000000000000000000000000EB
:1070A50000000000000000000000000000000000DB
:1070B5006000600060006000FE07FE076000600081
:1070C50060006000000000000000000000000000FB
:1070D50000000000000000000000000000000000AB
:1070E5000000000000000000000000000000E000BB
:1070F500600060003000300010000000000000005B
:10710500000000000000000000000000000000007A
:1071150000000000FE03FE03000000000000000068
:10712500000000000000000000000000000000005A
:10713500000000000000000000000000000000004A
:1071450000000000000000000000700070007000EA
:10715500000000000000000000000000000000002A
:10716500000000030003800180018001C000C00011
:1071750060006000300030001800180018000C0096
:107185000C000000000000000000000000000000EE
:107195000000F800FC018C01060306030603060344
:1071A5000603060306038C01FC01F800000000003D
:1071B50000000000000000000000000000000000CA
:1071C50060007C007C006000600060006000600082
:1071D500600060006000FC03FC030000000000008C
:1071E5000000000000000000000000000000F800A2
:1071F500FC018E03060300038001C000600030001F
:1072050018000C00FE03FE03000000000000000053
:10721500000000000000000000000000F800FE0172
:10722500860300038003F001F001800300030003DF
:107235008303FF01FE0000000000000000000000C5
:1072450000000000000000000000C001E001E001B6
:10725500B001980198018C018601FE03FE038001AF
:10726500E003E00300000000000000000000000053
:107275000000000000000000FC01FC010C000C00F7
:10728500FC00FC018C030003000300038603FE01E0
:10729500FC000000000000000000000000000000ED
:1072A500000000000000E003F8033C000C000E00A5
:1072B500F600FE018E03060306038C03FC01F000B5
:1072C50000000000000000000000000000000000B9
:1072D50000000000FE03FE03060300038001800199
:1072E5008001C000C000C0006000600060000000B8
:1072F5000000000000000000000000000000000089
:107305000000F800FC018E0306038E03FC01FC015E
:107315008E03060306038E03FC01F800000000003F
:107325000000000000000000000000000000000058
:107335007800FC018E01060306038E03FC03780327
:1073450080038001E001FE003E0000000000000017
:107355000000000000000000000000000000000028
:1073650000000000000070007000700000000000C8
:1073750000007000700070000000000000000000B8
:1073850000000000000000000000000000000000F8
:1073950000000000C001C001C001000000000000A5
:1073A500E000600030003000100000000000000028
:1073B50000000000000000000000000000000006C2
:1073C5008007E00170001C000F001C007000E00148
:1073D500800700060000000000000000000000001B
:1073E5000000000000000000000000000000000098
:1073F500FF07FF0700000000FF07FF070000000070
:107405000000000000000000000000000000000077
:107415000000000000000000000006001E007800CB
:10742500E0008003000F8003E00078001E000600E6
:107435000000000000000000000000000000000047
:10744500000000000000F800FC018C030C030003A1
:10745500C001E00060000000000070007000000046
:107465000000000000000000000000000000000017
:107475000000E0009800080104010401C401240192
:1074850024012401C401040008000801F0000000E3
:1074950000000000000000000000000000000000E7
:1074A5000000FC00FC00E000B001B00198011803E9
:1074B500FC03FC0306060F0F0F0F00000000000081
:1074C50000000000000000000000000000000000B7
:1074D500FE00FE010C030C038C03FC01FC030C07EE
:1074E5000C060C06FE07FE0100000000000000006F
:1074F5000000000000000000000000000000F00691
:10750500F8071C070E0606000600060006000E0614
:107515001C07F803F0010000000000000000000057
:10752500000000000000000000000000FF00FF0157
:1075350086030607060606060606060606078603EA
:10754500FF01FF0000000000000000000000000037
:1075550000000000000000000000FE07FE070C060A
:107565000C06CC00FC00FC00CC000C060C06FE074B
:10757500FE07000000000000000000000000000001
:107585000000000000000000FE07FE070C060C06C8
:10759500CC00FC00FC00CC000C000C007E007E0042
:1075A50000000000000000000000000000000000D6
:1075B500000000000000F006FC070C0706060600A8
:1075C5000600C60FC60F06060C06FC07F0010000F4
:1075D50000000000000000000000000000000000A6
:1075E500000000009E079E070C030C030C03FC0320
:1075F500FC030C030C030C039E079E070000000010
:107605000000000000000000000000000000000075
:107615000000FC03FC036000600060006000600087
:10762500600060006000FC03FC0300000000000037
:107635000000000000000000000000000000000045
:10764500E00FE00F00030003000300030603060339
:1076550006038603FE01F80000000000000000009C
:107665000000000000000000000000000000BE0F48
:10767500BE0F8C03CC006C007C00DC008C018C01FF
:107685000C033E0F3E0E000000000000000000004D
:107695000000000000000000000000007E007E00E9
:1076A5001800180018001800180018061806180603
:1076B500FE07FE07000000000000000000000000BB
:1076C500000000000000000000000F0F0F0F0E0764
:1076D5009E079606F606F6066606660606069F0FDA
:1076E5009F0F0000000000000000000000000000E7
:1076F5000000000000000000CE07DE071C033C036D
:107705003C036C036C03CC03CC038C03BE033E0328
:107715000000000000000000000000000000000064
:10772500000000000000F000F8019C030E070606AB
:107735000606060606060E079C03F801F000000083
:107745000000000000000000000000000000000034
:1077550000000000FE01FE030C070C060C060C07DA
:10776500FC03FC010C000C007E007E000000000004
:107775000000000000000000000000000000000004
:107785000000F000F8019C030E0706060606060633
:1077950006060E079C03F801F000F006F8079803AB
:1077A50000000000000000000000000000000000D4
:1077B500FE01FE030C070C060C07FC03FC018C0301
:1077C5000C030C073E0E3E0C0000000000000000FC
:1077D5000000000000000000000000000000F806A6
:1077E500FC070E0706060E00FC00F0030007060660
:1077F5000E07FE03F6010000000000000000000077
:10780500000000000000000000000000FE07FE0769
:10781500660666066606600060006000600060003F
:10782500F801F80100000000000000000000000061
:10783500000000000000000000009E079E070C03EA
:107845000C030C030C030C030C030C039C03F80141
:10785500F000000000000000000000000000000033
:1078650000000000000000008F078F0706030603D5
:107875008C018C01D800D800D80070007000700011
:1078850000000000000000000000000000000000F3
:107895000000000000001F0F1F0F060CE60CE60C91
:1078A500E60CB60DB4051C071C071C070C060000EA
:1078B50000000000000000000000000000000000C3
:1078C500000000008F078F0706038C01D8007000A9
:1078D5007000D8008C0106038F078F070000000099
:1078E5000000000000000000000000000000000093
:1078F50000009E079E070C039801F000F000600051
:10790500600060006000F801F80100000000000060
:107915000000000000000000000000000000000062
:10792500FC03FC030C038C01C00060006000300008
:1079350018030C03FC03FC0300000000000000001A
:10794500000000000000000000000000E001E00170
:107955006000600060006000600060006000600022
:107965006000600060006000E001E00100000000D0
:1079750000000000000000000C000C0018001800BA
:1079850018003000300060006000C000C0008001B9
:1079950080018001000300030000000000000000DA
:1079A5000000000000000000780078006000600022
:1079B50060006000600060006000600060006000C2
:1079C5006000600078007800000000000000000002
:1079D50000000000000020007000D8008C010603A4
:1079E500020200000000000000000000000000008E
:1079F5000000000000000000000000000000000082
:107A05000000000000000000000000000000000071
:107A15000000000000000000000000000000000061
:107A2500000000000000FF0FFF0F00000000000035
:107A35000000100060008000000000000000000051
:107A45000000000000000000000000000000000031
:107A55000000000000000000000000000000000021
:107A65000000000000000000F800FC030003F8031C
:107A7500FC030E038603FE077807000000000000E4
:107A850000000000000000000000000000000700EA
:107A9500070006000600F600FE030E0306060606AE
:107AA50006060E03FF03F7000000000000000000BB
:107AB50000000000000000000000000000000000C1
:107AC50000000000F006FC070C060606060006008E
:107AD5000E06FC07F8010000000000000000000091
:107AE500000000000000000000000007000700067D
:107AF5000006F006FC070C070606060606060E0736
:107B0500FC0FF00E00000000000000000000000067
:107B15000000000000000000000000000000000060
:107B2500F000FC030C03FE07FE0706000C06FC072D
:107B3500F00100000000000000000000000000004F
:107B4500000000000000E007F00730003000FC03F3
:107B5500FC0330003000300030003000FC03FC0333
:107B65000000000000000000000000000000000010
:107B7500000000000000000000000000F00EFC0FF7
:107B85000C070606060606060C07FC07F0060006A7
:107B95000007F803F80100000000000000000000E5
:107BA50000000E000E000C000C00EC01FC031C0391
:107BB5000C030C030C030C039E079E07000000003A
:107BC50000000000000000000000000000000000B0
:107BD50060006000000000007C007C006000600028
:107BE500600060006000FC03FC0300000000000072
:107BF5000000000000000000000000000000600020
:107C0500600000000000FC01FC0180018001800192
:107C150080018001800180018001C001FE007E009D
:107C25000000000000000000000000000E000E0033
:107C35000C000C00EC03EC036C003C003C006C00F9
:107C4500CC00CE07CE0700000000000000000000B9
:107C5500000000000000000000007C007C006000C7
:107C6500600060006000600060006000600060000F
:107C7500FC03FC0300000000000000000000000001
:107C850000000000000000000000000000000000EF
:107C9500BF03FF0766066606660666066606EF0EFE
:107CA500EF0E0000000000000000000000000000D2
:107CB5000000000000000000000000000000EE00D1
:107CC500FE031C030C030C030C030C039E079E0709
:107CD500000000000000000000000000000000009F
:107CE500000000000000000000000000F000FC03A0
:107CF5000C030606060606060C03FC03F00000004E
:107D0500000000000000000000000000000000006E
:107D150000000000000000000000F700FF030E0354
:107D25000606060606060E03FE03F6000600060016
:107D35001F001F0000000000000000000000000000
:107D45000000000000000000F00EFC0F0C07060606
:107D5500060606060C07FC07F00600060006800F5F
:107D6500800F00000000000000000000000000007F
:107D75000000000000009E03DE07780638001800AA
:107D850018001800FE01FE010000000000000000C0
:107D950000000000000000000000000000000000DE
:107DA50000000000F003FC030C033C00F801C003D5
:107DB5000C03FC03FC0000000000000000000000B4
:107DC500000000000000000000000000180018007E
:107DD5001800FE03FE031800180018001800180606
:107DE500F807F0010000000000000000000000009E
:107DF500000000000000000000000000000000007E
:107E05008E038E030C030C030C030C038C03FC077D
:107E150078070000000000000000000000000000DE
:107E250000000000000000000000000000008F07B7
:107E35008F0706038C018C01D800D80070007000F4
:107E4500000000000000000000000000000000002D
:107E55000000000000000000000000008F078F07F1
:107E650026032603F603DC01DC018C018C010000EE
:107E750000000000000000000000000000000000FD
:107E8500000000000000000000009E079E0798010A
:107E9500F0006000F00098019E079E0700000000BA
:107EA50000000000000000000000000000000000CD
:107EB50000000000000000008F078F0706038C01FB
:107EC5008C01D800F80070003000300018007F00E9
:107ED5007F0000000000000000000000000000001E
:107EE500000000000000FC03FC038C01C0006000E2
:107EF50030001803FC03FC03000000000000000034
:107F0500000000000000000000000000C001E001CA
:107F15006000600060006000600070003800700064
:107F25006000600060006000E001C001000000002A
:107F3500000000000000000000006000600060001C
:107F4500600060006000600060006000600060002C
:107F5500600060006000600060000000000000003C
:107F650000000000000000001C003C003000300054
:107F75003000300030007000E0007000300030004C
:107F8500300030003C001C00000000000000000034
:107F950000000000000000000000000000000000DC
:107FA50038007E06E607C003000000000000000060
:107FB5000000000000000000000000004472697627
:107FC500657220494C493933343100496E74657204
:107FD500666163653A205350490056657273696F4F
:107FE5006E253364200054465420323430783332C1
:0C7FF500300056657273696F6E0000FF6B
:020000040020DA
:08000000FFFFFFFFFFFFFFFF00
:020000040030CA
:0E000000040E1F1EFF0381FF0FC00FE00F4014
:00000001FF
