:040000006EEF00F0AF
:10000800FACFBBF0FBCFBCF0E9CFBDF0C8EF0DF0E5
:10001800D8CF27F0E8CF28F0E0CF29F0FACF2AF0A0
:10002800FBCF2BF0E9CF2CF0EACF2DF0E1CF2EF06B
:10003800E2CF2FF0D9CF30F0DACF31F0F3CF32F072
:10004800F4CF33F0F6CF34F0F7CF35F0F8CF36F001
:10005800F5CF37F09DBA9EAA03D016EC11F017D051
:100068009DB69EA603D027EC09F011D09DB89EA896
:1000780003D0CBEC10F00BD0F2BAF2A403D0BCEC56
:1000880012F005D0A0B6A1A602D0F9EC12F037C044
:10009800F5FF36C0F8FF35C0F7FF34C0F6FF33C0B0
:1000A800F4FF32C0F3FF31C0DAFF30C0D9FF2FC0F0
:1000B800E2FF2EC0E1FF2DC0EAFF2CC0E9FF2BC0F4
:1000C800FBFF2AC0FAFF29C0E0FF28C0E8FF27C0CD
:1000D800D8FF10007AEF0FF00001D36F000E3F6ECB
:1000E800000E4EEC0FF0FF0E406E670E3F6E33ECC5
:1000F8000EF0000E3E6E050E3D6E0001D3C03BF0C3
:100108003C6A3CEC0CF0D8903B363C36FE0E3B2467
:100118000001D16FFF0E3C200001D26FD1C03BF02F
:10012800D2C03CF0000E3E6E640E3D6E3CEC0CF00E
:100138003B50300F8AEC11F0000E3E6E050E3D6EFE
:100148000001D3C03BF03C6A3CEC0CF0D8903B3645
:100158003C36FE0E3B240001D16FFF0E3C2000010F
:10016800D26F000E3E6E0A0E3D6ED1C03BF0D2C07B
:100178003CF03CEC0CF03BC0CDF03CC0CEF0000EA7
:100188000001D06F0A0E0001CF6F9BEC0CF000014C
:10019800CD51300F8AEC11F0000E3E6E050E3D6E0B
:1001A8000001D3C03BF03C6A3CEC0CF0D8903B36E5
:1001B8003C36FE0E3B240001CD6FFF0E3C200001B3
:1001C800CE6F000E0001D06F0A0E0001CF6F9BECBE
:1001D8000CF00001CD51300F8AEC11F0250E8AEC9D
:1001E80011F0FE0E406EA80E3F6E33EC0EF0FCD000
:1001F800FF0E406EF40E3F6E33EC0EF061D1FF0E31
:10020800406EB80E3F6E33EC0EF05AD1FF0E406EC2
:10021800F00E3F6E33EC0EF053D1FF0E406EEC0E35
:100228003F6E33EC0EF04CD1FF0E406EBC0E3F6EAD
:1002380033EC0EF045D1FF0E406EA80E3F6E33EC46
:100248000EF03ED1FF0E406EB40E3F6E33EC0EF052
:1002580037D1FF0E406EB00E3F6E33EC0EF030D14A
:10026800FF0E406EE80E3F6E33EC0EF029D1FF0E04
:10027800406EAC0E3F6E33EC0EF022D1FF0E406E96
:10028800FC0E3F6E33EC0EF01BD1FF0E406ED40E09
:100298003F6E33EC0EF014D1FF0E406E900E3F6EA1
:1002A80033EC0EF00DD1FF0E406EE40E3F6E33ECD2
:1002B8000EF006D1FF0E406EA40E3F6E33EC0EF02A
:1002C800FFD0FF0E406EE00E3F6E33EC0EF0F8D01C
:1002D800FF0E406EA00E3F6E33EC0EF0F1D0FF0E15
:1002E800406E9C0E3F6E33EC0EF0EAD0FF0E406E6F
:1002F800DC0E3F6E33EC0EF0E3D0FF0E406E980E2E
:100308003F6E33EC0EF0DCD0FF0E406ED80E3F6E21
:1003180033EC0EF0D5D0FF0E406E940E3F6E33ECEA
:100328000EF0CED0FF0E406E780E3F6E33EC0EF01E
:10033800C7D0FF0E406EC00E3F6E33EC0EF0C0D03B
:10034800FF0E406E740E3F6E33EC0EF0B9D0FF0E08
:10035800406ED00E3F6E33EC0EF0B2D0FF0E406E02
:100368008C0E3F6E33EC0EF0ABD0FF0E406ECC0E11
:100378003F6E33EC0EF0A4D0FF0E406E880E3F6E39
:1003880033EC0EF09DD0FF0E406E840E3F6E33ECC2
:100398000EF096D0FF0E406EC80E3F6E33EC0EF096
:1003A8008FD0FF0E406E800E3F6E33EC0EF088D07B
:1003B800FF0E406EC40E3F6E33EC0EF081D0FF0E80
:1003C800406E7C0E3F6E33EC0EF07AD0FF0E406E1E
:1003D800700E3F6E33EC0EF073D0FF0E406EF80EC9
:1003E8003F6E33EC0EF06CD00001D3510A0AD8B43A
:1003F800FFD6050AD8B403D71B0AD8B407D70D0A05
:10040800D8B40BD7070AD8B40FD73D0AD8B413D736
:100418000B0AD8B417D7050AD8B41BD71F0AD8B403
:100428001FD7050AD8B423D70B0AD8B427D77D0A13
:10043800D8B42BD7070AD8B42FD70D0AD8B433D7D6
:100448001B0AD8B437D7050AD8B43BD70F0AD8B493
:100458003FD7050AD8B443D73B0AD8B447D70D0AC3
:10046800D8B44BD7070AD8B44FD71D0AD8B453D736
:100478000E0AD8B457D7FA0AD8B45BD70B0AD8B43F
:100488005FD71A0AD8B463D7360AD8B467D70A0A26
:10049800D8B46BD71E0AD8B46FD70A0AD8B473D7A2
:1004A800760AD8B477D71A0AD8B47BD70E0AD8B444
:1004B8007FD72C0AD8B483D70F0AD8B487D78DD75B
:1004C800010E3F6E000E4EEC0FF0FE0E406E4C0E0D
:1004D8003F6E33EC0EF0FF0E3E6E440E3D6EE5ECC3
:1004E80010F0000E3E6E050E3D6E0001D3C03BF0CD
:1004F8003C6A3CEC0CF0D8903B363C36FE0E3B2474
:100508000001D16FFF0E3C200001D26FD1C03BF03B
:10051800D2C03CF0000E3E6E640E3D6E3CEC0CF01A
:100528003B50300F38EC10F0000E3E6E050E3D6E5D
:100538000001D3C03BF03C6A3CEC0CF0D8903B3651
:100548003C36FE0E3B240001D16FFF0E3C2000011B
:10055800D26F000E3E6E0A0E3D6ED1C03BF0D2C087
:100568003CF03CEC0CF03BC0CDF03CC0CEF0000EB3
:100578000001D06F0A0E0001CF6F9BEC0CF0000158
:10058800CD51300F38EC10F0000E3E6E050E3D6E6A
:100598000001D3C03BF03C6A3CEC0CF0D8903B36F1
:1005A8003C36FE0E3B240001CD6FFF0E3C200001BF
:1005B800CE6F000E0001D06F0A0E0001CF6F9BECCA
:1005C8000CF00001CD51300F38EC10F0FE0E3E6EED
:1005D8009F0E3D6EE5EC10F0FCD0FF0E3E6EF40E63
:1005E8003D6EE5EC10F01200FF0E3E6EB80E3D6E4B
:1005F800E5EC10F01200FF0E3E6EF00E3D6EE5ECDD
:1006080010F01200FF0E3E6EEC0E3D6EE5EC10F0A1
:100618001200FF0E3E6EBC0E3D6EE5EC10F01200AF
:10062800FF0E3E6EA80E3D6EE5EC10F01200FF0EB8
:100638003E6EB40E3D6EE5EC10F01200FF0E3E6EFD
:10064800B00E3D6EE5EC10F01200FF0E3E6EE80EA7
:100658003D6EE5EC10F01200FF0E3E6EAC0E3D6EE6
:10066800E5EC10F01200FF0E3E6EFC0E3D6EE5EC60
:1006780010F01200FF0E3E6ED40E3D6EE5EC10F049
:100688001200FF0E3E6E900E3D6EE5EC10F012006B
:10069800FF0E3E6EE40E3D6EE5EC10F01200FF0E0C
:1006A8003E6EA40E3D6EE5EC10F01200FF0E3E6E9D
:1006B800E00E3D6EE5EC10F01200FF0E3E6EA00E4F
:1006C8003D6EE5EC10F01200FF0E3E6E9C0E3D6E86
:1006D800E5EC10F01200FF0E3E6EDC0E3D6EE5EC10
:1006E80010F01200FF0E3E6E980E3D6EE5EC10F015
:1006F8001200FF0E3E6ED80E3D6EE5EC10F01200B3
:10070800FF0E3E6E940E3D6EE5EC10F01200FF0EEB
:100718003E6E780E3D6EE5EC10F01200FF0E3E6E58
:10072800C00E3D6EE5EC10F01200FF0E3E6E740E2A
:100738003D6EE5EC10F01200FF0E3E6ED00E3D6EE1
:10074800E5EC10F01200FF0E3E6E8C0E3D6EE5ECEF
:1007580010F01200FF0E3E6ECC0E3D6EE5EC10F070
:100768001200FF0E3E6E880E3D6EE5EC10F0120092
:10077800FF0E3E6E840E3D6EE5EC10F01200FF0E8B
:100788003E6EC80E3D6EE5EC10F01200FF0E3E6E98
:10079800800E3D6EE5EC10F01200FF0E3E6EC40EAA
:1007A8003D6EE5EC10F01200FF0E3E6E7C0E3D6EC5
:1007B800E5EC10F01200FF0E3E6E700E3D6EE5EC9B
:1007C80010F01200FF0E3E6EF80E3D6EE5EC10F0D4
:1007D80012000001D3510A0AD8B4FFD6050AD8B4CA
:1007E80003D71B0AD8B407D70D0AD8B40BD7070A02
:1007F800D8B40FD73D0AD8B413D70B0AD8B417D733
:10080800050AD8B41BD71F0AD8B41FD7050AD8B40D
:1008180023D70B0AD8B427D77D0AD8B42BD7070A11
:10082800D8B42FD70D0AD8B433D71B0AD8B437D7C2
:10083800050AD8B43BD70F0AD8B43FD7050AD8B4AD
:1008480043D73B0AD8B447D70D0AD8B44BD7070AC1
:10085800D8B44FD71D0AD8B453D70E0AD8B457D72F
:10086800FA0AD8B45BD70B0AD8B45FD71A0AD8B437
:1008780063D7360AD8B467D70A0AD8B46BD71E0A22
:10088800D8B46FD70A0AD8B473D7760AD8B477D74A
:100898001A0AD8B47BD70E0AD8B47FD72C0AD8B492
:1008A80083D70F0AD8B487D78DD7010EB0EC10F0D4
:1008B800000E3F6E000E4EEC0FF0FF0E406E290E3C
:1008C8003F6E33EC0EF003C03BF03C6A000E3E6E08
:1008D8000A0E3D6E3CEC0CF03B50300F8AEC11F0E8
:1008E800000103C0CDF00001CE6B000E0001D06FF7
:1008F8000A0E0001CF6F9BEC0CF00001CD51300FB8
:100908008AEC11F03A0E8AEC11F002C03BF03C6A16
:10091800000E3E6E0A0E3D6E3CEC0CF03B50300F64
:100928008AEC11F0000102C0CDF00001CE6B000E80
:100938000001D06F0A0E0001CF6F9BEC0CF0000194
:10094800CD51300F8AEC11F03A0E8AEC11F001C04B
:100958003BF03C6A000E3E6E0A0E3D6E3CEC0CF01D
:100968003B50300F8AEC11F0000101C0CDF00001BE
:10097800CE6B000E0001D06F0A0E0001CF6F9BEC0A
:100988000CF00001CD51300F8AEC11F0010E3F6ED2
:10099800000E4EEC0FF0FE0E406E7F0E3F6E33ECF5
:1009A8000EF00001B7A1AED00001B791000E1B6E8A
:1009B800000E3F6E000E4EEC0FF003C03BF03C6A99
:1009C800000E3E6E0A0E3D6E3CEC0CF03B50300FB4
:1009D8008AEC11F0000103C0CDF00001CE6B000ECF
:1009E8000001D06F0A0E0001CF6F9BEC0CF00001E4
:1009F800CD51300F8AEC11F03A0E8AEC11F002C09A
:100A08003BF03C6A000E3E6E0A0E3D6E3CEC0CF06C
:100A18003B50300F8AEC11F0000102C0CDF000010C
:100A2800CE6B000E0001D06F0A0E0001CF6F9BEC59
:100A38000CF00001CD51300F8AEC11F03A0E8AEC1F
:100A480011F001C03BF03C6A000E3E6E0A0E3D6E8E
:100A58003CEC0CF03B50300F8AEC11F0000101C067
:100A6800CDF00001CE6B000E0001D06F0A0E000120
:100A7800CF6F9BEC0CF00001CD51300F8AEC11F0D8
:100A8800FF0E406E3B0E3F6E33EC0EF0010E3F6ED4
:100A9800000E4EEC0FF0FF0E406E6C0E3F6E33EC06
:100AA8000EF01B6607D02B0E8AEC11F02B0E8AEC89
:100AB80011F009D01B04D8A406D02D0E8AEC11F031
:100AC8002D0E8AEC11F0FE0E406EE50E3F6E33ECF3
:100AD8000EF00001B7A10DD00001B7911B6603D03D
:100AE800A9EC12F065D71B04D8A462D7B3EC12F0B6
:100AF8005FD70001B7A35CD70001B7931B6612004C
:100B0800010E55D70001B7A3D3D60001B793000E45
:100B18001B6E000E3F6E000E4EEC0FF003C03BF054
:100B28003C6A000E3E6E0A0E3D6E3CEC0CF03B50EB
:100B3800300F8AEC11F0000103C0CDF00001CE6B3C
:100B4800000E0001D06F0A0E0001CF6F9BEC0CF075
:100B58000001CD51300F8AEC11F03A0E8AEC11F0F9
:100B680002C03BF03C6A000E3E6E0A0E3D6E3CEC45
:100B78000CF03B50300F8AEC11F0000102C0CDF0B0
:100B88000001CE6B000E0001D06F0A0E0001CF6F7E
:100B98009BEC0CF00001CD51300F8AEC11F03A0EAD
:100BA8008AEC11F001C03BF03C6A000E3E6E0A0E62
:100BB8003D6E3CEC0CF03B50300F8AEC11F000011C
:100BC80001C0CDF00001CE6B000E0001D06F0A0EFF
:100BD8000001CF6F9BEC0CF00001CD51300F8AEC77
:100BE80011F0FF0E406E320E3F6E33EC0EF0010E28
:100BF8003F6E000E4EEC0FF0FF0E406E6C0E3F6E17
:100C080033EC0EF01B6607D02B0E8AEC11F02B0E7E
:100C18008AEC11F009D01B04D8A406D02D0E8AEC5A
:100C280011F02D0E8AEC11F0FE0E406EE50E3F6EAF
:100C380033EC0EF00001B7A10DD00001B7911B668F
:100C480003D030EC12F065D71B04D8A462D741EC6E
:100C580012F05FD70001B7A35CD70001B7931B66FA
:100C68001200010E55D7D5C0D9F0D6C0DAF0000E63
:100C78000001CC6F0A0E0001CB6FD5C03BF0D6C087
:100C88003CF0000E3E6E310E3D6E0AEC12F03BC099
:100C9800C9F03CC0CAF08CEC0DF00001C9C0D7F017
:100CA8000001CAC0D8F0D7C0C9F0D8C0CAF0000E39
:100CB8000001CC6F0A0E0001CB6F8CEC0DF0000127
:100CC800C9C0D5F00001CAC0D6F0000E3F6E000EB4
:100CD8004EEC0FF0FF0E406E160E3F6E33EC0EF02A
:100CE800D5C0C9F0D6C0CAF0000E0001CC6F640EA2
:100CF8000001CB6F8CEC0DF00001C951300F8AEC6C
:100D080011F02E0E8AEC11F0000E0001CC6F0A0EC5
:100D18000001CB6FD5C0C9F0D6C0CAF08CEC0DF07D
:100D28000001C9C0D0F00001CAC0D1F0000E000116
:100D3800D36F0A0E0001D26F65EC0EF00001D0519E
:100D4800300F8AEC11F0D5C0D0F0D6C0D1F0000E2B
:100D58000001D36F0A0E0001D26F65EC0EF000019E
:100D6800D051300F8AEC11F0FF0E406E610E3F6ECD
:100D780033EC0EF0010E3F6E000E4EEC0FF05B0EE2
:100D88008AEC11F0D9C0C9F0DAC0CAF0030E00012C
:100D9800CC6FE80E0001CB6F8CEC0DF00001C9514F
:100DA800300F8AEC11F0000E0001CC6F640E0001C8
:100DB800CB6FD9C0C9F0DAC0CAF08CEC0DF00001D5
:100DC800C9C0D0F00001CAC0D1F0000E0001D36F35
:100DD8000A0E0001D26F65EC0EF00001D051300F01
:100DE8008AEC11F0000E0001CC6F0A0E0001CB6FE7
:100DF800D9C0C9F0DAC0CAF08CEC0DF00001C9C046
:100E0800D0F00001CAC0D1F0000E0001D36F0A0E65
:100E18000001D26F65EC0EF00001D051300F8AEC62
:100E280011F0D9C0D0F0DAC0D1F0000E0001D36FB4
:100E38000A0E0001D26F65EC0EF00001D051300FA0
:100E48008AEC11F0FE0E406EFD0E3F6E33EC0EF094
:100E5800FF0E3E6E140E3D6EE5EC10F0D5C0C9F0E5
:100E6800D6C0CAF0000E0001CC6F640E0001CB6F33
:100E78008CEC0DF00001C951300F38EC10F02E0E3B
:100E880038EC10F0000E0001CC6F0A0E0001CB6F99
:100E9800D5C0C9F0D6C0CAF08CEC0DF00001C9C0AD
:100EA800D0F00001CAC0D1F0000E0001D36F0A0EC5
:100EB8000001D26F65EC0EF00001D051300F38EC14
:100EC80010F0D5C0D0F0D6C0D1F0000E0001D36F1D
:100ED8000A0E0001D26F65EC0EF00001D051300F00
:100EE80038EC10F0FE0E3E6E5D0E3D6EE5EC10F037
:100EF8005B0E38EC10F0D9C0C9F0DAC0CAF0030EA6
:100F08000001CC6FE80E0001CB6F8CEC0DF00001F6
:100F1800C951300F38EC10F0000E0001CC6F640E90
:100F28000001CB6FD9C0C9F0DAC0CAF08CEC0DF063
:100F38000001C9C0D0F00001CAC0D1F0000E000104
:100F4800D36F0A0E0001D26F65EC0EF00001D0518C
:100F5800300F38EC10F0000E0001CC6F0A0E0001C3
:100F6800CB6FD9C0C9F0DAC0CAF08CEC0DF0000123
:100F7800C9C0D0F00001CAC0D1F0000E0001D36F83
:100F88000A0E0001D26F65EC0EF00001D051300F4F
:100F980038EC10F0D9C0D0F0DAC0D1F0000E000162
:100FA800D36F0A0E0001D26F65EC0EF00001D0512C
:100FB800300F38EC10F05D0E38EC10F01200000124
:100FC800D26F7F0E0001D26504D00001D26D010EF0
:100FD80001D0000E0001D36F0001D105D8A44AD07A
:100FE8000001D36712D00001D251090DF3CF3BF0B5
:100FF800F4CF3CF0000E3E6E050E3D6E3CEC0CF05E
:101008003B50200F0001D26F35D00001D305D8A482
:1010180031D0120E0001D25DD8B018D00001D251E3
:10102800090DF3CF3BF0F4CF3CF0000E3E6E050EF9
:101038003D6E3CEC0CF03B500001D26F0001D251E8
:101048000008200F0001D26F000E12D00001D2510B
:10105800090DF3CF3BF0F4CF3CF0000E3E6E050EC9
:101068003D6E3CEC0CF03B50E00F0001D26F010EDE
:101078000001D36F000E3F6E000E4EEC0FF0FF0E16
:10108800406E210E3F6E33EC0EF00001D305D8A45C
:1010980004D02D0E8AEC11F020D00001D2C03BF014
:1010A8003C6A000E3E6E640E3D6E3CEC0CF03C500B
:1010B8003B10D8A404D0200E8AEC11F00ED0000109
:1010C800D2C03BF03C6A000E3E6E640E3D6E3CECB6
:1010D8000CF03B50300F8AEC11F00001D2C03BF00D
:1010E8003C6A000E3E6E0A0E3D6E3CEC0CF03B5026
:1010F800300F8AEC11F00001D2C0CDF00001CE6BA8
:10110800000E0001D06F0A0E0001CF6F9BEC0CF0AF
:101118000001CD51300F8AEC11F0DF0E8AEC11F08E
:101128000001D105D8A407D0FF0E406E530E3F6EC4
:1011380033EC0EF009D00001D16706D0FF0E406EE7
:101148004C0E3F6E33EC0EF0010E3F6E000E4EEC6F
:101158000FF00001D105D8A407D0FE0E406E190E7D
:101168003F6E33EC0EF009D00001D16706D0FE0EB9
:10117800406E2A0E3F6E33EC0EF0FF0E3E6E1F0ED1
:101188003D6EE5EC10F00001D305D8A404D02D0E77
:1011980038EC10F020D00001D2C03BF03C6A000EC1
:1011A8003E6E640E3D6E3CEC0CF03C503B10D8A4F7
:1011B80004D0200E38EC10F00ED00001D2C03BF065
:1011C8003C6A000E3E6E640E3D6E3CEC0CF03B50EB
:1011D800300F38EC10F00001D2C03BF03C6A000E32
:1011E8003E6E0A0E3D6E3CEC0CF03B50300F38EC76
:1011F80010F00001D2C0CDF00001CE6B000E00014E
:10120800D06F0A0E0001CF6F9BEC0CF00001CD519E
:10121800300F38EC10F0F80E38EC10F00001D10562
:10122800D8A407D0FF0E3E6E530E3D6EE5EC10F0CD
:1012380012000001D1671200FF0E3E6E4C0E3D6E8B
:10124800E5EC10F012009E96C6AE1CD1C69E000EAC
:10125800196E20EE03F00A50D9260B50DA22DECFA1
:1012680024F0DDCF25F024C0D9FF25C0DAFF010E18
:10127800DF6E000E0B6E000E0A6E12000001E1B365
:1012880012000001E0C00BF00001DFC00AF0DFC06F
:10129800D9FFE0C0DAFFDF501A6E000120EE01F03E
:1012A8000001DF51D9260001E051DA22DECF0CF02F
:1012B800DDCF0DF0050E0001DF27000E0001E02351
:1012C800B70E246E000E256E000120EEDFF0DE5210
:1012D8002550DD1824C0E8FFD8B4DF18D8A408D0FA
:1012E8000001000E0001E06F0001B20E0001DF6F87
:1012F8000001E191000120EEDFF00001DE52000163
:10130800DE51DD180001DDC0E8FFD8B4DF18D8A42D
:1013180002D00001E183C580020E196E1200C58259
:10132800020E196E1200C5AC06D00001E32B040EA4
:1013380057EC10F01200D8902030256E1F30246E24
:101348002450C96E1FA003D00B0E196E1200030E95
:10135800196E1200C5AC06D00001E32B040E57EC41
:1013680010F01200C58220C024F024C025F0266A9F
:10137800060E2516000E2616F00E25101F6E265096
:10138800206E1F80010E0E6E020E196E12000E04E2
:10139800D8B41AD00CC0D9FF0DC0DAFFDECF1FF0C9
:1013A800DDCF20F020EE03F00C50D9260D50DA22C4
:1013B800DECF08F0DDCF09F020EE02F00C50D92680
:1013C8000D50DA22DF500F6E1FC0C9FF1FA003D0D7
:1013D800050E196E1200030E196E1200C5AC07D067
:1013E8000001E32BC59C050E57EC10F012000F0608
:1013F8000F28D8A40ED0050E0C26000E0D221A2E8A
:1014080004D0000E57EC10F01200C582020E196EBF
:10141800120008C0D9FF09C0DAFFDF50C96E084AB8
:10142800092A1200C5AC07D00001E32B040E57ECC3
:1014380010F0C59C1200C586080E196E1200080E21
:10144800196EC586120008C0D9FF09C0DAFFC9CFD6
:10145800DFFF084A092A010E0F5ED8B404D0C59AE6
:10146800060E196E03D0C58A87EC12F0C5881200E3
:10147800000E57EC10F012000001E32B060E57EC9B
:1014880010F012001950000AD8B4F8D6010AD8B4DE
:1014980046D7030AD8B47BD7010AD8B49FD7070A1E
:1014A800D8B4E6D7010AD8B4BDD7030AD8B4C7D789
:1014B800010AD8B4DDD70F0AD8B4C5D7020AD8B400
:1014C80032D7010AD8B446D7D7D7000E3F6E000EE0
:1014D8004EEC0FF0FF0E406E5A0E3F6E33EC0EF0DE
:1014E80003C03BF03C6A000E3E6E0A0E3D6E3CECBB
:1014F8000CF03B50300F8AEC11F0000103C0CDF026
:101508000001CE6B000E0001D06F0A0E0001CF6FF4
:101518009BEC0CF00001CD51300F8AEC11F03A0E23
:101528008AEC11F002C03BF03C6A000E3E6E0A0ED7
:101538003D6E3CEC0CF03B50300F8AEC11F0000192
:1015480002C0CDF00001CE6B000E0001D06F0A0E74
:101558000001CF6F9BEC0CF00001CD51300F8AECED
:1015680011F03A0E8AEC11F001C03BF03C6A000E13
:101578003E6E0A0E3D6E3CEC0CF03B50300F8AEC90
:1015880011F0000101C0CDF00001CE6B000E00018A
:10159800D06F0A0E0001CF6F9BEC0CF00001CD510B
:1015A800300F8AEC11F0010E3F6E000E4EEC0FF07A
:1015B800FE0E406E3B0E3F6E33EC0EF01C50D8B45E
:1015C8001200FE0E3E6E8F0E3D6EE5EC10F003C06D
:1015D8003BF03C6A000E3E6E0A0E3D6E3CEC0CF091
:1015E8003B50300F38EC10F0000103C0CDF0000183
:1015F800CE6B000E0001D06F0A0E0001CF6F9BEC7E
:101608000CF00001CD51300F38EC10F03A0E38ECE8
:1016180010F002C03BF03C6A000E3E6E0A0E3D6EB2
:101628003CEC0CF03B50300F38EC10F0000102C0DD
:10163800CDF00001CE6B000E0001D06F0A0E000144
:10164800CF6F9BEC0CF00001CD51300F38EC10F04F
:101658003A0E38EC10F001C03BF03C6A000E3E6ECA
:101668000A0E3D6E3CEC0CF03B50300F38EC10F09D
:10167800000101C0CDF00001CE6B000E0001D06F5B
:101688000A0E0001CF6F9BEC0CF00001CD51300F1A
:1016980038EC10F0000E1C6E1200000E0001D76F1F
:1016A800000E0001D86F000E0001D96F45EC11F053
:1016B8000001B7A106D00001B791010EB0EC10F0FF
:1016C80012000001B7A3F4D70001B7930001000E80
:1016D8000001D16F0001B90E0001D06F010E0001A9
:1016E800D26FE4C0D3F0E5C0D4F00001000E0001D1
:1016F800D66F0001B80E0001D56F95EC0EF0000111
:10170800B851020AD8B4FBD70001000E0001D16F0E
:101718000001BA0E0001D06F010E0001D26FE4C0C3
:10172800D3F0E5C0D4F00001000E0001D66F00012F
:10173800B80E0001D56FC5EC0EF00001B851020AD1
:10174800D8B4FBD7BAC0D7F0D8C0D1F00001D75170
:10175800E3EC07F00001B7A306D00001B793010E30
:10176800B0EC10F015D00001B7A1B0D70001B791C7
:101778000001D905D8A405D0000E0001D96F010ECB
:1017880004D0010E0001D96F000E0001D86F9ED75A
:10179800010EB0EC10F012000001C96F0001E1B1B8
:1017A80056D03DC0D9FF3EC0DAFF020EDF6E000101
:1017B80020EE01F00001DD51D9260001DE51DA22C8
:1017C8003BC0DEFF3CC0DDFFDDC0D9FFDEC0DAFF75
:1017D8000001C9C0DFFF000120EE03F00001DD5168
:1017E800D9260001DE51DA223DC0DEFF3EC0DDFF12
:1017F800050E0001DD27000E0001DE23B70E3F6E47
:10180800000E406E40500001DE1903E13F50000118
:10181800DD19D8A408D00001000E0001DE6F000118
:10182800B20E0001DD6F0001E193000120EEDFF050
:101838000001DE520001DE51DD180001DDC0E8FFC5
:10184800D8B4DF18D8A409D00001E18106D03DC082
:10185800D9FF3EC0DAFF010EDF6E020E3DC0D9FF90
:101868003EC0DAFFDF6212001966FED79E861200BC
:10187800000E0001CA6F3E50800AF36E800EF35CC2
:10188800000ED8B43D5CD8B007D03D6C3E1ED8B031
:101898003E2A010E0001CA6F3C50800AF36E800E8A
:1018A800F35C000ED8B43B5CD8B007D03B6C3C1E50
:1018B800D8B03C2A010E0001CA1B000E0001CC6FF3
:1018C800000E0001CB6F3E503D10D8B421D0010E60
:1018D8000001C96F05D0D8903D363E360001C92BAE
:1018E8003EAEF9D70001D890CB37CC373D503B5CA2
:1018F8003E503C58D8A006D03D503B5E3E503C5A26
:101908000001CB81D8903E323D320001C92FEAD781
:101918000001CA51D8B406D00001CB6D0001CC1F1C
:10192800D8B0CC2BCBC03BF0CCC03CF01200000EA2
:10193800406E0001CE51800AF36E800EF35C000EFB
:10194800D8B4CD5DD8B008D00001CD6D0001CE1F50
:10195800D8B0CE2B010E406E0001D051800AF36E34
:10196800800EF35C000ED8B4CF5DD8B006D000016D
:10197800CF6D0001D01FD8B0D02B0001D051CF11AE
:10198800D8B423D0010E3F6E05D00001D890CF37D0
:10199800D0373F2A0001D0AFF8D70001CF5100015E
:1019A800CD5D0001D0510001CE59D8A008D000016A
:1019B800CF510001CD5F0001D0510001CE5B000185
:1019C800D890D033CF333F2EE8D74050D8B406D084
:1019D8000001CD6D0001CE1FD8B0CE2BCDC0CDF00B
:1019E800CEC0CEF01200109E109C109A109810963F
:1019F80010A602D0108401D0109410A402D0108236
:101A080001D0109210A202D0108001D0109010A026
:101A180003D00001B78F02D00001B79F0001B7AF14
:101A280003D00001B78D02D00001B79D0001B7AD0A
:101A380003D00001B78B02D00001B79B0001B7AB00
:101A480003D00001B78902D00001B7990001B7A9F6
:101A580003D00001B78702D00001B7970001B7A7EC
:101A680003D00001B78502D00001B7950001B7A5E2
:101A780003D00001B78302D00001B7930001B7A3D8
:101A880003D00001B78102D00001B791120073ECB6
:101A980011F00001B7A106D00001B791010EB0EC1A
:101AA80010F012000001B7A3F4D70001B793010E9C
:101AB8000001D46F44C03BF00001D4515FEC12F038
:101AC800445070EC00F00001B7A308D0EDEC12F020
:101AD8000001B793010EB0EC10F016D00001B7A1C9
:101AE800E6D70001B791FA0E446401D004D0050E80
:101AF800445CD8B003D0050E446ED9D7050E4426F1
:101B0800010EB0EC10F0D3D7010EB0EC10F01200BB
:101B1800000E0001CF6F000E0001CE6F0001CC5106
:101B2800CB11D8B42CD0010E0001CD6F06D0000126
:101B3800D890CB37CC370001CD2B0001CCAFF7D7ED
:101B48000001D890CE37CF370001CB510001C95DD5
:101B58000001CC510001CA59D8A00AD00001CB51CC
:101B68000001C95F0001CC510001CA5B0001CE81B0
:101B78000001D890CC33CB330001CD2FE1D7CEC0B4
:101B8800C9F0CFC0CAF01200EACFBEF0E1CFBFF073
:101B9800E2CFC0F0D9CFC1F0DACFC2F0F3CFC3F0B3
:101BA800F4CFC4F0F6CFC5F0F7CFC6F0F8CFC7F042
:101BB800F5CFC8F09DB09EA002D07AEC12F0C8C054
:101BC800F5FFC7C0F8FFC6C0F7FFC5C0F6FFC4C021
:101BD800F4FFC3C0F3FFC2C0DAFFC1C0D9FFC0C061
:101BE800E2FFBFC0E1FFBEC0EAFFBDC0E9FFBCC065
:101BF800FBFFBBC0FAFF11000001CEC03BF00001A3
:101C0800CFC03CF0D8903B363C36C9C0D9FFCAC0DB
:101C1800DAFF3BC0DEFF3CC0DDFFC9C0D9FFCAC048
:101C2800DAFF000EDB80000120EE02F00001C9514E
:101C3800D9260001CA51DA220001CDC0DFFF000118
:101C480020EE03F00001C951D9260001CA51DA2259
:101C58000001CBC0DEFF0001CCC0DDFF1200000E8A
:101C68000001CB6F17D00001CB51010D3FC0C9F067
:101C780040C0CAF0F3500001C927F4500001CA233C
:101C8800C9C0F6FFCAC0F7FF0800F5508AEC11F08A
:101C98000001CB2B0001CB51010D3FC0C9F040C062
:101CA800CAF0F3500001C927F4500001CA23C9C083
:101CB800F6FFCAC0F7FF0800F5500009D8B41200B3
:101CC800D2D70001D351D211D8B426D0010E0001C9
:101CD800D46F06D00001D890D237D3370001D42B67
:101CE8000001D3AFF7D70001D2510001D05D000148
:101CF800D3510001D159D8A008D00001D251000118
:101D0800D05F0001D3510001D15B0001D890D333DB
:101D1800D2330001D42FE7D7D0C0D0F0D1C0D1F052
:101D280012000001E1B126D00001000E0001CA6FC7
:101D38000001AD0E0001C96F0001D1C0CCF0000157
:101D4800D0C0CBF0D2C0CDF0D3C0CEF0D4C0CFF04D
:101D5800F5EC0EF00001000E3C6E0001AD0E3B6E7E
:101D68000001D6C03EF00001D5C03DF0010ED0EC18
:101D78000BF01200D5C0D9FFD6C0DAFF010EDF6E16
:101D880012000001E1B126D00001000E0001CA6F67
:101D98000001A80E0001C96F0001D1C0CCF00001FC
:101DA800D0C0CBF0D2C0CDF0D3C0CEF0D4C0CFF0ED
:101DB80000EC0EF00001000E3C6E0001A80E3B6E18
:101DC8000001D6C03EF00001D5C03DF0010ED0ECB8
:101DD8000BF01200D5C0D9FFD6C0DAFF010EDF6EB6
:101DE80012000001CEC03BF00001CFC03CF0D890FB
:101DF8003B363C36C9C0D9FFCAC0DAFF3BC0DEFF5C
:101E08003CC0DDFF000120EE02F00001C951D926D7
:101E18000001CA51DA220001CDC0DFFF000120EE27
:101E280003F00001C951D9260001CA51DA22000184
:101E3800CBC0DEFF0001CCC0DDFF12005CEC11F06E
:101E48000001B7A106D00001B791010EB0EC10F067
:101E580012000001B7A3F4D70001B793F3EC12F016
:101E680069EC0AF00001B7A306D00001B793010E90
:101E7800B0EC10F00BD00001B7A1F2D70001B79178
:101E880059EC04F0010EB0EC10F0EAD7010EB0ECFA
:101E980010F012000001CD6F020E3F5CD8B01200A6
:101EA8000F0E0001CD6501D012003F04D8B402D056
:101EB800800E01D0C00E0001CDC0C9F00001CA6B70
:101EC8000001C9110001CB6F0001CA510001CC6F9C
:101ED8000001CB51B0EC10F0070E0001C96F7D0E68
:101EE800E82EFED7C92FFCD700F0120000EE60F0F4
:101EF8005B0EEE6AE806FDE100EE01F0200EEE6AE8
:101F0800E806FDE1F00EF66E250EF76E000EF86E8F
:101F18000900F5CFE4F00900F5CFE5F0EE0EF66E16
:101F2800250EF76E000EF86E0900F5CF44F0090093
:101F3800F5CF45F0000EF86E0001F7EF11F02EEC2A
:101F480011F00001B7A106D00001B791010EB0EC65
:101F580010F012000001B7A3F4D70001B793000EE8
:101F6800FEEC10F03BC0DBF03CC0DCF0DBC0D5F091
:101F7800DCC0D6F037EC06F00001B7A3F0D70001BB
:101F8800B793010EB0EC10F0010EB0EC10F0120097
:101F9800000E896E9268010E0F01386F000E8A6E6E
:101FA800010E936E000E0F01396F000E616E180E50
:101FB8008B6EFB0E946E000E0F013A6F000E8C6E46
:101FC800000E956E000E0F013B6F000E8D6E070E12
:101FD800966E000E0F013C6FF18E120080B80CD087
:101FE8001250D8B405D0122E0AD00001B78106D0FD
:101FF800020E126E108003D0000E126E109081B087
:102008000DD01350D8B406D0132E12000001B78398
:1020180010921200020E136E10821200000E136E40
:10202800109212000001000E0001E06F0001B20ED4
:102038000001DF6F0001000E0001DE6F0001B20E2B
:102048000001DD6F0001E1830001E191000E000154
:10205800E36F000EC76E280EC66E000ECB6E090E1B
:10206800C86E9E969D8612003B6E4350D8B4FDD72D
:102078009DB803D03BC0ADFF14D09D981750010DFB
:102088000001600EF324D96E0001000EF420DA6E10
:102098003BC0DFFF172A3F0E176402D0000E176EF1
:1020A80043069D881200236EC58420EE03F00A5073
:1020B800D9260B50DA22DE50DD10D8B410D020EE2D
:1020C80003F00A50D9260B50DA22DECF21F0DDCFFB
:1020D80022F021C0D9FF22C0DAFF23C0DFFF000EA3
:1020E800196E12009D9A9D98480EB86E800EAB6EC0
:1020F800260EAC6EA00EAF6E010EB06E000EAD6E69
:10210800000EAE6E000E176E000E186E400E436E77
:10211800000E156E000E166E000E146E9D8A1200CB
:10212800000E836E000E956E838E140E3F6E7A0E2F
:10213800E82EFED73F2EFCD7320EB0EC10F0280E5A
:10214800B0EC10F00C0EB0EC10F0010EB0EC10F08A
:10215800060EB0EC10F012003E6E070E3D6E7D0EBE
:10216800E82EFED73D2EFCD700F0000E3B6E3E5009
:10217800A1EC11F03E38F00B3E6EFA0E00F0E82E9E
:10218800FDD7000E3B6E3E50A1EC11F01200400E40
:10219800435CD8B014D01850010D0001600EF32430
:1021A800D96E0001000EF420DA6EDF50AD6E182AE9
:1021B8003F0E186402D0000E186E432A12009D9834
:1021C8001200000E0001CA6F3F0E0001C96F04D053
:1021D8000001CB51E8EC12F03DC0F6FF3EC0F7FF1E
:1021E8003D4A3E2A08000001F5CFCBF00001CB673D
:1021F800EFD712003F6E3FC03DF03D463D46C2500E
:102208003D18830B3D18C26EC280C282C2B2FED78F
:10221800C4503E6E3D6AC3503D243B6E000E3E20C6
:102228003C6E1200ABA202D0AB98AB881550010DE2
:102238000001A00EF324D96E0001000EF420DA6E1E
:10224800AECFDFFF152A070E156402D0000E156EFB
:10225800142A1200000E3F6E000E4EEC0FF0FE0E18
:10226800406ECB0E3F6E33EC0EF0010E3F6E000E4B
:102278004EEC0FF0FE0E406E6E0E3F6E33EC0EF01D
:102288001200000E3F6E000E4EEC0FF0FE0E406E78
:10229800BD0E3F6E33EC0EF0010E3F6E000E4EEC9D
:1022A8000FF0FE0E406E6E0E3F6E33EC0EF0120015
:1022B800000E3F6E000E4EEC0FF0FF0E406E090E42
:1022C8003F6E33EC0EF0010E3F6E000E4EEC0FF039
:1022D800FE0E406E6E0E3F6E33EC0EF01200000ED6
:1022E8003F6E000E4EEC0FF0FE0E406EF10E3F6E8C
:1022F80033EC0EF0010E3F6E000E4EEC0FF0FE0EAA
:10230800406E6E0E3F6E33EC0EF012003E6E070EFE
:102318003D6E7D0EE82EFED73D2EFCD700F0010E57
:102328003B6E3E50A1EC11F03E38F00B3E6E010EB4
:102338003B6E3E50A1EC11F012003C6E3C380F0B86
:102348003C6E3C500F0B3C6E8350F00B836E8350F9
:102358003C10836E3BB002D0839801D08388839A67
:10236800838C839C1200012A01503C0AD8A41200D5
:10237800000E016E022A02503C0AD8A41200000E78
:10238800026E032A0350180AD8A41200000E036E26
:102398001200010EB0EC10F0FE0E406ED80E3F6E2B
:1023A80033EC0EF0010E3F6E000E4EEC0FF0FE0EF9
:1023B800406EAE0E3F6E33EC0EF01200D5EC12F00C
:1023C800CCEC0FF0CDEC12F09EEC12F01DEC12F0FC
:1023D80093EC12F050EC12F016EC10F076EC10F0D2
:1023E8006DEC12F01200E2EC11F094EC10F0F7EC46
:1023F8000CF0F28EF28CC5EC12F0A3EC0FF04BEC63
:102408000DF051EC0BF022EC0FF0F7D73B503D02EA
:10241800F3CF3FF0F4CF40F03B503E02F35040265C
:102428003C503D02F35040263FC03BF040C03CF0DA
:1024380012003C0EBD6E000EB66E800EB76E010E19
:10244800B96E020EBE6E000EBF6E0F014951FC0B35
:1024580001090F01496F1200000E016E022A025095
:102468003C0AD8A41200000E026E032A0350180A70
:10247800D8A41200000E036E1200000E016E0206B0
:102488000228D8A412003B0E026E03060328D8A423
:102498001200170E036E1200880ECD6E000ECC6E61
:1024A800800ECF6E000ECE6ECECF41F0CFCF42F071
:1024B8009E909D8012003C6E3BC052FF45C0BEFFFF
:1024C800F0EC12F03C50D8B402D0949412009484EA
:1024D8001200D70ED56E000ED76E000ED66E000E07
:1024E8001D6EF294F28AF5EC12F012009E9042C032
:1024F80038F038C039F03A6A3950CF6E41C0CEFF53
:10250800DCEC12F01200050E0C26000E0D221A2E1D
:1025180003D0040E196E1200010E196E1200020E7D
:102528000F01516F050E0F01526F000E0F01536F0F
:102538007E901200010EC26E000EC16E870EC06E34
:10254800000EC36E000EC46E1200000E016E032A48
:102558000350180AD8A41200000E036E1200000ED1
:10256800016E03060328D8A41200170E036E12008A
:10257800F2941DC0D6FF1E50D8A41E06F2EC0FF030
:102588001200CDEC11F0E3EC12F0010EB0EC10F0FB
:102598001200D08E9F809F9A9F969F98F194A29642
:1025A8001200520ED36E040ED26E000E9B6E1200F5
:1025B800CF8EB7EC11F0010E1C6E9E901200320EF9
:1025C8001E6E1E66FED712003C6E3C5038EC10F0B2
:1025D80012000F01519512000F0151851200CD8094
:0C25E8001200D58E120005054D001200F7
:10FE1800005241343D5B435D205242303D45786994
:10FE280074005241343D5B465D205242303D457876
:10FE38006974005241343D536574205242303D4D3F
:10FE4800656E75005241343D2B3225205242303DBB
:10FE580045786974002056202020204144432043DF
:10FE68006F756E743A005241343D4E657874205275
:10FE780042303D4E6F770052423A5B4D494E5D200D
:10FE88002054494D4520000D0A53797374656D203F
:10FE980054696D65203A0020202020202020202051
:10FEA800204B65793A002050494344454D20322083
:10FEB800504C555300202054656D706572617475FF
:10FEC800726500202020566F6C746D657465720031
:10FED8002020204D6963726F6368697000202020BC
:10FEE8002052423A4E657874002020202020427526
:10FEF8007A7A6572005D205242303D2045786974F7
:10FF0800002020202020436C6F636B000D0A566F81
:10FF18006C7473203D20000A0D54656D70203D20DF
:10FF28000052413A5B48525D200020202A5B4D492F
:10FF38004E5D0020202A5B4852535D000D0A505741
:10FF48004D3A20005B435D202020005B465D202069
:10FF5800200054494D4520200020562020200050E4
:10FF6800574D3A0052413A004233200041342000B4
:10FF7800423420004334200044342000453420001B
:10FF88004634200047342000413520004335200006
:10FF980044352000453520004635200047352000EF
:10FFA80041362000443620004636200047362000DF
:10FFB80042372000433720004134230043342300D4
:10FFC80044342300463423004734230041352300BA
:10FFD80043352300443523004635230047352300A5
:10FFE800443623004437230046372300443823008F
:08FFF8002D2D2D004336000001
:020000040020DA
:08000000FFFFFFFFFFFFFFFF00
:020000040030CA
:0E000000FF480900FF8180FF0FC00FE00F4096
:00000001FF
