:0400000080314528DE
:1000060008007E14803120007F08FD008B1A0B1D2E
:10001600102893317823803140282100111C1A289A
:100026002000111C1A2893313C23803140282100DE
:10003600911D24282000911D24288B3123238031F3
:1000460040282100921D2E282000921D2E28803146
:100056000320803140282100911E38282000911E5F
:10006600382894312724803140282100111E402849
:100076002000111E40289431AE247D082000FF0088
:100086007E10090080314728F001F101F201F301E9
:10009600F401F501F601203084000030850021309E
:1000A600933125238031A0308400003085004C3008
:1000B600933125238031933115238031E900933123
:1000C60016238031EA00933117238031EB009331F8
:1000D6001823EC007E1020009431932C2000DD00C4
:1000E600C801003096311A2680314E302000C800F3
:1000F6009130C90096318426803105302000C70032
:100106000030C8005D08D700D8015708C900580854
:10011600CA0089319921803120004708D900480852
:10012600DA00D935DA0D5908FE3EDB00FF305A3DBC
:10013600DC006430C7000030C8005C08CA01CA078A
:100146005B08C901C9078931992180312000470818
:10015600303E96313D26803105302000C700003004
:10016600C8005D08D700D8015708C9005808CA005A
:1001760089319921803120004708D9004808DA00E2
:10018600D935DA0D5908FE3EDB00FF305A3DDC005A
:100196000A30D0000030D1000A30C7000030C80055
:1001A6005C08CA01CA075B08C901C90789319921D8
:1001B600803120004808D301D3074708D201D2076F
:1001C6008831BC20803120005008303E96313D26D3
:1001D60080310A302000D0000030D1000530C70041
:1001E6000030C8005D08D700D8015708C900580874
:1001F600CA0089319921803120004708D900480872
:10020600DA00D935DA0D5908FE3ED200FF305A3DE4
:10021600D3008831BC20803120005008303E963112
:100226003D268031253096313D2680318F302000A5
:10023600C8009030C900963184268031662ADB30AA
:100246002000C8009130C900963184268031D22A18
:100256009F302000C8009130C90096318426803135
:10026600D22AD7302000C8009130C90096318426A2
:100276008031D22AD3302000C8009130C90096318F
:1002860084268031D22AA3302000C8009130C900CC
:10029600963184268031D22A8F302000C8009130D2
:1002A600C900963184268031D22A9B302000C800AE
:1002B6009130C900963184268031D22A97302000A9
:1002C600C8009130C900963184268031D22ACF30B9
:1002D6002000C8009130C900963184268031D22A88
:1002E60093302000C8009130C900963184268031B1
:1002F600D22AE3302000C8009130C9009631842606
:100306008031D22ABB302000C8009130C900963116
:1003160084268031D22A77302000C8009130C90067
:10032600963184268031D22ACB302000C800913005
:10033600C900963184268031D22A8B302000C8002D
:100346009130C900963184268031D22AC7302000E8
:10035600C8009130C900963184268031D22A873070
:100366002000C8009130C900963184268031D22AF7
:1003760083302000C8009130C90096318426803130
:10038600D22AC3302000C8009130C9009631842695
:100396008031D22A7F302000C8009130C9009631C2
:1003A60084268031D22ABF302000C8009130C9008F
:1003B600963184268031D22A7B302000C8009130C5
:1003C600C900963184268031D22A5F302000C800C9
:1003D6009130C900963184268031D22AA730200078
:1003E600C8009130C900963184268031D22A5B300C
:1003F6002000C8009130C900963184268031D22A67
:10040600B7302000C8009130C9009631842680316B
:10041600D22A73302000C8009130C9009631842654
:100426008031D22AB3302000C8009130C9009631FD
:1004360084268031D22A6F302000C8009130C9004E
:10044600963184268031D22A6B302000C800913044
:10045600C900963184268031D22AAF302000C800E8
:100466009130C900963184268031D22A6730200027
:10047600C8009130C900963184268031D22AAB302B
:100486002000C8009130C900963184268031D22AD6
:1004960063302000C8009130C9009631842680312F
:1004A600D22A57302000C8009130C90096318426E0
:1004B6008031D22ADF302000C8009130C900963141
:1004C60084268031D22A20005D080A3A031922299F
:1004D600053A03192B291B3A031934290D3A031936
:1004E6003D29073A031946293D3A03194F290B3A84
:1004F60003195829053A031961291F3A03196A296C
:10050600053A031973290B3A03197C297D3A031915
:100516008529073A03198E290D3A031997291B3A9B
:100526000319A029053A0319A9290F3A0319B22973
:10053600053A0319BB293B3A0319C4290D3A031995
:10054600CD29073A0319D6291D3A0319DF290E3A90
:100556000319E829FA3A0319F1290B3A0319FA297A
:100566001A3A0319032A363A03190C2A0A3A0319C6
:10057600152A1E3A03191E2A0A3A0319272A763A19
:100586000319302A1A3A0319392A0E3A0319422A4C
:100596002C3A03194B2A0F3A0319542A5D2A2000D4
:1005A600C801C80A003096311A268031333020003F
:1005B600C8009030C9009631842680312B30200047
:1005C600C4009130C50095310525803105302000E5
:1005D600C7000030C8005D08D700D8015708C90019
:1005E6005808CA0089319921803120004708D9006E
:1005F6004808DA00D935DA0D5908FE3EDB00FF302F
:100606005A3DDC006430C7000030C8005C08CA01EF
:10061600CA075B08C901C9078931992180312000C1
:100626004708303E96316026803105302000C700ED
:100636000030C8005D08D700D8015708C90058081F
:10064600CA0089319921803120004708D90048081D
:10065600DA00D935DA0D5908FE3EDB00FF305A3D87
:10066600DC000A30D0000030D1000A30C70000306C
:10067600C8005C08CA01CA075B08C901C9078931F5
:100686009921803120004808D301D3074708D201B9
:10069600D2078831BC20803120005008303E963188
:1006A600602680310A302000D0000030D1000530AD
:1006B600C7000030C8005D08D700D8015708C90038
:1006C6005808CA0089319921803120004708D9008D
:1006D6004808DA00D935DA0D5908FE3ED200FF3057
:1006E6005A3DD3008831BC20803120005008303E6E
:1006F60096316026803186302000C4009030C500D7
:10070600953105258031A72CDB302000C4009130BF
:10071600C5009531052508009F302000C4009130A2
:10072600C500953105250800D7302000C40091305A
:10073600C500953105250800D3302000C40091304E
:10074600C500953105250800A3302000C40091306E
:10075600C5009531052508008F302000C400913072
:10076600C5009531052508009B302000C400913056
:10077600C50095310525080097302000C40091304A
:10078600C500953105250800CF302000C400913002
:10079600C50095310525080093302000C40091302E
:1007A600C500953105250800E3302000C4009130CE
:1007B600C500953105250800BB302000C4009130E6
:1007C600C50095310525080077302000C40091301A
:1007D600C500953105250800CB302000C4009130B6
:1007E600C5009531052508008B302000C4009130E6
:1007F600C500953105250800C7302000C40091309A
:10080600C50095310525080087302000C4009130C9
:10081600C50095310525080083302000C4009130BD
:10082600C500953105250800C3302000C40091306D
:10083600C5009531052508007F302000C4009130A1
:10084600C500953105250800BF302000C400913051
:10085600C5009531052508007B302000C400913085
:10086600C5009531052508005F302000C400913091
:10087600C500953105250800A7302000C400913039
:10088600C5009531052508005B302000C400913075
:10089600C500953105250800B7302000C400913009
:1008A600C50095310525080073302000C40091303D
:1008B600C500953105250800B3302000C4009130ED
:1008C600C5009531052508006F302000C400913021
:1008D600C5009531052508006B302000C400913015
:1008E600C500953105250800AF302000C4009130C1
:1008F600C50095310525080067302000C4009130F9
:10090600C500953105250800AB302000C4009130A4
:10091600C50095310525080063302000C4009130DC
:10092600C50095310525080057302000C4009130D8
:10093600C500953105250800DF302000C400913040
:10094600C50095310525080020005D080A3A0319FF
:10095600872B053A03198F2B1B3A0319972B0D3A50
:1009660003199F2B073A0319A72B3D3A0319AF2BFF
:100976000B3A0319B72B053A0319BF2B1F3A031974
:10098600C72B053A0319CF2B0B3A0319D72B7D3A00
:100996000319DF2B073A0319E72B0D3A0319EF2B3F
:1009A6001B3A0319F72B053A0319FF2B0F3A0319C4
:1009B600072C053A03190F2C3B3A0319172C0D3A4D
:1009C60003191F2C073A0319272C1D3A03192F2C3C
:1009D6000E3A0319372CFA3A03193F2C0B3A03192E
:1009E600472C1A3A03194F2C363A0319572C0A3A50
:1009F60003195F2C1E3A0319672C0A3A03196F2C48
:100A0600763A0319772C1A3A03197F2C0E3A0319F2
:100A1600872C2C3A03198F2C0F3A0319972C9F2CED
:100A2600080001309631FB268531FA2D3D10B401C0
:100A36002000C801003096311A2685310A30200080
:100A4600C7000030C8002208D700D8015708C900DF
:100A56005808CA0089319921853120004708303E5F
:100A660096313D2685310A302000D0000030D10075
:100A76002208D700D8015708D2005808D300883179
:100A8600BC20853120005008303E96313D26853108
:100A96003A3096313D2685310A302000C7000030B5
:100AA600C8002108D700D8015708C9005808CA004D
:100AB60089319921853120004708303E96313D26FF
:100AC60085310A302000D0000030D1002108D7003F
:100AD600D8015708D2005808D3008831BC20853188
:100AE60020005008303E96313D2685313A30963109
:100AF6003D2685310A302000C7000030C800200896
:100B0600D700D8015708C9005808CA008931992169
:100B1600853120004708303E96313D2685310A3022
:100B26002000D0000030D1002008D700D801570897
:100B3600D2005808D3008831BC20853120005008E7
:100B4600303E96313D26853122302000C800913056
:100B5600C9009631842685312000C801C80A0030B4
:100B660096311A26853153302000C8009130C900CD
:100B76009631842685312000B408031DC82D2B30FC
:100B860096313D2685312B30D22D20003408013A8E
:100B9600031DD52D2D3096313D2685312D309631CC
:100BA6003D268531CC302000C8009030C9009631F2
:100BB6008426853120003D1CF12D3D10B408031D0F
:100BC600E82D93316C2385311B2D20003408013A22
:100BD600031D1B2D9331852385311B2DBD1C1B2D1C
:100BE600BD10B408031D0800B401B40A1B2D200073
:100BF600C801003096311A26853110302000C80011
:100C06009130C9009631842685310A302000C7000C
:100C16000030C8002208D700D8015708C900580874
:100C2600CA0089319921853120004708303E963126
:100C36003D2685310A302000D0000030D100220840
:100C4600D700D8015708D2005808D3008831BC20F5
:100C5600853120005008303E96313D2685313A30A8
:100C660096313D2685310A302000C7000030C80085
:100C76002108D700D8015708C9005808CA00893189
:100C86009921853120004708303E96313D26853131
:100C96000A302000D0000030D1002108D700D8014A
:100CA6005708D2005808D3008831BC20853120006F
:100CB6005008303E96313D2685313A3096313D26F4
:100CC60085310A302000C7000030C8002008D70050
:100CD600D8015708C9005808CA00893199218531B9
:100CE60020004708303E96313D2685310A302000E7
:100CF600D0000030D1002008D700D8015708D20014
:100D06005808D3008831BC20853120005008303E79
:100D160096313D2685312000C801C80A003096313B
:100D26001A26853166302000C8009030C9009631F9
:100D36008426853120003D18192DBD1CFA2DBD10C5
:100D4600B4012000C801003096311A2685310A30D8
:100D56002000C7000030C8002208D700D801570875
:100D6600C9005808CA0089319921853120004708F1
:100D7600303E96313D2685310A302000D0000030C5
:100D8600D1002208D700D8015708D2005808D3004E
:100D96008831BC20853120005008303E96313D26F2
:100DA60085313A3096313D2685310A302000C7001C
:100DB6000030C8002108D700D8015708C9005808D4
:100DC600CA0089319921853120004708303E963185
:100DD6003D2685310A302000D0000030D1002108A0
:100DE600D700D8015708D2005808D3008831BC2054
:100DF600853120005008303E96313D2685313A3007
:100E060096313D2685310A302000C7000030C800E3
:100E16002008D700D8015708C9005808CA008931E8
:100E26009921853120004708303E96313D2685318F
:100E36000A302000D0000030D1002008D700D801A9
:100E46005708D2005808D3008831BC2085312000CD
:100E56005008303E96313D26853119302000C800B5
:100E66009130C9009631842685312000C801C80A10
:100E7600003096311A26853153302000C800913053
:100E8600C9009631842685312000B408031D512FF0
:100E96002B3096313D2685312B305B2F20003408D0
:100EA600013A031D5E2F2D3096313D2685312D30BA
:100EB60096313D268531CC302000C8009030C900DF
:100EC60096318426853120003D1C7A2F3D10B408CA
:100ED600031D712F9331B3238531A42E20003408CE
:100EE600013A031DA42E9331DE238531A42EBD1CA9
:100EF600A42EBD10B408031D0800B401B40AA42E24
:100F06002000DE01DF01E00195313F258731902F7A
:100F16003D1001309631FB26080020003D188B2F2E
:100F2600BD1C902FBD10A52F3D1CA52F3D106008A0
:100F3600013A031DA22FE001DF01DF0AA52FE00120
:100F4600E00ADF012000C801C80A6A08CA01CA0708
:100F56006908C901C9073E30DD005D08CB003F3096
:100F660097314E27873120003E08023A0319B62FE3
:100F7600C801C80A6A08CA01CA076908C901C907B7
:100F86003E30DD005D08CB004030973124278731A5
:100F960020003E08023A0319CB2F4008DD005D0809
:100FA600DE005F08DD005D08D7005E088C31652431
:100FB60087312000BD1C972FBD1001309631FB26CE
:100FC600873101309631FB2608008B31362B8B3169
:100FD600612B8B31B52B8B31DB2B8C314C2C8C312F
:100FE600102C8C31252C8C314C2C8C312C2C8C31AA
:100FF600502C8B31692B8B318C2B8830200098003C
:1010060099018030970096011708E701E70716084F
:10101600E601E607111021001114080095315C2540
:1010260088311A283D1001309631FB260800200031
:101036003D181528BD1C1A28BD1000309531D7253E
:10104600883120004208DC01DC074108DB01DB07B0
:101056005C08D601D6075B08D501D5078E310F2669
:1010660088312000BD1C2028BD1001309631FB269A
:10107600883101309631FB2608002000CC01CD01D5
:101086004808470403197028CE01CE0AC81B552804
:101096000130C735C80D890B4C280130CB004B08F1
:1010A600CE0749280130CC35CD0D890B5628480886
:1010B6004A02031D602847084902031C672847089F
:1010C600C9024808CA3B4C140130C836C70C890B04
:1010D60068280130CE02031D55284D08C801C807EF
:1010E6004C08C701C70708002000C4006318AB28D6
:1010F6000230C30042088600870143088100410888
:10110600C300610A86008701430881004408C300C2
:10111600610886008701430881004208C300610810
:10112600023E86008701430881000330C30043085E
:10113600E10761083D3A031DA4283A30C30043087D
:10114600E100E31062086106031DB0286314B028AD
:101156004208860087018101810A420886008701CC
:101166000108023A031D0800B208031DB7289115AD
:1011760008002000D601D31FC728D209D309D20AF6
:101186000319D30AD601D60AD11FCE28D009D10910
:10119600D00A0319D10A510850040319F528D501BC
:1011A600D50AD11BE0280130D035D10D890BD728BF
:1011B6000130D4005408D507D42851085302031D22
:1011C600E62850085202031CEC285008D2025108A7
:1011D600D33B0130D136D00C890BED280130D50236
:1011E600031DE02856080319FD28D209D309D20A9F
:1011F6000319D30A5308D101D1075208D001D007E9
:1012060008009431E82489310D293D1001309631CA
:10121600FB26080020003D180829BD1C0D29BD101D
:101226001E2993310F2389312000BD1001309631DC
:10123600FB2689314A292000DF01DF0A6B08DE0020
:101246005E08C1005F089331C823893120006B080E
:101256008031712089312000BD1814293D1C1E29BA
:101266003D10FB306B0203183C2905306B02031856
:1012760041290530DE005E08EB001E290530DE0040
:101286005E08EB0701309631FB2689311E290130B5
:101296009631FB260800F0137013F0127012F0114D
:1012A600F01D5729701558297011701D5C29F0140E
:1012B6005D29F010F01C612970146229701020005D
:1012C600BD137018BD172000BD1F6C2920003D17E7
:1012D6006E2920003D133D1F73292000BD16752978
:1012E6002000BD12BD1E7A2920003D167C29200053
:1012F6003D123D1E81292000BD1583292000BD1108
:10130600BD1D882920003D158A2920003D113D1D5F
:101316008F292000BD1491292000BD10BD1C9629DF
:1013260020003D14080020003D1008002000CD01DB
:10133600C81FA429C709C809C70A0319C80ACD01C5
:10134600CD0ACA1FAF29C909CA09C90A0319CA0A97
:101356000130CB004B08CD06CE01CF01480847042B
:101366000319DE29CC01CC0AC81BC3290130C735B5
:10137600C80D890BBA290130CB004B08CC07B72919
:101386000130CE35CF0D890BC42948084A02031D0A
:10139600CE2947084902031CD5294708C90248082F
:1013A600CA3B4E140130C836C70C890BD62901300A
:1013B600CC02031DC3294D080319E629CE09CF091E
:1013C600CE0A0319CF0A4F08C801C8074E08C7013D
:1013D600C70708002000C801003096311A26893157
:1013E60041302000C8009130C900963184268931E9
:1013F6000A302000C7000030C8002208D700D801F4
:101406005708C9005808CA00893199218931200036
:101416004708303E96313D2689310A302000D000FB
:101426000030D1002208D700D8015708D20058084A
:10143600D3008831BC20893120005008303E9631D7
:101446003D2689313A3096313D2689310A302000D1
:10145600C7000030C8002108D700D8015708C900C6
:101466005808CA0089319921893120004708303E41
:1014760096313D2689310A302000D0000030D10057
:101486002108D700D8015708D2005808D300883160
:10149600BC20893120005008303E96313D268931E6
:1014A6003A3096313D2689310A302000C700003097
:1014B600C8002008D700D8015708C9005808CA0034
:1014C60089319921893120004708303E96313D26E1
:1014D60089310A302000D0000030D1002008D70022
:1014E600D8015708D2005808D3008831BC2089316A
:1014F60020005008303E96313D2689312000C80133
:10150600C80A003096311A26893122302000C800D8
:101516009030C90096318426893120003508031998
:1015260008007630C4009030C50095310525893114
:101536000A302000C7000030C8002208D700D801B2
:101546005708C9005808CA008931992189312000F5
:101556004708303E9631602689310A302000D00097
:101566000030D1002208D700D8015708D200580809
:10157600D3008831BC20893120005008303E963196
:10158600602689313A309631602689310A3020004A
:10159600C7000030C8002108D700D8015708C90085
:1015A6005808CA0089319921893120004708303E00
:1015B6009631602689310A302000D0000030D100F3
:1015C6002108D700D8015708D2005808D30088311F
:1015D600BC20893120005008303E96316026893182
:1015E6003A309631602689310A302000C700003033
:1015F600C8002008D700D8015708C9005808CA00F3
:1016060089319921893120004708303E963160267C
:1016160089310A302000D0000030D1002008D700E0
:10162600D8015708D2005808D3008831BC20893128
:1016360020005008303E963160262000B501080093
:10164600200091112400951F592C95132000B201FA
:101656007108023E86008701010886008701810124
:10166600810AF1010800E31808006208F900790808
:10167600F1006208860087010108F9007908B300C5
:10168600620886008701413FF2000330F9007908BD
:10169600E20762083D3A031D542B3A30F9007908F7
:1016A600E2006310620861060319E31424001614AD
:1016B6000230F90079082000B200080024009614D0
:1016C6000230F90079082000B20008002400161F35
:1016D600752B0130F90079082000E50704309331B5
:1016E600F52308007608FA007508F900FA36F90CB1
:1016F600790824009100751C862B0B30F9007908B7
:101706002000B20008000330F90079082000B2007A
:1017160008002400161F982B0130F90079082000D4
:10172600E50704309331F523080096147608FA008D
:101736007508F9007A08F900FA0106307905FB0008
:1017460000307A05FC00F0307B04F50000307C04A4
:10175600F60075142000A701A70A0230F9007908DF
:10176600B20008002708013A0319CA2B720886003E
:101776008701403FF500413FF60072088600870169
:10178600433FA900720886008701423FA8007508FA
:1017960024009100751CD52B0530F900790820002E
:1017A600B20008000330F90079082000B2000800F2
:1017B6002400161FE92B0130F90079082000E507FF
:1017C6002400161305309331F5230800013020005C
:1017D600A8022808FF3A031D042C0430F9007908F2
:1017E600F2070130B302031DFC2B00309331F523C1
:1017F6000800240096140230F90079082000B2008F
:10180600080029088600870101082400910001309C
:10181600F90079082000A90708002400161F1E2CCD
:101826000130F90079082000E50704309331F523EB
:1018360024001613080096150830F90079082000D0
:10184600B20008000830F9007908B20024009615A5
:10185600080024001108F9002000290886008701E5
:10186600790881000130F9007908A9070130A8023A
:101876000319452C240096120630F9007908200039
:10188600B200492C240096169331A2232400161682
:10189600080000309331F52308000130F90079087B
:1018A6002000E50706309331F523080020003208B2
:1018B60084000C3004020318502C87310435E83EAE
:1018C600820008002000DB0080305B02031C722CC3
:1018D600DB09DB0A0130D8005808DC00732CDC0178
:1018E6005708013A031DF42CDC08031D9D2C053016
:1018F600C7000030C8005B08D800D9015808C100ED
:101906005908C2000930C3000030C400953179255A
:101916008C3120004208CA01CA074108C901C9071B
:10192600893199218C3120004708203EDA005A0877
:10193600DB00F42C5C08013A031DF42C12305B0228
:101946000318CE2C0530C7000030C8005B08D8004D
:10195600D9015808C1005908C2000930C300003037
:10196600C400953179258C3120004208CA01CA0786
:101976004108C901C907893199218C3120004708DE
:10198600DA005A08DB005B03FF3A203ED80058080D
:10199600DB00DC01F42C0530C7000030C8005B0812
:1019A600D800D9015808C1005908C2000930C3003F
:1019B6000030C400953179258C3120004208CA01D7
:1019C600CA074108C901C907893199218C3120000C
:1019D6004708E03EDA005A08DB000130D800580814
:1019E600DC00C801003096311A268C310830200000
:1019F600C8009130C900963184268C3120005C08DD
:101A0600013A031D082D2D30302D64302000C7000B
:101A16000030C8005B08D800D9015808C900590829
:101A2600CA00893199218C31200048084704031DDA
:101A36001E2D2030302D64302000C7000030C80035
:101A46005B08D800D9015808C9005908CA0089316D
:101A560099218C3120004708303E96313D268C3145
:101A66000A302000C7000030C8005B08D800D90142
:101A76005808C9005908CA00893199218C312000BB
:101A86004708303E96313D268C310A302000D00082
:101A96000030D1005B08D800D9015808D200590897
:101AA600D3008831BC208C3120005008303E96315E
:101AB6003D268C31DF3096313D268C31200057088B
:101AC600013A031D6A2D3A30C8009130712D20006D
:101AD600D708031D752D3330C8009130C9009631E3
:101AE60084268C312000C801C80A003096311A2697
:101AF6008C3120005708013A031D852D0030C8009F
:101B060090308C2D2000D708031D902D1130C80071
:101B16009030C900963184268C3106302000C400EE
:101B26009130C500953105258C3120005C08013ABD
:101B3600031D9F2D2D30C72D64302000C7000030B7
:101B4600C8005B08D800D9015808C9005908CA005E
:101B5600893199218C31200048084704031DB52D91
:101B66002030C72D64302000C7000030C8005B0855
:101B7600D800D9015808C9005908CA0089319921E5
:101B86008C3120004708303E963160268C310A3071
:101B96002000C7000030C8005B08D800D9015808EB
:101BA600C9005908CA00893199218C31200047089B
:101BB600303E963160268C310A302000D00000304D
:101BC600D1005B08D800D9015808D2005908D300C3
:101BD6008831BC208C3120005008303E963160267A
:101BE6008C31F830963160268C3120005708013A46
:101BF600031D042E3A30C4009130C50095310525E9
:101C060008002000D708031D08003330C4009130B7
:101C1600C50095310525080020005608DA01DA07C7
:101C26005508D901D9070A30C7000030C800560840
:101C3600C201C2075508C101C1073130C3000030D7
:101C4600C400953179258E3120004208CA01CA07A1
:101C56004108C901C907883140208E312000480853
:101C6600D801D8074708D701D7070A30C700003080
:101C7600C8005808CA01CA075708C901C9078831E8
:101C860040208E3120004808D601D6074708D501E6
:101C9600D507C801003096311A268E31FD30200056
:101CA600C8009030C900963184268E3164302000F9
:101CB600C7000030C8005608CA01CA075508C9013E
:101CC600C907883140208E3120004708303E9631C2
:101CD6003D268E312E3096313D268E310A3020003B
:101CE600CF000030D0000A30C7000030C8005608C8
:101CF600CA01CA075508C901C907883140208E3173
:101D060020004808D201D2074708D101D1079731F0
:101D1600D1278E3120004F08303E96313D268E3138
:101D26000A302000CF000030D0005608D201D2077A
:101D36005508D101D1079731D1278E3120004F08A0
:101D4600303E96313D268E3148302000C800913015
:101D5600C900963184268E312000C801C80A003099
:101D660096311A268E315B3096313D268E31E8301B
:101D76002000C7000330C8005A08CA01CA0759081C
:101D8600C901C907883140208E3120004708303EFE
:101D960096313D268E310A302000CF000030D0002B
:101DA6006430C7000030C8005A08CA01CA0759087B
:101DB600C901C907883140208E3120004808D20168
:101DC600D2074708D101D1079731D1278E3120009C
:101DD6004F08303E96313D268E310A302000CF0026
:101DE6000030D0000A30C7000030C8005A08CA01C7
:101DF600CA075908C901C907883140208E31200019
:101E06004808D201D2074708D101D1079731D12717
:101E16008E3120004F08303E96313D268E310A30F5
:101E26002000CF000030D0005A08D201D20759084E
:101E3600D101D1079731D1278E3120004F08303E8E
:101E460096313D268E31E4302000C8009030C9001E
:101E5600963184268E31FB302000C4009030C500B8
:101E6600953105258E3164302000C7000030C8004A
:101E76005608CA01CA075508C901C9078831402052
:101E86008E3120004708303E963160268E312E3046
:101E9600963160268E310A302000CF000030D00007
:101EA6000A30C7000030C8005608CA01CA075508DC
:101EB600C901C907883140208E3120004808D20167
:101EC600D2074708D101D1079731D1278E3120009B
:101ED6004F08303E963160268E310A302000CF0002
:101EE6000030D0005608D201D2075508D101D107DB
:101EF6009731D1278E3120004F08303E963160262B
:101F06008E3144302000C4009030C500953105253F
:101F16008E315B30963160268E31E8302000C70066
:101F26000330C8005A08CA01CA075908C901C907B7
:101F3600883140208E3120004708303E9631602699
:101F46008E310A302000CF000030D0006430C70048
:101F56000030C8005A08CA01CA075908C901C9078A
:101F6600883140208E3120004808D201D207470828
:101F7600D101D1079731D1278E3120004F08303E4D
:101F8600963160268E310A302000CF000030D00016
:101F96000A30C7000030C8005A08CA01CA075908E3
:101FA600C901C907883140208E3120004808D20176
:101FB600D2074708D101D1079731D1278E312000AA
:101FC6004F08303E963160268E310A302000CF0011
:101FD6000030D0005A08D201D2075908D101D107E2
:101FE6009731D1278E3120004F08303E963160263A
:101FF6008E315D30963160260800523441343434D7
:102006003D345B3443345D3420345234423430340E
:102016003D344534783469347434003452344134B0
:1020260034343D345B3446345D34203452344234E7
:1020360030343D34453478346934743400345234A1
:10204600413434343D34533465347434203452349A
:10205600423430343D344D3465346E347534003496
:102066005234413434343D342B3432342534203424
:102076005234423430343D3445347834693474341F
:102086000034203456342034203420342034413473
:1020960044344334203443346F3475346E347434EA
:1020A6003A3400345234413434343D344E34653499
:1020B6007834743420345234423430343D344E341F
:1020C6006F3477340034523442343A345B344D340E
:1020D60049344E345D3420342034543449344D343C
:1020E6004534203400340D340A345334793473348F
:1020F600743465346D342034543469346D34653445
:1021060020343A340034203420342034203420342F
:10211600203420342034203420344B346534793450
:102126003A3400342034503449344334443445344A
:102136004D3420343234203450344C3455345334F6
:10214600003420342034543465346D3470346534AE
:102156007234613474347534723465340034203426
:102166002034203456346F346C3474346D34653412
:1021760074346534723400342034203420344D34C1
:102186006934633472346F34633468346934703458
:1021960000342034203420342034523442343A344B
:1021A6004E3465347834743400342034203420348A
:1021B60020342034423475347A347A3465347234B7
:1021C60000345D3420345234423430343D342034CB
:1021D600453478346934743400342034203420345F
:1021E6002034203443346C346F3463346B3400341D
:1021F6000D340A3456346F346C34743473342034EA
:102206003D34203400340A340D34543465346D348E
:10221600703420343D3420340034523441343A345E
:102226005B34483452345D34203400342034203456
:102236002A345B344D3449344E345D340034203412
:1022460020342A345B344834523453345D340034F9
:102256000D340A34503457344D343A342034003473
:102266005B3443345D3420342034203400345B3412
:1022760046345D3420342034203400345434493418
:102286004D34453420342034003420345634203440
:10229600203420340034503457344D343A3400342A
:1022A600523441343A340034423433342034003426
:1022B600413434342034003442343434203400344D
:1022C6004334343420340034443434342034003439
:1022D6004534343420340034463434342034003425
:1022E6004734343420340034413435342034003417
:1022F6004334353420340034443435342034003407
:1023060045343534203400344634353420340034F2
:1023160047343534203400344134363420340034E4
:1023260044343634203400344634363420340034D1
:1023360047343634203400344234373420340034C1
:1023460043343734203400344134343423340034B5
:1023560043343434233400344434343423340034A2
:10236600463434342334003447343434233400348C
:102376004134353423340034433435342334003483
:10238600443435342334003446343534233400346D
:10239600473435342334003444343634233400345B
:1023A6004434373423340034463437342334003449
:1023B60044343834233400342D342D342D34003451
:0623C600433436340034FC
:1026180028001715080028001711080020001814B2
:1026280008004D340034053405346A30210099001F
:102638009A01980108002000C300430896316026DB
:102648000800640080010131890B262B0034013019
:1026580021009D00F0309E009B019C010800200095
:1026680097179431CB242000B501B50A1110080042
:1026780020001110670897006608960093313323ED
:1026880008000230280097000530960095012000C8
:102698009310080032302000C1004108F400F4080B
:1026A80003190800532B94317824933193314E2326
:1026B800933101309631FB26080021001508C039F6
:1026C8000738950020009501F3010B118B160800BF
:1026D8002000A0010130C1004108A2072208183AD1
:1026E800031D0800A20108000B11730820009500C3
:1026F80074080319812B0130F4029631D2260B118C
:1027080008002000A0010130A2022208FF3A031DA0
:1027180008001730C1004108A20008003C3025001D
:1027280093009501803094000130960002309100AA
:1027380092011E08FC3901389E0008000430F70099
:102748007708F20701302000B302031DB02B0430D4
:10275800F7007708B2000800B201B20A08002000AA
:10276800A0010130C1004108A10721083C3A031D1E
:102778000800A1010130C1004108A2072208183A47
:10278800031D0800A20108002000C200410828001B
:10279800960020006C082500910093310C2393319A
:1027A800200042080319DB2B21000E11080021002C
:1027B8000E1508002000A0010130A1022108FF3AEF
:1027C800031D08003B30C1004108A1000130A202EE
:1027D8002208FF3A031D08001730C1004108A20073
:1027E8000800F800240016157108023E86008701CB
:1027F8000108003A03190B2C7808F7007108023E0B
:10280800860087010108860087017708810020007B
:10281800B20108003A302000C1004108E2003A3015
:10282800C1004108E100E3146310E5018030240091
:1028380094002830950097010930920020009111EA
:1028480021009115080023009D1C2C2C1D121D161B
:102858001908F70020002E08E03E86008701770857
:1028680081000130F7007708AE0708302E02031800
:10287800AE010130F7007708AD070800210091127A
:102888001112483023009F0080309D0026309E00A2
:10289800A0309B0001309C002000B001B101403005
:1028A800C1004108E800AE01AF01AD012100911659
:1028B8000800933119239431973178279431933153
:1028C8006123943193312B239431933192239431A2
:1028D80093314523943188310020943194310E246A
:1028E800943194314224080001309631FB2694310A
:1028F800BF302000C8009030C9009631842694313A
:102908002000C801C80A003096311A269431953043
:102918002000C8009030C900963184260800943100
:102928005D2494319531F725943189314E219431C4
:102938008B170B1793315723943188311120943119
:102948008931042194318731832794319731A32722
:102958009431A12C4030200068020318C82C31089B
:10296800A03E86008701010823009A000130F70085
:1029780077082000B107403031020318B101013057
:10298800F7007708E8070800210011120800013055
:10299800F70077082000A00720083C3A031D08002C
:1029A800A0010130F7007708A10721083C3A031D70
:1029B8000800A1010130F7007708A2072208183A99
:1029C800031D0800A20108002000C801003096314C
:1029D8001A269431D8302000C8009030C9009631AA
:1029E800842694312000C801C80A003096311A267E
:1029F800943155302000C8009030C90096318426A3
:102A0800080046302000C6004608C90020004508D6
:102A1800C7004408C600C40A0319C50A460884004A
:102A2800470885000008C8004808CA00CA080319F2
:102A380008004A0893311F2395310A2D2000C80148
:102A4800003096311A269531F0302000C8009030B9
:102A5800C9009631842695312000C801C80A003083
:102A680096311A26953155302000C8009030C9009B
:102A78009631842608002000C801003096311A26B5
:102A88009531A4302000C8009030C90096318426C2
:102A980095312000C801C80A003096311A269531B0
:102AA80055302000C8009030C900963184260800AF
:102AB8002000C801003096311A269531B230200026
:102AC800C8009030C9009631842695312000C8018D
:102AD800C80A003096311A26953155302000C800B2
:102AE8009030C9009631842608002000C501C6012F
:102AF800411C822D4308C5074408C63D0130C33533
:102B0800C40D890B832D0130C236C10C890B882D69
:102B180042084104031D7C2D4608C201C20745082E
:102B2800C101C10708002000C4004408C2000430E5
:102B3800C236890B9C2D4208C3004308C4004408D0
:102B48000F39C2004208C4000F08F0398F000F087F
:102B580044048F004108031D0F1603190F128F122A
:102B68000F170F1308002000C7004408C6004308C9
:102B7800C500C535C60D4708860087014508C03F12
:102B88004608C13F4208C5004708023E8600870143
:102B9800450881004108C5004708033E86008701B3
:102BA8004508810008002000C4004408C300C30D84
:102BB800C30D21001D082000430683394306210068
:102BC8009D001D1400320032000021009D149D1844
:102BD800EB2D1C082000C201C20721001B082000A1
:102BE800C101C107080020008F0121008F012000CA
:102BF8008F171430C9007930C800C80B012EC90BD3
:102C0800012E003232309631FB269531283096312C
:102C1800FB2695310C309631FB26953101309631E3
:102C2800FB26953106309631FB2608002000CD00A2
:102C3800023048020318080010304D02031808003B
:102C48004808013A03192A2E80302B2EC0304D0433
:102C5800CB000030CC004B089631FB26963107306C
:102C68002000CA007D30C900C90B382ECA0B382E87
:102C780008002000C7000730C6007D30C500C50B1E
:102C8800432EC60B432E2000C101C10A47089531C7
:102C98009725963120004708C5000330C535FF3E0B
:102CA800031D522E4535C6004608C700C101C10A9A
:102CB80047089531972508002000C20068080319C5
:102CC800622E2100111A6D2E2000420823009A005E
:102CD800812E111220004208C1003008A03E860053
:102CE8008701410881000130C1004108B007403028
:102CF80030020318B0010130E80221001116080063
:102D08002000CC014908CB004808CA004C084A07F3
:102D180084004B0803184B0A850000080038031983
:102D280008004908CB004808CA004C084A07840034
:102D38004B0803184B0A8500000896313D2696314A
:102D480001302000CA004A08CC07862E2000C700A0
:102D58004408C6004308C500C535C60D47088600A7
:102D680087014508C03F4608C13F470886008701DC
:102D7800013081044131003081044208C500470810
:102D8800023E86008701450881004108C5004708C2
:102D9800033E8600870145088100080020000C1AC0
:102DA800E42E2B080319DE2E0130AB02031DE62E9C
:102DB8003D14E52E0230F7007708AB007014E62EBC
:102DC800AB0170100D18F82E2C080319F22E0130E3
:102DD800AC02031D0800BD14F01008000230F70013
:102DE8007708AC00F0140800AC01F01008002000CF
:102DF800C7000730C6007D30C500C50B012FC60BC4
:102E0800012F2000C10147089531972596312000F0
:102E18004708C5000330C535FF3E031D0F2F453554
:102E2800C6004608C700F930C5000000C50B192FB9
:102E3800003200002000C10147089531972508009D
:102E48002000CE006318472F4E08CC004C08C10064
:102E58004808CD004D08C2004A08C401C407490803
:102E6800C301C307E8309631AA269731E83020001D
:102E7800CC004C08C1004B08CD004D08C200013001
:102E880088317720080020004B08860087018101DF
:102E9800810A08002000CE006318712F4E08CC006C
:102EA8004C08C1004808CD004D08C2004A08C401BA
:102EB800C4074908C301C30736309531B725973190
:102EC80036302000CC004C08C1004B08CD004D081E
:102ED800C200013088317720080020004B088600A6
:102EE80087018101810A080022008C01FF3021003E
:102EF8008C00013023008C0022008D01013021005C
:102F08008D0023008D0124008D01183022008E00D1
:102F1800FB3021008E0022008F0121008F01230049
:102F28008F01220090010F302100900023009001B2
:102F3800240090012100951722009D010800953179
:102F480022259731AC2F3D1001309631FB26080021
:102F580020003D18A72FBD1CAC2FBD1093311223A4
:102F68009731BC2FBD1001309631FB269731CD2FFC
:102F78008931ED2197312000BD18B62F3D1CBC2F9B
:102F88003D1085311425973101309631FB26973154
:102F9800BC2F01309631FB260800200050084F0452
:102FA8000319F92FD401D40AD01BE42F0130CF35EF
:102FB800D00D890BDB2F0130D3005308D407D82F4D
:102FC80050085202031DEA2F4F085102031CF02F2C
:102FD8004F08D1025008D23B0130D036CF0C890BB4
:102FE800F12F0130D402031DE42F5208D001D0077D
:082FF8005108CF01CF070800CA
:020000040001F9
:04000E00E4C1FFDC6E
:00000001FF
