:0400000029EF61F093
:10C1B300EF0088C69A1200016E01C052F01200020D
:10C1C3006E8C908C940250FAEC60F08C801200021A
:10C1D3006E8C908C840250FAEC60F08C8012009488
:10C1E30096949A9488929AC00EC76E210EC66E12C8
:10C1F30000016E01C0C9FFC7A002EF61F004EF6147
:10C20300F0FDEF60F0C95012008C808C92000E029A
:10C213006E320E016E43EC61F08C82000E026E965C
:10C223000E016E43EC61F0120001500302F3CF05DF
:10C23300F0F4CF06F001500402F350062602500337
:10C2430002F350062605C001F006C002F01200B347
:10C253000EF66EC10EF76E000EF86E0900F5CF569E
:10C26300F00900F5CF57F00900F5CF58F000EE4E76
:10C27300F0080EEE6AE806FDE1000EF86E000153C9
:10C28300EF62F0000E056E000E046E53EF61F015C1
:10C293000E036EC60EE82EFED7032EFCD700D00485
:10C2A3004A052A0150045C02500558D8A05CEF618E
:10C2B300F05EEF61F049EF61F012008C908C942AEC
:10C2C3000EFAEC60F08C840350FAEC60F00250FA42
:10C2D300EC60F00550FAEC60F00450FAEC60F08C7E
:10C2E300942B0EFAEC60F08C840750FAEC60F006A5
:10C2F30050FAEC60F00950FAEC60F00850FAEC6088
:10C30300F08C942C0EFAEC60F08C8012000B500C25
:10C313006E0AC00DF0B6EF61F0000E036E000E0260
:10C323006E000E056EEF0E046E000E076E000E0615
:10C333006E010E096E3F0E086E5FEC61F0C1EF6196
:10C34300F0000E036E000E026E010E056E3F0E042A
:10C353006E000E076E000E066E000E096EEF0E08DD
:10C363006E5FEC61F0C1EF61F05850880AD8B48E6B
:10C37300EF61F0600AD8B4A2EF61F0C1EF61F08C15
:10C38300908C84000E0F6E000E0E6E000E116E0068
:10C393000E106E0C50FAEC60F00D50FAEC60F010D9
:10C3A3004A112A115009E1F00E105CD8A0DCEF61AC
:10C3B300F0DEEF61F0CBEF61F00E4A0F2A400E0E74
:10C3C3005C010E0F58D8A0E9EF61F0EBEF61F0C705
:10C3D300EF61F08C80120007EF62F0010E106E2205
:10C3E300EF62F0090E106E22EF62F0190E106E224A
:10C3F300EF62F0310E106E22EF62F0510E106E22DA
:10C40300EF62F0790E106E22EF62F05250000AD8FC
:10C41300B4EFEF61F0010AD8B4F3EF61F0030AD887
:10C42300B4F7EF61F0010AD8B4FBEF61F0070AD863
:10C43300B4FFEF61F0010AD8B403EF62F003EF62D7
:10C44300F052500A5C026E0B50D8A00B04036E52DC
:10C45300500A24046E000E0B20056E52500C5C062D
:10C463006E0D50D8A00D04076E52500C24086E00B8
:10C473000E0D20096E5FEC61F08C908C8449EF62A5
:10C48300F00F50FAEC60F00E50FAEC60F01006106A
:10C4930050D8A44FEF62F051EF62F042EF62F08C9C
:10C4A300801200700ED36E9B8C000E0F01386F004C
:10C4B3000E396F000E3A6F000E3B6F000E3C6F009B
:10C4C3000E806E000E816E000E826E000E836E0073
:10C4D3000E846E000E926E000E936E000E946E002C
:10C4E3000E956E000E966EDBEC60F0F1EC60F01FC3
:10C4F300EC63F0010EDDEC60F0000E4B6E780E4A3B
:10C503006E000E4D6EA00E4C6E000E476E070E466B
:10C513006E000E496E070E486E000E456E0A0E44FD
:10C523006E46504A2647504B2220EE48F0DE504CD0
:10C5330026DD504D2244504C24426E45504D20433D
:10C543006E43BEB0EF62F0400E425C010E4358D81A
:10C55300B0AEEF62F0B0EF62F0C3EF62F044504C64
:10C563005C426E45504D58436E43BEC3EF62F04389
:10C573005006E14204D8B0C1EF62F0C3EF62F0D0DD
:10C58300EF62F048C001F049C002F0FF0E046E03F1
:10C593006816EC61F001C048F002C049F044504A0B
:10C5A30024426E45504B20436E43BEE4EF62F0439A
:10C5B3005007E1F00E425CD8B0E2EF62F0E4EF62C4
:10C5C300F0F7EF62F044504A5C426E45504B5843DB
:10C5D3006E43BEF7EF62F0435006E14204D8B0F574
:10C5E300EF62F0F7EF62F004EF63F046C001F0474B
:10C5F300C002F0FF0E046E036816EC61F001C04642
:10C60300F002C047F0FF0E0B6E0A6888EC61F04A37
:10C61300C031F04BC032F04CC033F04DC034F04465
:10C62300C035F045C036F0000E386E000E376E563A
:10C63300EC65F092EF62F000EF00F0959095949521
:10C64300928C808C948C9206EC61F0CB0EE1EC60C2
:10C65300F0390EE9EC60F02C0EE9EC60F0000EE925
:10C66300EC60F0340EE9EC60F0020EE9EC60F0CF20
:10C673000EE1EC60F0000EE9EC60F0C10EE9EC6055
:10C68300F0300EE9EC60F0E80EE1EC60F0850EE9C5
:10C69300EC60F0000EE9EC60F0780EE9EC60F0EA93
:10C6A3000EE1EC60F0000EE9EC60F0000EE9EC60E6
:10C6B300F0ED0EE1EC60F0640EE9EC60F0030EE9DE
:10C6C300EC60F0120EE9EC60F0810EE9EC60F0F73B
:10C6D3000EE1EC60F0200EE9EC60F0C00EE1EC60DE
:10C6E300F0230EE9EC60F0C10EE1EC60F0100EE90E
:10C6F300EC60F0C50EE1EC60F03E0EE9EC60F02872
:10C703000EE9EC60F0C70EE1EC60F0860EE9EC6038
:10C71300F0360EE1EC60F0880EE9EC60F03A0EE1E1
:10C72300EC60F0550EE9EC60F0B10EE1EC60F00066
:10C733000EE9EC60F0180EE9EC60F0B60EE1EC6087
:10C74300F0080EE9EC60F0820EE9EC60F0270EE9E8
:10C75300EC60F0F20EE1EC60F0000EE9EC60F02624
:10C763000EE1EC60F0010EE9EC60F0E00EE1EC604C
:10C77300F00F0EE9EC60F0310EE9EC60F02B0EE9FE
:10C78300EC60F00C0EE9EC60F00E0EE9EC60F008E2
:10C793000EE9EC60F04E0EE9EC60F0F10EE9EC60AE
:10C7A300F0370EE9EC60F0070EE9EC60F0100EE9EB
:10C7B300EC60F0030EE9EC60F00E0EE9EC60F009BA
:10C7C3000EE9EC60F0000EE9EC60F0E10EE1EC60E4
:10C7D300F0000EE9EC60F00E0EE9EC60F0140EE9E7
:10C7E300EC60F0030EE9EC60F0110EE9EC60F00789
:10C7F3000EE9EC60F0310EE9EC60F0C10EE9EC609B
:10C80300F0480EE9EC60F0080EE9EC60F00F0EE979
:10C81300EC60F00C0EE9EC60F0310EE9EC60F03600
:10C823000EE9EC60F00F0EE9EC60F0110EE1EC6044
:10C83300F0000E026E960E016E43EC61F0290EE1DC
:10C84300EC60F0FF0E0B6E0A6888EC61F0120011C9
:10C8530050155C2D6E125016582E6E1350175C2F08
:10C863006E14501858306E000E226E000E216E00AA
:10C873000E246E000E236E000E286E000E276E002F
:10C883000E266E000E256E2EBE4CEF64F04AEF644A
:10C89300F050EF64F02168226861EF64F02EBE5B14
:10C8A300EF64F02E5008E12D04D8A05BEF64F05D37
:10C8B300EF64F061EF64F0000E226E010E216E3022
:10C8C300BE68EF64F066EF64F06CEF64F0236824F5
:10C8D300687DEF64F030BE77EF64F0305008E12FED
:10C8E30004D8A077EF64F079EF64F07DEF64F00093
:10C8F3000E246E010E236E2EBE84EF64F082EF646D
:10C90300F088EF64F02768286899EF64F02EBE93EF
:10C91300EF64F02E5008E12D04D8A093EF64F09556
:10C92300EF64F099EF64F0000E286E010E276E2E6F
:10C93300BEA0EF64F09EEF64F0ADEF64F02DC00194
:10C94300F02EC002F0FF0E046E036816EC61F001D6
:10C95300C02DF002C02EF030BEB4EF64F0B2EF642D
:10C96300F0C1EF64F02FC001F030C002F0FF0E04FD
:10C973006E036816EC61F001C02FF002C030F02D99
:10C98300C02BF02EC02CF02FC029F030C02AF02B82
:10C9930050295C2A50800A1B6E2C50800A1B58D8E1
:10C9A300A0D6EF64F0D8EF64F000EF65F02FC02B52
:10C9B300F030C02CF02DC029F02EC02AF030BEE795
:10C9C300EF64F0E5EF64F0EBEF64F025682668FCB4
:10C9D300EF64F030BEF6EF64F0305008E12F04D876
:10C9E300A0F6EF64F0F8EF64F0FCEF64F0000E26BD
:10C9F3006E010E256E000E286E000E276E2C342C51
:10CA0300301B6E2B301F6E1BC020F0000E1E6E00FD
:10CA13000E1D6E46EF65F011C00AF012C00BF01345
:10CA2300C00CF014C00DF019C00EF01AC00FF0EDD9
:10CA3300EC61F029501F262A5020222B501F5C2026
:10CA430050800A1B6E2C50800A1B58D8A02CEF650F
:10CA5300F02EEF65F03CEF65F02B501F5E2C50205D
:10CA63005A215011262250122223501326245014E7
:10CA73002244EF65F0275011262850122225501327
:10CA830026265014221D4A1E2A1D502B5C2C508032
:10CA93000A1B6E1E50800A1B58D8B053EF65F05521
:10CAA300EF65F00DEF65F0120052C03BF035C03E6C
:10CAB300F036C03FF0000E416E000E406E3E500156
:10CAC300083C6E3F50D8A0E82A00083D6E000E5285
:10CAD3006EA2EF66F03E50315C116E3F5032581239
:10CAE3006E33504024136E34504120146E31503E47
:10CAF30024156E32503F20166E33504024176E3487
:10CB0300504120186E37C019F038C01AF029EC6470
:10CB1300F03E50315C116E3F503258126E4050332C
:10CB23005C136E41503458146E31503E24156E32EE
:10CB3300503F20166E4050335C176E4150345818E6
:10CB43006E37C019F038C01AF029EC64F040503148
:10CB53005C116E41503258126E33503E24136E34C2
:10CB6300503F20146E31504024156E325041201630
:10CB73006E33503E24176E34503F20186E37C01961
:10CB8300F038C01AF029EC64F04050315C116E416A
:10CB9300503258126E3E50335C136E3F503458146B
:10CBA3006E31504024156E32504120166E3E503384
:10CBB3005C176E3F503458186E37C019F038C01ADE
:10CBC300F029EC64F031503E240A6E32503F200BC2
:10CBD3006E335040240C6E345041200D6E37C00E1E
:10CBE300F038C00FF0EDEC61F0315040240A6E32A2
:10CBF3005041200B6E33503E240C6E34503F200DB9
:10CC03006E37C00EF038C00FF0EDEC61F03E5031DE
:10CC13005C0A6E3F5032580B6E335040240C6E3416
:10CC23005041200D6E37C00EF038C00FF0EDEC61AF
:10CC3300F04050315C0A6E415032580B6E33503E17
:10CC4300240C6E34503F200D6E37C00EF038C00FE9
:10CC5300F0EDEC61F03E50315C0A6E3F5032580B00
:10CC63006E4050335C0C6E415034580D6E37C00E1D
:10CC7300F038C00FF0EDEC61F04050315C0A6E41CA
:10CC83005032580B6E3E50335C0C6E3F5034580D8F
:10CC93006E37C00EF038C00FF0EDEC61F031503E4E
:10CCA300240A6E32503F200B6E4050335C0C6E41B1
:10CCB3005034580D6E37C00EF038C00FF0EDEC61F4
:10CCC300F0315040240A6E325041200B6E3E5033F7
:10CCD3005C0C6E3F5034580D6E37C00EF038C00FE9
:10CCE300F0EDEC61F0404A412A3DBE7DEF66F07BFA
:10CCF300EF66F08EEF66F040C039F041C03AF0D8ED
:10CD03009039363A36010E3926000E3A2239503C14
:10CD1300263A503D22A2EF66F03E06D8A03F063EDB
:10CD230050405C396E3F5041583A6ED89039363A8C
:10CD330036020E3926000E3A2239503C263A503D2F
:10CD43002240503E5C3F50800A396E4150800A3980
:10CD530058D8B0AFEF66F0B1EF66F06CEF65F03B1B
:10CD6300C052F0120000FFFFFFFFFFFFFFFFFFFFB6
:10CD7300FFFFFFFFFFFFFFFFFFFFFFFFFFFFFFFFC0
:10CD8300FFFFFFFFFFFFFFFFFFFFFFFFFFFFFFFFB0
:10CD9300FFFFFFFFFFFFFFFFFFFFFFFFFFFFFFFFA0
:10CDA300FFFFFFFFFFFFFFFFFFFFFFFFFFFFFFFF90
:10CDB300FFFFFFFFFFFFFFFFFFFFFFFFFFFFFFFF80
:10CDC300FFFFFFFFFFFFFFFFFFFFFFFFFFFFFFFF70
:10CDD300FFFFFFFFFFFFFFFFFFFFFFFFFFFFFFFF60
:10CDE300FFFFFFFFFFFFFFFFFFFFFFFFFFFFFFFF50
:10CDF300FFFFFFFFFFFFFFFFFFFFFFFFFFFFFFFF40
:10CE0300FFFFFFFFFFFFFFFFFFFFFFFFFFFFFFFF2F
:10CE1300FFFFFFFFFFFFFFFFFFFFFFFFFFFFFFFF1F
:10CE2300FFFFFFFFFFFFFFFFFFFFFFFFFFFFFFFF0F
:10CE3300FFFFFFFFFFFFFFFFFFFFFFFFFFFFFFFFFF
:10CE4300FFFFFFFFFFFFFFFFFFFFFFFFFFFFFFFFEF
:10CE5300FFFFFFFFFFFFFFFFFFFFFFFFFFFFFFFFDF
:10CE6300FFFFFFFFFFFFFFFFFFFFFFFFFFFFFFFFCF
:10CE7300FFFFFFFFFFFFFFFFFFFFFFFFFFFFFFFFBF
:10CE8300FFFFFFFFDFFFDFFFDFFFDFFFDFFFFFFF4F
:10CE9300FFFFFFFFFFFFFFFFFFFFFFFFFFFFFFFF9F
:10CEA300FFFFFFFFFFFFFFFFFFFFFFFFDFFFDFFFCF
:10CEB300DFFFDFFFDFFFFFFFFFFFFFFFFFFFFFFFDF
:10CEC300FFFFFFFFFFFFFFFFFFFFFFFFFFFFFFFF6F
:10CED300FFFFFFFFDFFFDFFFDFFFDFFFDFFFFFFFFF
:10CEE300FFFFFFFFFFFFFFFFFFFFFFFFFFFFFFFF4F
:10CEF300FFFFFFFFFFFFFFFFFFFFFFFFFFFFFFFF3F
:10CF0300FFFFDFFFDFFFDFFFDFFFDFFFFFFFFFFFCE
:10CF1300FFFFFFFFFFFFFFFFFFFFFFFFFFFFFFFF1E
:10CF2300FFFFFFFFFFFFFFFFFFFFDFFFDFFFDFFF6E
:10CF3300DFFFDFFFFFFFFFFFFFFFFFFFFFFFFFFF3E
:10CF4300FFFFFFFFFFFFFFFFFFFFFFFFFFFFFFFFEE
:10CF5300FFFFDFFFDFFFDFFFDFFFDFFFFFFFFFFF7E
:10CF6300FFFFFFFFFFFFFFFFFFFFFFFFFFFFFFFFCE
:10CF7300FFFFFFFFFFFFFFFFFFFFFFFFFFFFFFFFBE
:10CF8300DFFFDFFFDFFFDFFFDFFFFFFFFFFFFFFF4E
:10CF9300FFFFFFFFFFFFFFFFFFFFFFFFFFFFFFFF9E
:10CFA300FFFFFFFFFFFFFFFFDFFFDFFFDFFFDFFF0E
:10CFB300DFFFFFFFFFFFFFFFFFFFFFFFFFFFFFFF9E
:10CFC300FFFFFFFFFFFFFFFFFFFFFFFFFFFFFFFF6E
:10CFD300DFFFDFFFDFFFDFFFDFFFFFFFFFFFFFFFFE
:10CFE300FFFFFFFFFFFFFFFFFFFFFFFFFFFFFFFF4E
:10CFF300FFFFFFFFFFFFFFFFFFFFFFFFFFFFBEF787
:10D00300BEF7BEF7BEF7BEF7FFFFFFFFFFFFFFFF51
:10D01300FFFFFFFFFFFFFFFFFFFFFFFFFFFFFFFF1D
:10D02300FFFFFFFFFFFFBEF7BEF7BEF7BEF7BEF77A
:10D03300FFFFFFFFFFFFFFFFFFFFFFFFFFFFFFFFFD
:10D04300FFFFFFFFFFFFFFFFFFFFFFFFFFFFBEF736
:10D05300BEF7BEF7BEF7BEF7FFFFFFFFFFFFFFFF01
:10D06300FFFFFFFFFFFFFFFFFFFFFFFFFFFFFFFFCD
:10D07300FFFFFFFFFFFFFFFFFFFFFFFFBEF7BEF74F
:10D08300BEF7BEF7BEF7FFFFFFFFFFFFFFFFFFFF88
:10D09300FFFFFFFFFFFFFFFFFFFFFFFFFFFFFFFF9D
:10D0A300FFFFFFFFBEF7BEF7BEF7BEF7BEF7FFFFFA
:10D0B300FFFFFFFFFFFFFFFFFFFFFFFFFFFFFFFF7D
:10D0C300FFFFFFFFFFFFFFFFFFFFFFFFBEF7BEF7FF
:10D0D300BEF7BEF7BEF7FFFFFFFFFFFFFFFFFFFF38
:10D0E300FFFFFFFFFFFFFFFFFFFFFFFFFFFFFFFF4D
:10D0F300FFFFFFFFFFFFFFFFFFFFBEF7BEF7BEF718
:10D10300BEF7BEF7FFFFFFFFFFFFFFFFFFFFFFFFBE
:10D11300FFFFFFFFFFFFFFFFFFFFFFFFFFFFFFFF1C
:10D12300FFFFBEF7BEF7BEF7BEF7BEF7FFFFFFFF79
:10D13300FFFFFFFFFFFFFFFFFFFFFFFFFFFFFFFFFC
:10D14300FFFFFFFFFFFFFFFFFFFFBEF7BEF7BEF7C7
:10D15300BEF7BEF7FFFFFFFFFFFFFFFFFFFFFFFF6E
:10D16300FFFFFFFFFFFFFFFFFFFFFFFFFFFFFFFFCC
:10D17300FFFFFFFFFFFFFFFFBEF7BEF7BEF7BEF7E0
:10D18300BEF7FFFFFFFFFFFFFFFFFFFFFFFFFFFFF5
:10D19300FFFFFFFFFFFFFFFFFFFFFFFFFFFFFFFF9C
:10D1A300BEF7BEF7BEF7BEF7BEF7FFFFFFFFFFFFF9
:10D1B300FFFFFFFFFFFFFFFFFFFFFFFFFFFFFFFF7C
:10D1C300FFFFFFFFFFFFFFFFBEF7BEF7BEF7BEF790
:10D1D300BEF7FFFFFFFFFFFFFFFFFFFFFFFFFFFFA5
:10D1E300FFFFFFFFFFFFFFFFFFFFFFFFFFFFFFFF4C
:10D1F300FFFFFFFFFFFFBEF7BEF7BEF7BEF7BEF7A9
:10D20300FFFFFFFFFFFFFFFFFFFFFFFFFFFFFFFF2B
:10D21300FFFFFFFFFFFFFFFFFFFFFFFFFFFFBEF764
:10D22300BEF7BEF7BEF7BEF7FFFFFFFFFFFFFFFF2F
:10D23300FFFFFFFFFFFFFFFFFFFFFFFFFFFFFFFFFB
:10D24300FFFFFFFFFFFFBEF7BEF7BEF7BEF7BEF758
:10D25300FFFFFFFFFFFFFFFFFFFFFFFFFFFFFFFFDB
:10D26300FFFFFFFFFFFFFFFFFFFFFFFFFFFFFFFFCB
:10D27300FFFFFFFFBEF7BEF7BEF7BEF7BEF7FFFF28
:10D28300FFFFFFFFFFFFFFFFFFFFFFFFFFFFFFFFAB
:10D29300FFFFFFFFFFFFFFFFFFFFFFFFBEF7BEF72D
:10D2A300BEF7BEF7BEF7FFFFFFFFFFFFFFFFFFFF66
:10D2B300FFFFFFFFFFFFFFFFFFFFFFFFFFFFFFFF7B
:10D2C300FFFFFFFFBEF7BEF7BEF7BEF7BEF7FFFFD8
:10D2D300FFFFFFFFFFFFFFFFFFFFFFFFFFFFFFFF5B
:10D2E300FFFFFFFFFFFFFFFFFFFFFFFFFFFFFFFF4B
:10D2F300FFFFBEF7BEF7BEF7BEF7BEF7FFFFFFFFA8
:10D30300FFFFFFFFFFFFFFFFFFFFFFFFFFFFFFFF2A
:10D31300FFFFFFFFFFFFFFFFFFFFBEF7BEF7BEF7F5
:10D32300BEF7BEF7FFFFFFFFFFFFFFFFFFFFFFFF9C
:10D33300FFFFFFFFFFFFFFFFFFFFFFFFFFFFFFFFFA
:10D34300FFFFBEF7BEF7BEF7BEF7BEF7FFFFFFFF57
:10D35300FFFFFFFFFFFFFFFFFFFFFFFFFFFFFFFFDA
:10D36300FFFFFFFFFFFFFFFFFFFFFFFFFFFFFFFFCA
:10D37300BEF7BEF7BEF7BEF7BEF7FFFFFFFFFFFF27
:10D38300FFFFFFFFFFFFFFFFFFFFFFFFFFFFFFFFAA
:10D39300FFFFFFFFFFFFFFFFBEF7BEF7BEF7BEF7BE
:10D3A300BEF7FFFFFFFFFFFFFFFFFFFFFFFFFFFFD3
:10D3B300FFFFFFFFFFFFFFFFFFFFFFFFFFFFFFFF7A
:10D3C300BEF779CED39C0C636529694ADFFFFFFF63
:10D3D300FFFFFFFFFFFFFFFFFFFFFFFFFFFFFFFF5A
:10D3E300FFFFFFFFFFFFFFFFFFFFFFFFFFFFDFFF6A
:10D3F300BEF7BEF7BEF7BEF7FFFFFFFFFFFFFFFF5E
:10D40300FFFFFFFFFFFFFFFFFFFFFFFFFFFFFFFF29
:10D41300FFFFFFFFFFFFBEF7BEF7BEF7BEF7BEF786
:10D42300FFFFFFFFFFFFFFFFFFFFFFFFFFFFFFFF09
:10D43300FFFFFFFFFFFFFFFF9EF7D7BD1084494AA1
:10D44300A21020002000200000000000DBDEFFFF10
:10D45300FFFFFFFFFFFFFFFFFFFFFFFFFFFFFFFFD9
:10D46300FFFFFFFFFFFFFFFFFFFFFFFFDFFFDFFF09
:10D47300BEF7BEF7BEF7FFFFFFFFFFFFFFFFFFFF94
:10D48300FFFFFFFFFFFFFFFFFFFFFFFFFFFFFFFFA9
:10D49300FFFFFFFFBEF7BEF7BEF7BEF7BEF7FFFF06
:10D4A300FFFFFFFFFFFFFFFFFFFFFFFFFFFFFFFF89
:10D4B300BAD6F39C2C6365290000000020002000ED
:10D4C300200020002000610808429294FFFFFFFF24
:10D4D300FFFFFFFFFFFFFFFFFFFFFFFFFFFFFFFF59
:10D4E300FFFFFFFFFFFFFFFFFFFFDFFFDFFFDFFFA9
:10D4F300BEF7BEF7FFFFFFFFFFFFFFFFFFFFFFFFCB
:10D50300FFFFFFFFFFFFFFFFFFFFFFFFFFFFFFFF28
:10D51300FFFFBEF7BEF7BEF7BEF7BEF7FFFFFFFF85
:10D52300FFFFFFFFFFFF9EF7D7BD1084494A82101C
:10D533000000000000000000000020002000242163
:10D54300CB5A929479CEFFFFFFFFFFFFFFFFFFFF50
:10D55300FFFFFFFFFFFFFFFFFFFFFFFFFFFFFFFFD8
:10D56300FFFFDFFFFFFFFFFFFFFFDFFFDFFFDFFF48
:10D57300BEF7FFFFFFFFFFFFFFFFFFFFFFFFFFFF01
:10D58300FFFFFFFFFFFFFFFFFFFFFFFFFFFFFFFFA8
:10D59300BEF7BEF7BEF7BEF7BEF7FFFFFFFFBAD673
:10D5A300F39C2C63452900000000000000000000EC
:10D5B3000000000061080842CF7375AD1CE7BEF799
:10D5C300BEF7FFFFFFFFFFFFFFFFFFFFFFFFFFFFB1
:10D5D300FFFFFFFFFFFFFFFFFFFFFFFFFFFFFFFF58
:10D5E300DFFFDFFFFFFFFFFFFFFFDFFFDFFFDFFFE8
:10D5F300FFFFFFFFFFFFFFFFFFFFFFFFFFFFFFFF38
:10D60300FFFFFFFFFFFFFFFFFFFFFFFFFFFFBEF770
:10D61300BEF7BEF73CE796B510842842821000009F
:10D623000000000000000000000000002421EB5A6D
:10D63300D39C9AD6DFFFBEF7BEF7BEF7BEF7BEF7A1
:10D64300FFFFFFFFFFFFFFFFFFFFFFFFFFFFFFFFE7
:10D65300FFFFFFFFFFFFFFFFFFFFFFFFFFFFDFFFF7
:10D66300DFFFDFFFFFFFFFFFFFFFDFFFDFFFFFFF47
:10D67300FFFFFFFFFFFFFFFFFFFFFFFFFFFFFFFFB7
:10D68300FFFFFFFFFFFFFFFFFFFFFFFF79CEB29416
:10D693000C6345292000000000000000000000008A
:10D6A300000061080842EF7BB6B57DEFFFFFFFFF87
:10D6B300FFFFFFFFBEF7BEF7BEF7BEF7BEF7FFFFE4
:10D6C300FFFFFFFFFFFFFFFFFFFFFFFFFFFFFFFF67
:10D6D300FFFFFFFFFFFFFFFFFFFFFFFFBEF7DFFFC0
:10D6E300DFFFDFFFFFFFFFFFFFFFDFFFFFFFFFFFA7
:10D6F300FFFFFFFFFFFFFFFFFFFFFFFFFFFFFFFF37
:10D70300FFFF7DEFD7BDEF7B284282102000200072
:10D713002000200000000000000045290C63D39C7A
:10D723009AD6FFFFFFFFFFFFFFFFFFFFFFFFFFFF94
:10D73300FFFFBEF7BEF7BEF7BEF7BEF7FFFFFFFF63
:10D74300FFFFFFFFFFFFFFFFFFFFFFFFFFFFFFFFE6
:10D75300FFFFFFFFFFFFFFFFFFFFBEF7BEF7DFFF88
:10D76300DFFFDFFFFFFFFFFFFFFFFFFFFFFFFFFF06
:10D77300FFFFFFFFFFFFFFFFFFFFBAD6D39C0C6342
:10D7830045290000000000002000200020002000A8
:10D7930082102842EF7BB6B57DEFFFFFFFFFFFFF4F
:10D7A300FFFFFFFFFFFFFFFFFFFFFFFFFFFFFFFF86
:10D7B300BEF7BEF7BEF7BEF7BEF7FFFFFFFFFFFFE3
:10D7C300FFFFFFFFFFFFFFFFFFFFFFFFFFFFFFFF66
:10D7D300FFFFFFFFFFFFFFFFBEF7BEF7BEF7DFFF51
:10D7E300DFFFFFFFFFFFFFFFFFFFFFFFFFFFFFFF66
:10D7F300FFFF3CE7EF7B28426108000000000000C8
:10D803000000000000002000200020000421AA5294
:10D813001084108410841084108410841084108465
:10D823001084108410841084108410841084108455
:10D83300EF7BEF7BEF7B10841084108410841084C3
:10D843001084108410841084108410841084108435
:10D853001084108410843084FBDEBEF7BEF7DFFF34
:10D86300FFFFFFFFFFFFFFFFFFFFFFFFFFFFFFFFC5
:10D87300FFFFAA52000000000000000000000000AB
:10D8830000000000200020002000200020000000F5
:10D893000000000000000000000000000000000085
:10D8A3000000000000000000000000002000200035
:10D8B3002000200020000000000000000000000005
:10D8C3000000000000000000000000000000000055
:10D8D3000000000020002000CB5ABEF7BEF7FFFF78
:10D8E300FFFFFFFFFFFFFFFFFFFFFFFFFFFFFFFF45
:10D8F300FFFF2842000000000000000000000000BD
:10D903000000200020002000200020000000000074
:10D913000000000000000000000000000000000004
:10D923000000000000000000000020002000200094
:10D9330020002000000000000000000000000000A4
:10D9430000000000000000000000000000000000D4
:10D953000000200020002000494ABEF7FFFFFFFF20
:10D96300FFFFFFFFFFFFFFFFFFFFFFFFFFFFFFFFC4
:10D97300FFFF28420000000000000000000000003C
:10D9830020002000200020002000000000000000F4
:10D993000000000000000000000000000000000084
:10D9A30000000000000000002000200020002000F4
:10D9B3002000000000000000000000000000000044
:10D9C3000000000000000000000000000000000054
:10D9D3002000200020002000494AFFFFFFFFFFFF37
:10D9E300FFFFFFFFFFFFFFFFFFFFFFFFFFFFFFFF44
:10D9F300FFFF28420000000000000000000020009C
:10DA03002000200020002000000000000000000093
:10DA13000000000000000000000000000000000003
:10DA23000000000000002000200020002000200053
:10DA330000000000000000000000000000000000E3
:10DA430000000000000000000000000000002000B3
:10DA53002000200020002000494AFFFFFFFFFFFFB6
:10DA6300FFFFFFFFFFFFFFFFFFFFFFFFFFFFFFFFC3
:10DA7300FFFF2842000000000000000020002000FB
:10DA83002000200020000000000000000000000033
:10DA93000000000000000000000000000000000083
:10DAA30000000000200020002000200020000000D3
:10DAB3000000000000000000000000000000000063
:10DAC3000000000000000000000000002000200013
:10DAD3002000200020000000494AFFFFFFFFFFFF56
:10DAE300FFFFFFFFFFFFFFFFFFFFFFFFFFFFFFFF43
:10DAF300FFFF28420000000000002000200020005B
:10DB030020002000000000000000E318AE73D7BD22
:10DB1300FBDE3CE79AD634A5EB5A4108000000002F
:10DB23000000200020002000200020000000000052
:10DB330000000000000000000000000000000000E2
:10DB43000000000000000000000020002000200072
:10DB53002000200000000000494AFFFFFFFFFFFFF5
:10DB6300FFFFFFFFFFFFFFFFFFFFFFFFFFFFFFFFC2
:10DB7300FFFF2842000000002000200020002000BA
:10DB83002000000000006108B294DFFFFFFFFFFFE9
:10DB9300FFFFFFFFFFFFFFFFFFFF5DEF0C630000D1
:10DBA30020002000200020002000000000000000D2
:10DBB3000000200020002000200020002000200082
:10DBC3002000200020004108410820002000200000
:10DBD3002000000000000000494AFFFFFFFFFFFF95
:10DBE300FFFFFFFFFFFFFFFFFFFFFFFFFFFFFFFF42
:10DBF300FFFF28420000200020002000200020001A
:10DC0300000000000421DBDEFFFFFFFFFFFFBAD6A9
:10DC130034A5D39C96B57DEFFFFFFFFFFFFFF39C79
:10DC23004108200020002000000000000000000048
:10DC3300B294FFFFFFFFFFFFFFFFFFFFFFFFFFFFA9
:10DC4300FFFFFFFFFFFFBEF7BEF7BAD6821020002B
:10DC53000000000000000000494AFFFFFFFFFFFF34
:10DC6300FFFFFFFFFFFFFFFFFFFFFFFFFFFFFFFFC1
:10DC7300FFFF284220002000200020002000000099
:10DC83000000A2101CE7FFFFFFFFD7BD8631000095
:10DC93000000000000002000CB5A1CE7BEF7BEF7CF
:10DCA300F39C2000200000000000000000000000A2
:10DCB3009AD6FFFFFFFFFFFFFFFFFFFFFFFFFFFFFF
:10DCC300FFFFFFFFBEF7BEF7BEF7BEF74529000013
:10DCD3000000000000000000494AFFFFFFFFFFFFB4
:10DCE300FFFFFFFFFFFFFFFFFFFFFFFFFFFFFFFF41
:10DCF300FFFF284220002000200020000000000039
:10DD03000000B6B5FFFFFFFF3084000000000000F5
:10DD130000000000000000000000A210F7BDBEF7E5
:10DD2300BEF70C63000000000000000000000000CC
:10DD33002421AE73AE73AE73AE73AE73AE73AE73B4
:10DD4300AE73AE73AE73AE73AE73694A0000000078
:10DD53000000000000000000494AFFFFFFFFFFFF33
:10DD6300FFFFFFFFFFFFFFFFFFFFFFFFFFFFFFFFC0
:10DD7300BEF7284220002000200000000000000021
:10DD83002842FFFFFFFF14A5000000000000000071
:10DD9300000000000000000020002000A210DBDED5
:10DDA300BEF75DEF41080000000000000000000026
:10DDB3000000000000000000000000000000000060
:10DDC30020002000200020002000000000000000B0
:10DDD3000000000000000000494AFFFFFFFFFFFFB3
:10DDE300FFFFFFFFFFFFFFFFFFFFFFFFFFFFDFFF60
:10DDF300BEF72842200020000000000000000000C1
:10DE030096B5FFFF9EF7821000000000000000009F
:10DE13000000000000002000200020002000AA5283
:10DE2300FFFFFFFF0C630000000000000000000084
:10DE330000000000000000000000000000002000BF
:10DE4300200020002000200000000000000000004F
:10DE53000000000000000000494AFFFFFFFFFFFF32
:10DE6300FFFFFFFFFFFFFFFFFFFFFFFFDFFFDFFFFF
:10DE7300BEF7284220000000000000000000200040
:10DE8300BEF7FFFFD39C000000000000000000006D
:10DE930000000000200020002000200020002000BF
:10DEA3005DEFFFFF55AD0000000000000000000023
:10DEB300000000000000000000000000200020001F
:10DEC30020002000200000000000000000000000EF
:10DED3000000000000000000494AFFFFFFFFFFFFB2
:10DEE300FFFFFFFFFFFFFFFFFFFFDFFFDFFFDFFF9F
:10DEF300BEF7284200000000000000000000452992
:10DF0300FFFFFFFFCB5A00000000000000000000ED
:10DF1300000020002000200020002000000000005E
:10DF230075ADFFFFDBDE0000000000000000000015
:10DF3300C739718C718C718C718C518C518C518C53
:10DF4300518C518C718C718C718C2C63000000008E
:10DF53000000000000000000494AFFFFFFFFFFFF31
:10DF6300FFFFDFFFFFFFFFFFFFFFDFFFDFFFDFFF3E
:10DF7300BEF7284200000000000000000000E7395F
:10DF8300FFFFFFFF08420000000000000000000048
:10DF930020002000200020002000000000000000DE
:10DFA300B294FFFF5DEF00000000000000000000DE
:10DFB300BAD6FFFFFFFFFFFFBEF7BEF7BEF7BEF700
:10DFC300BEF7FFFFFFFFFFFFFFFFFFFF6529000015
:10DFD3000000000000000000494AFFFFFFFFFFFFB1
:10DFE300DFFFDFFFFFFFFFFFFFFFDFFFDFFFDFFFDE
:10DFF300FFFF284200000000000000000000A631DF
:10E00300FFFFFFFF694A000000000000000020003E
:10E01300200020002000200000000000000000007D
:10E0230014A5FFFF1CE70000000000000000000033
:10E0330010847DEF7DEF3CE73CE73CE73CE73CE7C2
:10E043007DEF7DEF7DEF7DEF7DEF38C6410800006A
:10E053000000000000000000494AFFFFFFFFDFFF50
:10E06300DFFFDFFFFFFFFFFFFFFFDFFFDFFFFFFF3D
:10E07300FFFF2842000000000000000000008210A3
:10E08300FFFFFFFFEF7B00000000000020002000E7
:10E09300200020002000000000000000000000001D
:10E0A3009AD6FFFFF7BD000000000000000000004B
:10E0B30000000000200020002000200020000000BD
:10E0C300000000000000000000000000000000004D
:10E0D3000000000000000000494AFFFFBEF7DFFF19
:10E0E300DFFFDFFFFFFFFFFFFFFFDFFFFFFFFFFF9D
:10E0F300FFFF2842000000000000000000000000B5
:10E103009AD6FFFFBAD600000000200020002000AE
:10E11300200020000000000000000000000045294E
:10E12300FFFFFFFFEF7B0000000000000000000086
:10E13300000020002000200020002000000000003C
:10E1430000000000000000000000000000000000CC
:10E153000000000000000000494ABEF7BEF7DFFFE1
:10E16300DFFFDFFFFFFFFFFFFFFFFFFFFFFFFFFFFC
:10E17300FFFF284200000000000000000000000034
:10E183008E73FFFFFFFFEB5A2000200020002000CA
:10E19300200000000000000000000000000096B511
:10E1A300FFFFFFFF0421000000000000000000004B
:10E1B30020002000200020002000000000000000BC
:10E1C300000000000000000000000000000000004C
:10E1D3000000000000000000494ABEF7BEF7DFFF61
:10E1E300DFFFFFFFFFFFFFFFFFFFFFFFFFFFFFFF5C
:10E1F300FFFF2842000000000000000000000000B4
:10E2030061083CE7FFFF5DEFA631200020002000FE
:10E21300000000000000000000000000CF7BFFFFB3
:10E22300FFFFF39C0000000000000000000020003E
:10E233002000C318C318C318C318A210A210A21039
:10E24300A210A210A210A210A21020000000000031
:10E253000000000000002000494ABEF7BEF7DFFFC0
:10E26300FFFFFFFFFFFFFFFFFFFFFFFFFFFFFFFFBB
:10E27300FFFF284200000000000000000000000033
:10E283000000494A9EF7BEF73CE7CB5A2000000046
:10E2930000000000000000006108B294FFFFFFFFD0
:10E2A3001CE7821000000000000000002000200096
:10E2B300F39CBEF7BEF7FFFFFFFFFFFFFFFFFFFF6C
:10E2C300FFFFFFFFFFFFFFFFFFFF5DEFA210000057
:10E2D3000000000020002000494ABEF7BEF7FFFF00
:10E2E300FFFFFFFFFFFFFFFFFFFFFFFFFFFFFFFF3B
:10E2F300FFFF2842000000000000000000000000B3
:10E30300000020000C639EF7BEF7BEF79AD6CF7BC2
:10E31300494AE739AA5292947DEFFFFFFFFF3CE79A
:10E32300452900000000000000002000200020001C
:10E3330038C6BEF7FFFFFFFFFFFFFFFFFFFFFFFF33
:10E34300FFFFFFFFFFFFFFFFFFFFFFFF2421000091
:10E353000000200020002000494ABEF7FFFFFFFF16
:10E36300FFFFFFFFFFFFFFFFFFFFFFFFFFFFFFFFBA
:10E37300FFFF284200000000000000000000000032
:10E38300200020002000494AFBDEFFFFFFFFFFFFC4
:10E39300FFFFFFFFFFFFFFFFFFFFFFFFF7BDE318D7
:10E3A30000000000000000002000200020002000EA
:10E3B300E3182C632C632C632C632C632C632C6376
:10E3C3002C632C632C632C632C63E739000000005F
:10E3D3002000200020002000494AFFFFFFFFFFFF2D
:10E3E300FFFFFFFFFFFFFFFFFFFFFFFFFFFFFFFF3A
:10E3F300FFFF284200000000000000000000200092
:10E4030020002000200020006108AE73BAD6FFFF71
:10E41300FFFFFFFFFFFFDFFFD7BD694A00000000DA
:10E423000000000000002000200020002000200049
:10E4330000000000000000000000000000000000D9
:10E4430000000000000000000000000000002000A9
:10E453002000200020002000494AFFFFFFFFFFFFAC
:10E46300FFFFFFFFFFFFFFFFFFFFFFFFFFFFFFFFB9
:10E47300FFFF2842000000000000000020002000F1
:10E483002000200020000000000000000000A21077
:10E49300C73908428631410800000000000000002F
:10E4A30000000000200020002000200020000000C9
:10E4B3000000000000000000000000000000000059
:10E4C3000000000000000000000000002000200009
:10E4D3002000200020000000494AFFFFFFFFFFFF4C
:10E4E300FFFFFFFFFFFFFFFFFFFFFFFFFFFFFFFF39
:10E4F300FFFF284200000000000020002000200051
:10E5030020002000000000000000000000000000C8
:10E5130000000000000000000000000000000000F8
:10E523000000200020002000200020000000000048
:10E5330000000000000000000000000000000000D8
:10E543000000000000000000000020002000200068
:10E553002000200000000000494AFFFFFFFFFFFFEB
:10E56300FFFFFFFFFFFFFFFFFFFFFFFFFFFFFFFFB8
:10E57300FFFF2842000000002000200020002000B0
:10E583002000000000000000000000000000000068
:10E593000000000000000000000000000000000078
:10E5A30020002000200020002000000000000000C8
:10E5B3000000000000000000000000000000000058
:10E5C30000000000000000002000200020002000C8
:10E5D3002000000000000000494AFFFFFFFFFFFF8B
:10E5E300FFFFFFFFFFFFFFFFFFFFFFFFFFFFFFFF38
:10E5F300FFFF284200002000200020002000200010
:10E603000000000000000000000000000000000007
:10E6130000000000000000000000000000002000D7
:10E623002000200020002000000000000000000067
:10E6330000000000000000000000000000000000D7
:10E643000000000000002000200020002000200027
:10E653000000000000000000494AFFFFFFFFFFFF2A
:10E66300FFFFFFFFFFFFFFFFFFFFFFFFFFFFFFFFB7
:10E67300FFFF494A20002000200020002000000066
:10E683000000000000000000000000000000000087
:10E693000000000000000000000000002000200037
:10E6A3002000200020000000000000000000000007
:10E6B3000000000000000000000000000000000057
:10E6C30000000000200020002000200020000000A7
:10E6D3000000000000000000694AFFFFFFFFFFFF8A
:10E6E300FFFFFFFFFFFFFFFFFFFFFFFFFFFFFFFF37
:10E6F300FFFF34A524210421042104210421E3186C
:10E70300E318E318E318E318E318E318E318E3182E
:10E71300E318E318E318E318042104210421042176
:10E72300042104210421E318E318E318E318E31890
:10E73300E318E318E318E318E318E318E318E318FE
:10E743000421042104210421042104210421E318C8
:10E75300E318E318E318242196B5FFFFFFFFFFFF3B
:10E76300FFFFFFFFFFFFFFFFFFFFFFFFFFFFFFFFB6
:10E77300BEF7BEF7BEF7BEF7BEF7FFFFFFFFFFFF13
:10E78300FFFFFFFFFFFFFFFFFFFFFFFFFFFFFFFF96
:10E79300FFFFFFFFFFFFFFFFBEF7BEF7BEF7BEF7AA
:10E7A300BEF7FFFFFFFFFFFFFFFFFFFFFFFFFFFFBF
:10E7B300FFFFFFFFFFFFFFFFFFFFFFFFFFFFFFFF66
:10E7C300BEF7BEF7BEF7BEF7BEF7FFFFFFFFFFFFC3
:10E7D300FFFFFFFFFFFFFFFFFFFFFFFFFFFFFFFF46
:10E7E300FFFFFFFFFFFFFFFFFFFFFFFFFFFFDFFF56
:10E7F300BEF7BEF7BEF7BEF7FFFFFFFFFFFFFFFF4A
:10E80300FFFFFFFFFFFFFFFFFFFFFFFFFFFFFFFF15
:10E81300FFFFFFFFFFFFBEF7BEF7BEF7BEF7BEF772
:10E82300FFFFFFFFFFFFFFFFFFFFFFFFFFFFFFFFF5
:10E83300FFFFFFFFFFFFFFFFFFFFFFFFFFFFBEF72E
:10E84300BEF7BEF7BEF7BEF7FFFFFFFFFFFFFFFFF9
:10E85300FFFFFFFFFFFFFFFFFFFFFFFFFFFFFFFFC5
:10E86300FFFFFFFFFFFFFFFFFFFFFFFFDFFFDFFFF5
:10E87300BEF7BEF7BEF7FFFFFFFFFFFFFFFFFFFF80
:10E88300FFFFFFFFFFFFFFFFFFFFFFFFFFFFFFFF95
:10E89300FFFFFFFFBEF7BEF7BEF7BEF7BEF7FFFFF2
:10E8A300FFFFFFFFFFFFFFFFFFFFFFFFFFFFFFFF75
:10E8B300FFFFFFFFFFFFFFFFFFFFFFFFBEF7BEF7F7
:10E8C300BEF7BEF7BEF7FFFFFFFFFFFFFFFFFFFF30
:10E8D300FFFFFFFFFFFFFFFFFFFFFFFFFFFFFFFF45
:10E8E300FFFFFFFFFFFFFFFFFFFFDFFFDFFFDFFF95
:10E8F300BEF7BEF7FFFFFFFFFFFFFFFFFFFFFFFFB7
:10E90300FFFFFFFFFFFFFFFFFFFFFFFFFFFFFFFF14
:10E91300FFFFBEF7BEF7BEF7BEF7BEF7FFFFFFFF71
:10E92300FFFFFFFFFFFFFFFFFFFFFFFFFFFFFFFFF4
:10E93300FFFFFFFFFFFFFFFFFFFFBEF7BEF7BEF7BF
:10E94300BEF7BEF7FFFFFFFFFFFFFFFFFFFFFFFF66
:10E95300FFFFFFFFFFFFFFFFFFFFFFFFFFFFFFFFC4
:10E96300FFFFDFFFFFFFFFFFFFFFDFFFDFFFDFFF34
:10E97300BEF7FFFFFFFFFFFFFFFFFFFFFFFFFFFFED
:10E98300FFFFFFFFFFFFFFFFFFFFFFFFFFFFFFFF94
:10E99300BEF7BEF7BEF7BEF7BEF7FFFFFFFFFFFFF1
:10E9A300FFFFFFFFFFFFFFFFFFFFFFFFFFFFFFFF74
:10E9B300FFFFFFFFFFFFFFFFBEF7BEF7BEF7BEF788
:10E9C300BEF7FFFFFFFFFFFFFFFFFFFFFFFFFFFF9D
:10E9D300FFFFFFFFFFFFFFFFFFFFFFFFFFFFFFFF44
:10E9E300DFFFDFFFFFFFFFFFFFFFDFFFDFFFDFFFD4
:10E9F300FFFFFFFFFFFFFFFFFFFFFFFFFFFFFFFF24
:10EA0300FFFFFFFFFFFFFFFFFFFFFFFFFFFFBEF75C
:10EA1300BEF7BEF7BEF7BEF7FFFFFFFFFFFFFFFF27
:10EA2300FFFFFFFFFFFFFFFFFFFFFFFFFFFFFFFFF3
:10EA3300FFFFFFFFFFFFBEF7BEF7BEF7BEF7BEF750
:10EA4300FFFFFFFFFFFFFFFFFFFFFFFFFFFFFFFFD3
:10EA5300FFFFFFFFFFFFFFFFFFFFFFFFFFFFDFFFE3
:10EA6300DFFFDFFFFFFFFFFFFFFFDFFFDFFFFFFF33
:10EA7300FFFFFFFFFFFFFFFFFFFFFFFFFFFFFFFFA3
:10EA8300FFFFFFFFFFFFFFFFFFFFFFFFBEF7BEF725
:10EA9300BEF7BEF7BEF7FFFFFFFFFFFFFFFFFFFF5E
:10EAA300FFFFFFFFFFFFFFFFFFFFFFFFFFFFFFFF73
:10EAB300FFFFFFFFBEF7BEF7BEF7BEF7BEF7FFFFD0
:10EAC300FFFFFFFFFFFFFFFFFFFFFFFFFFFFFFFF53
:10EAD300FFFFFFFFFFFFFFFFFFFFFFFFBEF7DFFFAC
:10EAE300DFFFDFFFFFFFFFFFFFFFDFFFFFFFFFFF93
:10EAF300FFFFFFFFFFFFFFFFFFFFFFFFFFFFFFFF23
:10EB0300FFFFFFFFFFFFFFFFFFFFBEF7BEF7BEF7ED
:10EB1300BEF7BEF7FFFFFFFFFFFFFFFFFFFFFFFF94
:10EB2300FFFFFFFFFFFFFFFFFFFFFFFFFFFFFFFFF2
:10EB3300FFFFBEF7BEF7BEF7BEF7BEF7FFFFFFFF4F
:10EB4300FFFFFFFFFFFFFFFFFFFFFFFFFFFFFFFFD2
:10EB5300FFFFFFFFFFFFFFFFFFFFBEF7BEF7DFFF74
:10EB6300DFFFDFFFFFFFFFFFFFFFFFFFFFFFFFFFF2
:10EB7300FFFFFFFFFFFFFFFFFFFFFFFFFFFFFFFFA2
:10EB8300FFFFFFFFFFFFFFFFDFFFDFFFDFFFDFFF12
:10EB9300DFFFFFFFFFFFFFFFFFFFFFFFFFFFFFFFA2
:10EBA300FFFFFFFFFFFFFFFFFFFFFFFFFFFFFFFF72
:10EBB300DFFFDFFFDFFFDFFFDFFFFFFFFFFFFFFF02
:10EBC300FFFFFFFFFFFFFFFFFFFFFFFFFFFFFFFF52
:10EBD300FFFFFFFFFFFFFFFFDFFFDFFFDFFFDFFFC2
:10EBE300DFFFFFFFFFFFFFFFFFFFFFFFFFFFFFFF52
:10EBF300FFFFFFFFFFFFFFFFFFFFFFFFFFFFFFFF22
:10EC0300FFFFFFFFFFFFDFFFDFFFDFFFDFFFDFFFB1
:10EC1300FFFFFFFFFFFFFFFFFFFFFFFFFFFFFFFF01
:10EC2300FFFFFFFFFFFFFFFFFFFFFFFFFFFFDFFF11
:10EC3300DFFFDFFFDFFFDFFFFFFFFFFFFFFFFFFF61
:10EC4300FFFFFFFFFFFFFFFFFFFFFFFFFFFFFFFFD1
:10EC5300FFFFFFFFFFFFDFFFDFFFDFFFDFFFDFFF61
:10EC6300FFFFFFFFFFFFFFFFFFFFFFFFFFFFFFFFB1
:10EC7300FFFFFFFFFFFFFFFFFFFFFFFFFFFFFFFFA1
:10EC8300FFFFFFFFDFFFDFFFDFFFDFFFDFFFFFFF31
:10EC9300FFFFFFFFFFFFFFFFFFFFFFFFFFFFFFFF81
:10ECA300FFFFFFFFFFFFFFFFFFFFFFFFDFFFDFFFB1
:10ECB300DFFFDFFFDFFFFFFFFFFFFFFFFFFFFFFFC1
:10ECC300FFFFFFFFFFFFFFFFFFFFFFFFFFFFFFFF51
:10ECD300FFFFFFFFDFFFDFFFDFFFDFFFDFFFFFFFE1
:10ECE300FFFFFFFFFFFFFFFFFFFFFFFFFFFFFFFF31
:10ECF300FFFFFFFFFFFFFFFFFFFFFFFFFFFFFFFF21
:10ED0300FFFFFFFFFFFFFFFFFFFFFFFFFFFFFFFF10
:10ED1300FFFFFFFFFFFFFFFFFFFFFFFFFFFFFFFF00
:10ED2300FFFFFFFFFFFFFFFFFFFFFFFFFFFFFFFFF0
:10ED3300FFFFFFFFFFFFFFFFFFFFFFFFFFFFFFFFE0
:10ED4300FFFFFFFFFFFFFFFFFFFFFFFFFFFFFFFFD0
:10ED5300FFFFFFFFFFFFFFFFFFFFFFFFFFFFFFFFC0
:10ED6300FFFFFFFFFFFF000020007E0017000C8461
:10ED730001000CB201000CE001000C0E02000C3C7F
:10ED830002000C6A02000C9802000CC602000CF48C
:10ED930002000C2203000C5003000C7E03000CAC99
:10EDA30003000CDA03000C0804000C3604000C64A6
:10EDB30004000C9204000CC004000CEE04000C1CB4
:10EDC30005000C4A05000C7805000CA605000CD4C0
:10EDD30005000C0206000C3006000C5E06000C8CCD
:10EDE30006000CBA06000CE806000C1607000C44DB
:10EDF30007000C7207000CA007000CCE07000CFCE8
:10EE030007000C2A08000C5808000C8608000CB4F4
:10EE130008000CE208000C1009000C3E09000C6C01
:10EE230009000C9A09000CC809000CF609000C240F
:10EE33000A000C520A000C800A000CAE0A000CDC1B
:10EE43000A000C0A0B000C380B000C660B000C9428
:10EE53000B000CC20B000CF00B000C1E0C000C4C36
:10EE63000C000C7A0C000CA80C000CD60C000C0443
:10EE73000D000C320D000C600D000C8E0D000CBC4F
:10EE83000D000CEA0D000C180E000C460E000C745D
:10EE93000E000CA20E000CD00E000CFE0E000C2C6B
:10EEA3000F000C5A0F000C880F000CB60F000CE477
:10EEB3000F000C1210000C4010000C6E10000C9C84
:10EEC30010000CCA10000CF810000C2611000C5492
:10EED30011000C8211000CB011000CDE11000C0C9F
:10EEE30012000C3A12000C6812000000000000002F
:10EEF300000000000000000000000000000000000F
:10EF030000000000000000000000000000000000FE
:10EF130000000000000000000000000000000000EE
:10EF230070007000700070007000700070002000AE
:10EF330020000000000070007000000000000000CE
:10EF430000000000000000000000000000000000BE
:10EF53009C039C039C0308010801080100000000B6
:10EF6300000000000000000000000000000000009E
:10EF730000000000000000000000980198019801C3
:10EF830098019801FE07FE0798019801FE07FE0706
:10EF93009801980198019801980100000000000071
:10EFA300000000000000000060006000F003F803B0
:10EFB3000C030C007C00F80180030C030C03FC0120
:10EFC300FC00600060006000000000000000000022
:10EFD30000000000000000001C00220022002200AC
:10EFE3001C03C003F8001E00C601200220022002F9
:10EFF300C00100000000000000000000000000004D
:10F0030000000000000000000000E003F803180007
:10F01300180030007806FC07CC038C01FC07F006CF
:10F0230000000000000000000000000000000000DD
:10F03300000000000000E000E000E00040004000AD
:10F04300400000000000000000000000000000007D
:10F0530000000000000000000000000000000000AD
:10F06300000080018001C000C000C000600060009B
:10F073006000600060006000C000C000C00080014C
:10F0830080010000000000000000000000000000FC
:10F09300180018003000300030006000600060008D
:10F0A300600060006000300030003000180018007D
:10F0B30000000000000000000000000000006000ED
:10F0C300600060006C03FC03F000F000F80198019D
:10F0D300000000000000000000000000000000002D
:10F0E300000000000000000000000000000000001D
:10F0F3006000600060006000FE07FE0760006000C3
:10F10300600060000000000000000000000000003C
:10F1130000000000000000000000000000000000EC
:10F123000000000000000000000000000000E000FC
:10F13300600060003000300010000000000000009C
:10F1430000000000000000000000000000000000BC
:10F1530000000000FE03FE030000000000000000AA
:10F16300000000000000000000000000000000009C
:10F17300000000000000000000000000000000008C
:10F18300000000000000000000007000700070002C
:10F19300000000000000000000000000000000006C
:10F1A300000000030003800180018001C000C00053
:10F1B30060006000300030001800180018000C00D8
:10F1C3000C00000000000000000000000000000030
:10F1D3000000F800FC018C01060306030603060386
:10F1E3000603060306038C01FC01F800000000007F
:10F1F300000000000000000000000000000000000C
:10F2030060007C007C0060006000600060006000C3
:10F21300600060006000FC03FC03000000000000CD
:10F223000000000000000000000000000000F800E3
:10F23300FC018E03060300038001C0006000300060
:10F2430018000C00FE03FE03000000000000000095
:10F25300000000000000000000000000F800FE01B4
:10F26300860300038003F001F00180030003000321
:10F273008303FF01FE000000000000000000000007
:10F2830000000000000000000000C001E001E001F8
:10F29300B001980198018C018601FE03FE038001F1
:10F2A300E003E00300000000000000000000000095
:10F2B3000000000000000000FC01FC010C000C0039
:10F2C300FC00FC018C030003000300038603FE0122
:10F2D300FC0000000000000000000000000000002F
:10F2E300000000000000E003F8033C000C000E00E7
:10F2F300F600FE018E03060306038C03FC01F000F7
:10F3030000000000000000000000000000000000FA
:10F3130000000000FE03FE030603000380018001DA
:10F323008001C000C000C0006000600060000000F9
:10F3330000000000000000000000000000000000CA
:10F343000000F800FC018E0306038E03FC01FC01A0
:10F353008E03060306038E03FC01F8000000000081
:10F36300000000000000000000000000000000009A
:10F373007800FC018E01060306038E03FC03780369
:10F3830080038001E001FE003E0000000000000059
:10F39300000000000000000000000000000000006A
:10F3A300000000000000700070007000000000000A
:10F3B30000007000700070000000000000000000FA
:10F3C300000000000000000000000000000000003A
:10F3D30000000000C001C001C001000000000000E7
:10F3E300E00060003000300010000000000000006A
:10F3F3000000000000000000000000000000000604
:10F403008007E00170001C000F001C007000E00189
:10F41300800700060000000000000000000000005C
:10F4230000000000000000000000000000000000D9
:10F43300FF07FF0700000000FF07FF0700000000B1
:10F4430000000000000000000000000000000000B9
:10F453000000000000000000000006001E0078000D
:10F46300E0008003000F8003E00078001E00060028
:10F473000000000000000000000000000000000089
:10F48300000000000000F800FC018C030C030003E3
:10F49300C001E00060000000000070007000000088
:10F4A3000000000000000000000000000000000059
:10F4B3000000E0009800080104010401C4012401D4
:10F4C30024012401C401040008000801F000000025
:10F4D3000000000000000000000000000000000029
:10F4E3000000FC00FC00E000B001B001980118032B
:10F4F300FC03FC0306060F0F0F0F000000000000C3
:10F5030000000000000000000000000000000000F8
:10F51300FE00FE010C030C038C03FC01FC030C072F
:10F523000C060C06FE07FE010000000000000000B0
:10F533000000000000000000000000000000F006D2
:10F54300F8071C070E0606000600060006000E0656
:10F553001C07F803F0010000000000000000000099
:10F56300000000000000000000000000FF00FF0199
:10F57300860306070606060606060606060786032C
:10F58300FF01FF0000000000000000000000000079
:10F5930000000000000000000000FE07FE070C064C
:10F5A3000C06CC00FC00FC00CC000C060C06FE078D
:10F5B300FE07000000000000000000000000000043
:10F5C3000000000000000000FE07FE070C060C060A
:10F5D300CC00FC00FC00CC000C000C007E007E0084
:10F5E3000000000000000000000000000000000018
:10F5F300000000000000F006FC070C0706060600EA
:10F603000600C60FC60F06060C06FC07F001000035
:10F6130000000000000000000000000000000000E7
:10F62300000000009E079E070C030C030C03FC0361
:10F63300FC030C030C030C039E079E070000000051
:10F6430000000000000000000000000000000000B7
:10F653000000FC03FC0360006000600060006000C9
:10F66300600060006000FC03FC0300000000000079
:10F673000000000000000000000000000000000087
:10F68300E00FE00F0003000300030003060306037B
:10F6930006038603FE01F8000000000000000000DE
:10F6A3000000000000000000000000000000BE0F8A
:10F6B300BE0F8C03CC006C007C00DC008C018C0141
:10F6C3000C033E0F3E0E000000000000000000008F
:10F6D3000000000000000000000000007E007E002B
:10F6E3001800180018001800180018061806180645
:10F6F300FE07FE07000000000000000000000000FD
:10F70300000000000000000000000F0F0F0F0E07A5
:10F713009E079606F606F6066606660606069F0F1B
:10F723009F0F000000000000000000000000000028
:10F733000000000000000000CE07DE071C033C03AE
:10F743003C036C036C03CC03CC038C03BE033E036A
:10F7530000000000000000000000000000000000A6
:10F76300000000000000F000F8019C030E070606ED
:10F773000606060606060E079C03F801F0000000C5
:10F783000000000000000000000000000000000076
:10F7930000000000FE01FE030C070C060C060C071C
:10F7A300FC03FC010C000C007E007E000000000046
:10F7B3000000000000000000000000000000000046
:10F7C3000000F000F8019C030E0706060606060675
:10F7D30006060E079C03F801F000F006F8079803ED
:10F7E3000000000000000000000000000000000016
:10F7F300FE01FE030C070C060C07FC03FC018C0343
:10F803000C030C073E0E3E0C00000000000000003D
:10F813000000000000000000000000000000F806E7
:10F82300FC070E0706060E00FC00F00300070606A1
:10F833000E07FE03F60100000000000000000000B8
:10F84300000000000000000000000000FE07FE07AB
:10F853006606660666066000600060006000600081
:10F86300F801F801000000000000000000000000A3
:10F87300000000000000000000009E079E070C032C
:10F883000C030C030C030C030C030C039C03F80183
:10F89300F000000000000000000000000000000075
:10F8A30000000000000000008F078F070603060317
:10F8B3008C018C01D800D800D80070007000700053
:10F8C3000000000000000000000000000000000035
:10F8D3000000000000001F0F1F0F060CE60CE60CD3
:10F8E300E60CB60DB4051C071C071C070C0600002C
:10F8F3000000000000000000000000000000000005
:10F90300000000008F078F0706038C01D8007000EA
:10F913007000D8008C0106038F078F0700000000DA
:10F9230000000000000000000000000000000000D4
:10F9330000009E079E070C039801F000F000600092
:10F94300600060006000F801F801000000000000A2
:10F9530000000000000000000000000000000000A4
:10F96300FC03FC030C038C01C0006000600030004A
:10F9730018030C03FC03FC0300000000000000005C
:10F98300000000000000000000000000E001E001B2
:10F993006000600060006000600060006000600064
:10F9A3006000600060006000E001E0010000000012
:10F9B30000000000000000000C000C0018001800FC
:10F9C30018003000300060006000C000C0008001FB
:10F9D300800180010003000300000000000000001C
:10F9E3000000000000000000780078006000600064
:10F9F3006000600060006000600060006000600004
:10FA03006000600078007800000000000000000043
:10FA130000000000000020007000D8008C010603E5
:10FA230002020000000000000000000000000000CF
:10FA330000000000000000000000000000000000C3
:10FA430000000000000000000000000000000000B3
:10FA530000000000000000000000000000000000A3
:10FA6300000000000000FF0FFF0F00000000000077
:10FA73000000100060008000000000000000000093
:10FA83000000000000000000000000000000000073
:10FA93000000000000000000000000000000000063
:10FAA3000000000000000000F800FC030003F8035E
:10FAB300FC030E038603FE07780700000000000026
:10FAC300000000000000000000000000000007002C
:10FAD300070006000600F600FE030E0306060606F0
:10FAE30006060E03FF03F7000000000000000000FD
:10FAF3000000000000000000000000000000000003
:10FB030000000000F006FC070C06060606000600CF
:10FB13000E06FC07F80100000000000000000000D2
:10FB230000000000000000000000000700070006BE
:10FB33000006F006FC070C070606060606060E0777
:10FB4300FC0FF00E000000000000000000000000A9
:10FB530000000000000000000000000000000000A2
:10FB6300F000FC030C03FE07FE0706000C06FC076F
:10FB7300F001000000000000000000000000000091
:10FB8300000000000000E007F00730003000FC0335
:10FB9300FC0330003000300030003000FC03FC0375
:10FBA3000000000000000000000000000000000052
:10FBB300000000000000000000000000F00EFC0F39
:10FBC3000C070606060606060C07FC07F0060006E9
:10FBD3000007F803F8010000000000000000000027
:10FBE30000000E000E000C000C00EC01FC031C03D3
:10FBF3000C030C030C030C039E079E07000000007C
:10FC030000000000000000000000000000000000F1
:10FC130060006000000000007C007C006000600069
:10FC2300600060006000FC03FC03000000000000B3
:10FC33000000000000000000000000000000600061
:10FC4300600000000000FC01FC01800180018001D4
:10FC530080018001800180018001C001FE007E00DF
:10FC63000000000000000000000000000E000E0075
:10FC73000C000C00EC03EC036C003C003C006C003B
:10FC8300CC00CE07CE0700000000000000000000FB
:10FC9300000000000000000000007C007C00600009
:10FCA3006000600060006000600060006000600051
:10FCB300FC03FC0300000000000000000000000043
:10FCC3000000000000000000000000000000000031
:10FCD300BF03FF0766066606660666066606EF0E40
:10FCE300EF0E000000000000000000000000000014
:10FCF3000000000000000000000000000000EE0013
:10FD0300FE031C030C030C030C030C039E079E074A
:10FD130000000000000000000000000000000000E0
:10FD2300000000000000000000000000F000FC03E1
:10FD33000C030606060606060C03FC03F00000008F
:10FD430000000000000000000000000000000000B0
:10FD530000000000000000000000F700FF030E0396
:10FD63000606060606060E03FE03F6000600060058
:10FD73001F001F0000000000000000000000000042
:10FD83000000000000000000F00EFC0F0C07060648
:10FD9300060606060C07FC07F00600060006800FA1
:10FDA300800F0000000000000000000000000000C1
:10FDB3000000000000009E03DE07780638001800EC
:10FDC30018001800FE01FE01000000000000000002
:10FDD3000000000000000000000000000000000020
:10FDE30000000000F003FC030C033C00F801C00317
:10FDF3000C03FC03FC0000000000000000000000F6
:10FE030000000000000000000000000018001800BF
:10FE13001800FE03FE031800180018001800180647
:10FE2300F807F001000000000000000000000000DF
:10FE330000000000000000000000000000000000BF
:10FE43008E038E030C030C030C030C038C03FC07BF
:10FE53007807000000000000000000000000000020
:10FE630000000000000000000000000000008F07F9
:10FE73008F0706038C018C01D800D8007000700036
:10FE8300000000000000000000000000000000006F
:10FE93000000000000000000000000008F078F0733
:10FEA30026032603F603DC01DC018C018C01000030
:10FEB300000000000000000000000000000000003F
:10FEC300000000000000000000009E079E0798014C
:10FED300F0006000F00098019E079E0700000000FC
:10FEE300000000000000000000000000000000000F
:10FEF30000000000000000008F078F0706038C013D
:10FF03008C01D800F80070003000300018007F002A
:10FF13007F0000000000000000000000000000005F
:10FF2300000000000000FC03FC038C01C000600023
:10FF330030001803FC03FC03000000000000000075
:10FF4300000000000000000000000000C001E0010C
:10FF530060006000600060006000700038007000A6
:10FF63006000600060006000E001C001000000006C
:10FF7300000000000000000000006000600060005E
:10FF8300600060006000600060006000600060006E
:10FF9300600060006000600060000000000000007E
:10FFA30000000000000000001C003C003000300096
:10FFB3003000300030007000E0007000300030008E
:10FFC300300030003C001C00000000000000000076
:10FFD300000000000000000000000000000000001E
:10FFE30038007E06E607C0030000000000000000A2
:0DFFF3000000000000000000000000000001
:020000040020DA
:08000000FFFFFFFFFFFFFFFF00
:020000040030CA
:0E000000FF281F3CFF3F81FF0FC00FE00F40A5
:00000001FF
